{
  "_format": "hh-sol-artifact-1",
  "contractName": "CartillaTK",
  "sourceName": "contracts/CartillaTK.sol",
  "abi": [
    {
      "inputs": [],
      "stateMutability": "nonpayable",
      "type": "constructor"
    },
    {
      "inputs": [
        {
          "internalType": "address",
          "name": "sender",
          "type": "address"
        },
        {
          "internalType": "uint256",
          "name": "tokenId",
          "type": "uint256"
        },
        {
          "internalType": "address",
          "name": "owner",
          "type": "address"
        }
      ],
      "name": "ERC721IncorrectOwner",
      "type": "error"
    },
    {
      "inputs": [
        {
          "internalType": "address",
          "name": "operator",
          "type": "address"
        },
        {
          "internalType": "uint256",
          "name": "tokenId",
          "type": "uint256"
        }
      ],
      "name": "ERC721InsufficientApproval",
      "type": "error"
    },
    {
      "inputs": [
        {
          "internalType": "address",
          "name": "approver",
          "type": "address"
        }
      ],
      "name": "ERC721InvalidApprover",
      "type": "error"
    },
    {
      "inputs": [
        {
          "internalType": "address",
          "name": "operator",
          "type": "address"
        }
      ],
      "name": "ERC721InvalidOperator",
      "type": "error"
    },
    {
      "inputs": [
        {
          "internalType": "address",
          "name": "owner",
          "type": "address"
        }
      ],
      "name": "ERC721InvalidOwner",
      "type": "error"
    },
    {
      "inputs": [
        {
          "internalType": "address",
          "name": "receiver",
          "type": "address"
        }
      ],
      "name": "ERC721InvalidReceiver",
      "type": "error"
    },
    {
      "inputs": [
        {
          "internalType": "address",
          "name": "sender",
          "type": "address"
        }
      ],
      "name": "ERC721InvalidSender",
      "type": "error"
    },
    {
      "inputs": [
        {
          "internalType": "uint256",
          "name": "tokenId",
          "type": "uint256"
        }
      ],
      "name": "ERC721NonexistentToken",
      "type": "error"
    },
    {
      "anonymous": false,
      "inputs": [
        {
          "indexed": true,
          "internalType": "address",
          "name": "owner",
          "type": "address"
        },
        {
          "indexed": true,
          "internalType": "address",
          "name": "approved",
          "type": "address"
        },
        {
          "indexed": true,
          "internalType": "uint256",
          "name": "tokenId",
          "type": "uint256"
        }
      ],
      "name": "Approval",
      "type": "event"
    },
    {
      "anonymous": false,
      "inputs": [
        {
          "indexed": true,
          "internalType": "address",
          "name": "owner",
          "type": "address"
        },
        {
          "indexed": true,
          "internalType": "address",
          "name": "operator",
          "type": "address"
        },
        {
          "indexed": false,
          "internalType": "bool",
          "name": "approved",
          "type": "bool"
        }
      ],
      "name": "ApprovalForAll",
      "type": "event"
    },
    {
      "anonymous": false,
      "inputs": [
        {
          "indexed": true,
          "internalType": "address",
          "name": "_from",
          "type": "address"
        },
        {
          "indexed": true,
          "internalType": "uint256",
          "name": "_tokenId",
          "type": "uint256"
        },
        {
          "indexed": true,
          "internalType": "address",
          "name": "_childContract",
          "type": "address"
        },
        {
          "indexed": false,
          "internalType": "uint256",
          "name": "_childTokenId",
          "type": "uint256"
        }
      ],
      "name": "ReceivedChild",
      "type": "event"
    },
    {
      "anonymous": false,
      "inputs": [
        {
          "indexed": true,
          "internalType": "address",
          "name": "from",
          "type": "address"
        },
        {
          "indexed": true,
          "internalType": "address",
          "name": "to",
          "type": "address"
        },
        {
          "indexed": true,
          "internalType": "uint256",
          "name": "tokenId",
          "type": "uint256"
        }
      ],
      "name": "Transfer",
      "type": "event"
    },
    {
      "anonymous": false,
      "inputs": [
        {
          "indexed": true,
          "internalType": "uint256",
          "name": "tokenId",
          "type": "uint256"
        },
        {
          "indexed": true,
          "internalType": "address",
          "name": "_to",
          "type": "address"
        },
        {
          "indexed": true,
          "internalType": "address",
          "name": "_childContract",
          "type": "address"
        },
        {
          "indexed": false,
          "internalType": "uint256",
          "name": "_childTokenId",
          "type": "uint256"
        }
      ],
      "name": "TransferChild",
      "type": "event"
    },
    {
      "inputs": [],
      "name": "ERC998_MAGIC_VALUE",
      "outputs": [
        {
          "internalType": "bytes32",
          "name": "",
          "type": "bytes32"
        }
      ],
      "stateMutability": "view",
      "type": "function"
    },
    {
      "inputs": [
        {
          "internalType": "address",
          "name": "to",
          "type": "address"
        },
        {
          "internalType": "uint256",
          "name": "tokenId",
          "type": "uint256"
        }
      ],
      "name": "approve",
      "outputs": [],
      "stateMutability": "nonpayable",
      "type": "function"
    },
    {
      "inputs": [
        {
          "internalType": "address",
          "name": "_tokenOwner",
          "type": "address"
        }
      ],
      "name": "balanceOf",
      "outputs": [
        {
          "internalType": "uint256",
          "name": "",
          "type": "uint256"
        }
      ],
      "stateMutability": "view",
      "type": "function"
    },
    {
      "inputs": [
        {
          "internalType": "uint256",
          "name": "tokenId",
          "type": "uint256"
        }
      ],
      "name": "getApproved",
      "outputs": [
        {
          "internalType": "address",
          "name": "",
          "type": "address"
        }
      ],
      "stateMutability": "view",
      "type": "function"
    },
    {
      "inputs": [
        {
          "internalType": "address",
          "name": "_patientAddress",
          "type": "address"
        }
      ],
      "name": "getCartillaPacient",
      "outputs": [
        {
          "components": [
            {
              "internalType": "uint256",
              "name": "idToken",
              "type": "uint256"
            },
            {
              "internalType": "string",
              "name": "hashCip",
              "type": "string"
            },
            {
              "internalType": "bool",
              "name": "permisAdministrar",
              "type": "bool"
            }
          ],
          "internalType": "struct CartillaTK.Cartilla",
          "name": "",
          "type": "tuple"
        }
      ],
      "stateMutability": "view",
      "type": "function"
    },
    {
      "inputs": [
        {
          "internalType": "address",
          "name": "_from",
          "type": "address"
        },
        {
          "internalType": "uint256",
          "name": "_tokenId",
          "type": "uint256"
        },
        {
          "internalType": "address",
          "name": "_childContract",
          "type": "address"
        },
        {
          "internalType": "uint256",
          "name": "_childTokenId",
          "type": "uint256"
        }
      ],
      "name": "getChild",
      "outputs": [],
      "stateMutability": "nonpayable",
      "type": "function"
    },
    {
      "inputs": [
        {
          "internalType": "uint256",
          "name": "_tokenId",
          "type": "uint256"
        }
      ],
      "name": "getChildContracts",
      "outputs": [
        {
          "internalType": "address[]",
          "name": "",
          "type": "address[]"
        }
      ],
      "stateMutability": "view",
      "type": "function"
    },
    {
      "inputs": [
        {
          "internalType": "uint256",
          "name": "_idToken",
          "type": "uint256"
        }
      ],
      "name": "getDadesCartilla",
      "outputs": [
        {
          "components": [
            {
              "internalType": "uint256",
              "name": "idToken",
              "type": "uint256"
            },
            {
              "internalType": "string",
              "name": "hashCip",
              "type": "string"
            },
            {
              "internalType": "bool",
              "name": "permisAdministrar",
              "type": "bool"
            }
          ],
          "internalType": "struct CartillaTK.Cartilla",
          "name": "",
          "type": "tuple"
        }
      ],
      "stateMutability": "view",
      "type": "function"
    },
    {
      "inputs": [
        {
          "internalType": "uint256",
          "name": "_idParentToken",
          "type": "uint256"
        }
      ],
      "name": "getDadesVacunesCartilla",
      "outputs": [
        {
          "components": [
            {
              "internalType": "address",
              "name": "contracteVacuna",
              "type": "address"
            },
            {
              "internalType": "uint256",
              "name": "idVacunaToken",
              "type": "uint256"
            },
            {
              "components": [
                {
                  "internalType": "uint256",
                  "name": "idToken",
                  "type": "uint256"
                },
                {
                  "internalType": "string",
                  "name": "idVacuna",
                  "type": "string"
                },
                {
                  "internalType": "bool",
                  "name": "termolabil",
                  "type": "bool"
                },
                {
                  "internalType": "int16",
                  "name": "tempConservacio",
                  "type": "int16"
                },
                {
                  "internalType": "string",
                  "name": "dataCaducitat",
                  "type": "string"
                },
                {
                  "internalType": "bool",
                  "name": "asignadaLot",
                  "type": "bool"
                },
                {
                  "internalType": "bool",
                  "name": "administrada",
                  "type": "bool"
                }
              ],
              "internalType": "struct VacunaTK.Vacuna",
              "name": "vacuna",
              "type": "tuple"
            }
          ],
          "internalType": "struct CartillaTK.DadesVacunaCartilla[]",
          "name": "",
          "type": "tuple[]"
        }
      ],
      "stateMutability": "view",
      "type": "function"
    },
    {
      "inputs": [],
      "name": "getOwner",
      "outputs": [
        {
          "internalType": "address",
          "name": "",
          "type": "address"
        }
      ],
      "stateMutability": "view",
      "type": "function"
    },
    {
      "inputs": [
        {
          "internalType": "address",
          "name": "_from",
          "type": "address"
        }
      ],
      "name": "getTokenOwnerToTokenCount",
      "outputs": [
        {
          "internalType": "uint256",
          "name": "",
          "type": "uint256"
        }
      ],
      "stateMutability": "view",
      "type": "function"
    },
    {
      "inputs": [
        {
          "internalType": "address",
          "name": "owner",
          "type": "address"
        },
        {
          "internalType": "address",
          "name": "operator",
          "type": "address"
        }
      ],
      "name": "isApprovedForAll",
      "outputs": [
        {
          "internalType": "bool",
          "name": "",
          "type": "bool"
        }
      ],
      "stateMutability": "view",
      "type": "function"
    },
    {
      "inputs": [
        {
          "internalType": "address",
          "name": "to",
          "type": "address"
        },
        {
          "internalType": "string",
          "name": "_hashCip",
          "type": "string"
        }
      ],
      "name": "mint",
      "outputs": [],
      "stateMutability": "nonpayable",
      "type": "function"
    },
    {
      "inputs": [],
      "name": "name",
      "outputs": [
        {
          "internalType": "string",
          "name": "",
          "type": "string"
        }
      ],
      "stateMutability": "view",
      "type": "function"
    },
    {
      "inputs": [
        {
          "internalType": "address",
          "name": "_operator",
          "type": "address"
        },
        {
          "internalType": "address",
          "name": "_from",
          "type": "address"
        },
        {
          "internalType": "uint256",
          "name": "_childTokenId",
          "type": "uint256"
        },
        {
          "internalType": "bytes",
          "name": "_data",
          "type": "bytes"
        }
      ],
      "name": "onERC721Received",
      "outputs": [
        {
          "internalType": "bytes4",
          "name": "",
          "type": "bytes4"
        }
      ],
      "stateMutability": "nonpayable",
      "type": "function"
    },
    {
      "inputs": [
        {
          "internalType": "uint256",
          "name": "tokenId",
          "type": "uint256"
        }
      ],
      "name": "ownerOf",
      "outputs": [
        {
          "internalType": "address",
          "name": "",
          "type": "address"
        }
      ],
      "stateMutability": "view",
      "type": "function"
    },
    {
      "inputs": [
        {
          "internalType": "address",
          "name": "_childContract",
          "type": "address"
        },
        {
          "internalType": "uint256",
          "name": "_childTokenId",
          "type": "uint256"
        }
      ],
      "name": "ownerOfChild",
      "outputs": [
        {
          "internalType": "bytes32",
          "name": "parentTokenOwner",
          "type": "bytes32"
        },
        {
          "internalType": "uint256",
          "name": "parentTokenId",
          "type": "uint256"
        }
      ],
      "stateMutability": "view",
      "type": "function"
    },
    {
      "inputs": [
        {
          "internalType": "uint256",
          "name": "_tokenId",
          "type": "uint256"
        }
      ],
      "name": "rootOwnerOf",
      "outputs": [
        {
          "internalType": "bytes32",
          "name": "rootOwner",
          "type": "bytes32"
        }
      ],
      "stateMutability": "view",
      "type": "function"
    },
    {
      "inputs": [
        {
          "internalType": "address",
          "name": "_childContract",
          "type": "address"
        },
        {
          "internalType": "uint256",
          "name": "_childTokenId",
          "type": "uint256"
        }
      ],
      "name": "rootOwnerOfChild",
      "outputs": [
        {
          "internalType": "bytes32",
          "name": "rootOwner",
          "type": "bytes32"
        }
      ],
      "stateMutability": "view",
      "type": "function"
    },
    {
      "inputs": [
        {
          "internalType": "address",
          "name": "to",
          "type": "address"
        },
        {
          "components": [
            {
              "internalType": "uint256",
              "name": "idToken",
              "type": "uint256"
            },
            {
              "internalType": "string",
              "name": "hashCip",
              "type": "string"
            },
            {
              "internalType": "bool",
              "name": "permisAdministrar",
              "type": "bool"
            }
          ],
          "internalType": "struct CartillaTK.Cartilla",
          "name": "_newCartilla",
          "type": "tuple"
        }
      ],
      "name": "safeMint",
      "outputs": [],
      "stateMutability": "nonpayable",
      "type": "function"
    },
    {
      "inputs": [
        {
          "internalType": "uint256",
          "name": "_fromTokenId",
          "type": "uint256"
        },
        {
          "internalType": "address",
          "name": "_to",
          "type": "address"
        },
        {
          "internalType": "address",
          "name": "_childContract",
          "type": "address"
        },
        {
          "internalType": "uint256",
          "name": "_childTokenId",
          "type": "uint256"
        }
      ],
      "name": "safeTransferChild",
      "outputs": [],
      "stateMutability": "nonpayable",
      "type": "function"
    },
    {
      "inputs": [
        {
          "internalType": "uint256",
          "name": "_fromTokenId",
          "type": "uint256"
        },
        {
          "internalType": "address",
          "name": "_to",
          "type": "address"
        },
        {
          "internalType": "address",
          "name": "_childContract",
          "type": "address"
        },
        {
          "internalType": "uint256",
          "name": "_childTokenId",
          "type": "uint256"
        },
        {
          "internalType": "bytes",
          "name": "_data",
          "type": "bytes"
        }
      ],
      "name": "safeTransferChild",
      "outputs": [],
      "stateMutability": "nonpayable",
      "type": "function"
    },
    {
      "inputs": [
        {
          "internalType": "address",
          "name": "from",
          "type": "address"
        },
        {
          "internalType": "address",
          "name": "to",
          "type": "address"
        },
        {
          "internalType": "uint256",
          "name": "tokenId",
          "type": "uint256"
        }
      ],
      "name": "safeTransferFrom",
      "outputs": [],
      "stateMutability": "nonpayable",
      "type": "function"
    },
    {
      "inputs": [
        {
          "internalType": "address",
          "name": "_from",
          "type": "address"
        },
        {
          "internalType": "address",
          "name": "_to",
          "type": "address"
        },
        {
          "internalType": "uint256",
          "name": "_tokenId",
          "type": "uint256"
        },
        {
          "internalType": "bytes",
          "name": "data",
          "type": "bytes"
        }
      ],
      "name": "safeTransferFrom",
      "outputs": [],
      "stateMutability": "nonpayable",
      "type": "function"
    },
    {
      "inputs": [
        {
          "internalType": "address",
          "name": "operator",
          "type": "address"
        },
        {
          "internalType": "bool",
          "name": "approved",
          "type": "bool"
        }
      ],
      "name": "setApprovalForAll",
      "outputs": [],
      "stateMutability": "nonpayable",
      "type": "function"
    },
    {
      "inputs": [
        {
          "internalType": "uint256",
          "name": "_tokenId",
          "type": "uint256"
        }
      ],
      "name": "setNoPermisAdministrar",
      "outputs": [],
      "stateMutability": "nonpayable",
      "type": "function"
    },
    {
      "inputs": [
        {
          "internalType": "uint256",
          "name": "_tokenId",
          "type": "uint256"
        }
      ],
      "name": "setPermisAdministrar",
      "outputs": [],
      "stateMutability": "nonpayable",
      "type": "function"
    },
    {
      "inputs": [
        {
          "internalType": "bytes4",
          "name": "interfaceId",
          "type": "bytes4"
        }
      ],
      "name": "supportsInterface",
      "outputs": [
        {
          "internalType": "bool",
          "name": "",
          "type": "bool"
        }
      ],
      "stateMutability": "view",
      "type": "function"
    },
    {
      "inputs": [],
      "name": "symbol",
      "outputs": [
        {
          "internalType": "string",
          "name": "",
          "type": "string"
        }
      ],
      "stateMutability": "view",
      "type": "function"
    },
    {
      "inputs": [
        {
          "internalType": "uint256",
          "name": "tokenId",
          "type": "uint256"
        }
      ],
      "name": "tokenURI",
      "outputs": [
        {
          "internalType": "string",
          "name": "",
          "type": "string"
        }
      ],
      "stateMutability": "view",
      "type": "function"
    },
    {
      "inputs": [
        {
          "internalType": "uint256",
          "name": "_fromTokenId",
          "type": "uint256"
        },
        {
          "internalType": "address",
          "name": "_to",
          "type": "address"
        },
        {
          "internalType": "address",
          "name": "_childContract",
          "type": "address"
        },
        {
          "internalType": "uint256",
          "name": "_childTokenId",
          "type": "uint256"
        }
      ],
      "name": "transferChild",
      "outputs": [],
      "stateMutability": "nonpayable",
      "type": "function"
    },
    {
      "inputs": [
        {
          "internalType": "uint256",
          "name": "_fromTokenId",
          "type": "uint256"
        },
        {
          "internalType": "address",
          "name": "_toContract",
          "type": "address"
        },
        {
          "internalType": "uint256",
          "name": "_toTokenId",
          "type": "uint256"
        },
        {
          "internalType": "address",
          "name": "_childContract",
          "type": "address"
        },
        {
          "internalType": "uint256",
          "name": "_childTokenId",
          "type": "uint256"
        },
        {
          "internalType": "bytes",
          "name": "_data",
          "type": "bytes"
        }
      ],
      "name": "transferChildToParent",
      "outputs": [],
      "stateMutability": "nonpayable",
      "type": "function"
    },
    {
      "inputs": [
        {
          "internalType": "address",
          "name": "_from",
          "type": "address"
        },
        {
          "internalType": "address",
          "name": "_to",
          "type": "address"
        },
        {
          "internalType": "uint256",
          "name": "_tokenId",
          "type": "uint256"
        }
      ],
      "name": "transferFrom",
      "outputs": [],
      "stateMutability": "nonpayable",
      "type": "function"
    }
  ],
  "bytecode": "0x6080604052600160095534801561001557600080fd5b506040518060400160405280600a81526020016943617274696c6c61544b60b01b81525060405180604001604052806005815260200164435254544b60d81b8152508160009081610066919061011a565b506001610073828261011a565b5050506101d8565b634e487b7160e01b600052604160045260246000fd5b600181811c908216806100a557607f821691505b6020821081036100c557634e487b7160e01b600052602260045260246000fd5b50919050565b601f82111561011557806000526020600020601f840160051c810160208510156100f25750805b601f840160051c820191505b8181101561011257600081556001016100fe565b50505b505050565b81516001600160401b038111156101335761013361007b565b610147816101418454610091565b846100cb565b6020601f82116001811461017b57600083156101635750848201515b600019600385901b1c1916600184901b178455610112565b600084815260208120601f198516915b828110156101ab578785015182556020948501946001909201910161018b565b50848210156101c95786840151600019600387901b60f8161c191681555b50505050600190811b01905550565b612dfa806101e76000396000f3fe608060405234801561001057600080fd5b506004361061020b5760003560e01c806370a082311161012a578063ae30229e116100bd578063c87b56dd1161008c578063e985e9c511610071578063e985e9c5146104ab578063eadb80b8146104e7578063ed81cdda1461050f57600080fd5b8063c87b56dd14610485578063d0def5211461049857600080fd5b8063ae30229e14610451578063b88d4fde14610464578063ba6b5f9614610477578063bef44f18146102ec57600080fd5b8063893d20e8116100f9578063893d20e8146104175780638d81f51e1461042857806395d89b4114610436578063a22cb4651461043e57600080fd5b806370a08231146103be57806371660bcb146103d1578063755fadbe146103f1578063859c93941461040457600080fd5b806320f33467116101a257806342842e0e1161017157806342842e0e1461036557806343a61a8e146103785780636352211e1461038b578063655408731461039e57600080fd5b806320f33467146102fa57806322ab2e6f1461030d57806323b872dd146103295780632a9894d41461033c57600080fd5b8063095ea7b3116101de578063095ea7b31461028d57806311bd6661146102a0578063150b7a02146102c05780631d98f3c5146102ec57600080fd5b806301ffc9a71461021057806306fdde0314610238578063081812fc1461024d57806308937f6214610278575b600080fd5b61022361021e366004612189565b610522565b60405190151581526020015b60405180910390f35b6102406105bf565b60405161022f91906121f6565b61026061025b366004612209565b610651565b6040516001600160a01b03909116815260200161022f565b61028b610286366004612279565b61067a565b005b61028b61029b3660046122ff565b6106c7565b6102b36102ae366004612209565b6106d6565b60405161022f919061232b565b6102d36102ce366004612377565b610742565b6040516001600160e01b0319909116815260200161022f565b61028b6102863660046123ea565b61028b610308366004612209565b6108f9565b61031b63cd740db560e01b81565b60405190815260200161022f565b61028b610337366004612432565b610937565b61031b61034a366004612473565b6001600160a01b031660009081526014602052604090205490565b61028b610373366004612432565b610947565b61031b610386366004612209565b610962565b610260610399366004612209565b61096f565b6103b16103ac366004612473565b61097a565b60405161022f9190612490565b61031b6103cc366004612473565b610a76565b6103e46103df366004612209565b610aa7565b60405161022f91906124ce565b6103b16103ff366004612209565b610e03565b61028b610412366004612209565b610e61565b600a546001600160a01b0316610260565b61028b6102863660046125cd565b610240610ea6565b61028b61044c366004612657565b610eb5565b61028b61045f3660046127a9565b610ec0565b61028b61047236600461284f565b610fae565b61028b6102863660046128cf565b610240610493366004612209565b61108a565b61028b6104a6366004612907565b6110ff565b6102236104b9366004612957565b6001600160a01b03918216600090815260056020908152604080832093909416825291909152205460ff1690565b6104fa6104f53660046122ff565b611142565b6040805192835260208301919091520161022f565b61031b61051d3660046122ff565b6111c8565b60006001600160e01b031982167f80ac58cd00000000000000000000000000000000000000000000000000000000148061058557506001600160e01b031982167f5b5e139f00000000000000000000000000000000000000000000000000000000145b806105b957507f01ffc9a7000000000000000000000000000000000000000000000000000000006001600160e01b03198316145b92915050565b6060600080546105ce90612985565b80601f01602080910402602001604051908101604052809291908181526020018280546105fa90612985565b80156106475780601f1061061c57610100808354040283529160200191610647565b820191906000526020600020905b81548152906001019060200180831161062a57829003601f168201915b5050505050905090565b600061065c8261132e565b506000828152600460205260409020546001600160a01b03166105b9565b60405162461bcd60e51b815260206004820152600c60248201527f4e6f207574696c69747a6172000000000000000000000000000000000000000060448201526064015b60405180910390fd5b6106d2828233611367565b5050565b60008181526010602090815260409182902080548351818402810184019094528084526060939283018282801561073657602002820191906000526020600020905b81546001600160a01b03168152600190910190602001808311610718575b50505050509050919050565b6000816107dd5760405162461bcd60e51b815260206004820152604660248201527f5f64617461206d75737420636f6e7461696e207468652075696e74323536207460448201527f6f6b656e496420746f207472616e7366657220746865206368696c6420746f6b60648201527f656e20746f2e0000000000000000000000000000000000000000000000000000608482015260a4016106be565b60a4356020831015610802576107f48360086129d5565b610800906101006129ec565b1c5b61080e86823388611374565b6040517f6352211e000000000000000000000000000000000000000000000000000000008152600481018690526000903390636352211e90602401602060405180830381865afa158015610866573d6000803e3d6000fd5b505050506040513d601f19601f8201168201806040525081019061088a91906129ff565b6001600160a01b0316036108e05760405162461bcd60e51b815260206004820152601660248201527f4368696c6420746f6b656e206e6f74206f776e65642e0000000000000000000060448201526064016106be565b50630a85bd0160e11b9695505050505050565b50505050565b60008181526007602052604090206002015460ff16151560011461091c57600080fd5b6000908152600760205260409020600201805460ff19169055565b610942838383611682565b505050565b61094283838360405180602001604052806000815250610fae565b60006105b96000836111c8565b60006105b98261132e565b6109a0604051806060016040528060008152602001606081526020016000151581525090565b6001600160a01b0382166000908152600660209081526040918290208251606081019093528054835260018101805491928401916109dd90612985565b80601f0160208091040260200160405190810160405280929190818152602001828054610a0990612985565b8015610a565780601f10610a2b57610100808354040283529160200191610a56565b820191906000526020600020905b815481529060010190602001808311610a3957829003601f168201915b50505091835250506002919091015460ff16151560209091015292915050565b60006001600160a01b038216610a8b57600080fd5b506001600160a01b031660009081526014602052604090205490565b60008181526008602052604081205460609190819067ffffffffffffffff811115610ad457610ad4612690565b604051908082528060200260200182016040528015610b5957816020015b610b46604080516060808201835260008083526020808401829052845160e081018652828152908101839052808501829052808301829052608081019290925260a0820181905260c0820152909182015290565b815260200190600190039081610af25790505b5090506000610b67856106d6565b905060005b81518160ff161015610df9576000868152600d6020526040812083518290859060ff8616908110610b9f57610b9f612a1c565b60200260200101516001600160a01b03166001600160a01b03168152602001908152602001600020805480602002602001604051908101604052809291908181526020018280548015610c1157602002820191906000526020600020905b815481526020019060010190808311610bfd575b5050505050905060005b81518160ff161015610de45760006040518060600160405280868660ff1681518110610c4957610c49612a1c565b60200260200101516001600160a01b03168152602001848460ff1681518110610c7457610c74612a1c565b60200260200101518152602001868660ff1681518110610c9657610c96612a1c565b60200260200101516001600160a01b031663d61435db868660ff1681518110610cc157610cc1612a1c565b60200260200101516040518263ffffffff1660e01b8152600401610ce791815260200190565b600060405180830381865afa158015610d04573d6000803e3d6000fd5b505050506040513d6000823e601f3d908101601f19168201604052610d2c9190810190612a99565b81525090508060000151868860ff1681518110610d4b57610d4b612a1c565b6020026020010151600001906001600160a01b031690816001600160a01b0316815250508060200151868860ff1681518110610d8957610d89612a1c565b602002602001015160200181815250508060400151868860ff1681518110610db357610db3612a1c565b6020026020010151604001819052508680610dcd90612b84565b975050508080610ddc90612b84565b915050610c1b565b50508080610df190612b84565b915050610b6c565b5090949350505050565b610e29604051806060016040528060008152602001606081526020016000151581525090565b60076000838152602001908152602001600020604051806060016040529081600082015481526020016001820180546109dd90612985565b60008181526007602052604090206002015460ff1615610e8057600080fd5b6000908152600760205260409020600201805460ff19166001179055565b505050505050565b6060600180546105ce90612985565b6106d2338383611a2a565b8051600090815260076020908152604090912082518155908201518291906001820190610eed9082612bea565b50604091820151600291909101805460ff191691151591909117905581516000908152600c602090815282822080546001600160a01b0319166001600160a01b038716908117909155825260149052908120805491610f4b83612ca9565b90915550506001600160a01b038216600090815260066020908152604090912082518155908201518291906001820190610f859082612bea565b50604091909101516002909101805460ff191691151591909117905580516106d2908390611ae2565b610fb9848484611682565b823b156108f357604051630a85bd0160e11b81523360048201526001600160a01b0385811660248301526044820184905260806064830152600060848301819052919085169063150b7a029060a4016020604051808303816000875af1158015611027573d6000803e3d6000fd5b505050506040513d601f19601f8201168201806040525081019061104b9190612cc2565b90506001600160e01b031981167ff0b9e5ba000000000000000000000000000000000000000000000000000000001461108357600080fd5b5050505050565b60606110958261132e565b5060006110ad60408051602081019091526000815290565b905060008151116110cd57604051806020016040528060008152506110f8565b806110d784611afc565b6040516020016110e8929190612cdf565b6040516020818303038152906040525b9392505050565b604080516060810182526009548152602081018390526000918101919091526111288382610ec0565b6009805490600061113883612ca9565b9190505550505050565b6001600160a01b0382166000908152600f602090815260408083208484529091528120548015158061119d57506000818152600e602090815260408083206001600160a01b0388168452825280832086845290915290205415155b6111a657600080fd5b6000818152600c60205260409020546001600160a01b031691505b9250929050565b6000806001600160a01b038416156111ed576111e48484611142565b93509050611207565b506000828152600c60205260409020546001600160a01b03165b306001600160a01b03821603611221576111e48184611142565b60408051306024820152604480820186905282518083039091018152606490910182526020810180517bffffffffffffffffffffffffffffffffffffffffffffffffffffffff166376c0e6ed60e11b179052905160009182916001600160a01b0385169161128e91612d0e565b600060405180830381855afa9150503d80600081146112c9576040519150601f19603f3d011682016040523d82523d6000602084013e6112ce565b606091505b509150915080516000146112f357808060200190518101906112f09190612d2a565b93505b600182151514801561130f575060e084901c63cd740db560e01b145b1561131c575050506105b9565b50506001600160a01b031690506105b9565b6000818152600260205260408120546001600160a01b0316806105b957604051637e27328960e01b8152600481018490526024016106be565b6109428383836001611b9c565b60008381526007602052604090206002015460ff1615156001146114005760405162461bcd60e51b815260206004820152602660248201527f4e6f207465207065726d69732070657220616363656469722061206c6120636160448201527f7274696c6c61000000000000000000000000000000000000000000000000000060648201526084016106be565b6000838152600c60205260409020546001600160a01b03166114645760405162461bcd60e51b815260206004820152601860248201527f4c612063617274696c6c61206e6f2065786973746569782e000000000000000060448201526064016106be565b6000838152600e602090815260408083206001600160a01b03861684528252808320848452909152902054156115025760405162461bcd60e51b815260206004820152602560248201527f46696c6c206a61206578697374656e742070657220656c207061726520696e6460448201527f696361742e00000000000000000000000000000000000000000000000000000060648201526084016106be565b6000838152600d602090815260408083206001600160a01b03861684529091528120549081900361157d5760008481526010602081815260408084208054601184528286206001600160a01b038a16808852908552928620819055938352600184018155845292200180546001600160a01b03191690911790555b6000848152600d602090815260408083206001600160a01b03871684528252822080546001818101835591845291909220018390556115bd908290612d43565b6000858152600e602090815260408083206001600160a01b038816808552908352818420878552835281842094909455928252600f81528282208583528152828220879055868252600890522054611616906001612d43565b6008600086815260200190815260200160002081905550826001600160a01b031684866001600160a01b03167f0371ddf2288ad1ba92626a7e31c86a9d006e592cfe57d7d946ef08b13457c08b8560405161167391815260200190565b60405180910390a45050505050565b6001600160a01b03831661169557600080fd5b6000818152600c60205260409020546001600160a01b038481169116146116bb57600080fd5b6001600160a01b0382166116ce57600080fd5b336001600160a01b038416146118ae5760408051306024820152604480820184905282518083039091018152606490910182526020810180517bffffffffffffffffffffffffffffffffffffffffffffffffffffffff166376c0e6ed60e11b179052905160009182916001600160a01b0387169161174b91612d0e565b600060405180830381855afa9150503d8060008114611786576040519150601f19603f3d011682016040523d82523d6000602084013e61178b565b606091505b50915091506000818060200190518101906117a69190612d2a565b905082151560010361184b577f328bf24b0000000000000000000000000000000000000000000000000000000060e082901c0161184b5760405162461bcd60e51b815260206004820152603460248201527f43617274696c6c6120546f6b656e206973206368696c64206f66206f7468657260448201527f20746f7020646f776e20636f6d706f7361626c6500000000000000000000000060648201526084016106be565b6001600160a01b038616600090815260126020908152604080832033845290915290205460ff16806118a157506001600160a01b0386811660009081526013602090815260408083208884529091529020541633145b6118aa57600080fd5b5050505b6001600160a01b0383811660009081526013602090815260408083208584529091529020541615611935576001600160a01b038316600081815260136020908152604080832085845290915280822080546001600160a01b0319169055518392907f8c5be1e5ebec7d5bd14f71427d1e84f3dd0314c0f7b2291e5b200ac8c7c3b925908390a45b816001600160a01b0316836001600160a01b0316146119e4576001600160a01b03831660009081526014602052604090205461197357611973612d56565b6001600160a01b038316600090815260146020526040812080549161199783612d6c565b90915550506000818152600c6020908152604080832080546001600160a01b0319166001600160a01b0387169081179091558352601490915281208054916119de83612ca9565b91905055505b80826001600160a01b0316846001600160a01b03167fddf252ad1be2c89b69c2b068fc378daa952ba7f163c4a11628f55a4df523b3ef60405160405180910390a4505050565b6001600160a01b038216611a75576040517f5b08ba180000000000000000000000000000000000000000000000000000000081526001600160a01b03831660048201526024016106be565b6001600160a01b03838116600081815260056020908152604080832094871680845294825291829020805460ff191686151590811790915591519182527f17307eab39ab6107e8899845ad3d59bd9653f200f220920489ca2b5937696c31910160405180910390a3505050565b6106d2828260405180602001604052806000815250611cda565b60606000611b0983611cf2565b600101905060008167ffffffffffffffff811115611b2957611b29612690565b6040519080825280601f01601f191660200182016040528015611b53576020820181803683370190505b5090508181016020015b600019017f3031323334353637383961626364656600000000000000000000000000000000600a86061a8153600a8504945084611b5d57509392505050565b8080611bb057506001600160a01b03821615155b15611caa576000611bc08461132e565b90506001600160a01b03831615801590611bec5750826001600160a01b0316816001600160a01b031614155b8015611c1e57506001600160a01b0380821660009081526005602090815260408083209387168352929052205460ff16155b15611c60576040517fa9fbf51f0000000000000000000000000000000000000000000000000000000081526001600160a01b03841660048201526024016106be565b8115611ca85783856001600160a01b0316826001600160a01b03167f8c5be1e5ebec7d5bd14f71427d1e84f3dd0314c0f7b2291e5b200ac8c7c3b92560405160405180910390a45b505b5050600090815260046020526040902080546001600160a01b0319166001600160a01b0392909216919091179055565b611ce48383611dd4565b610942336000858585611e52565b6000807a184f03e93ff9f4daa797ed6e38ed64bf6a1f0100000000000000008310611d3b577a184f03e93ff9f4daa797ed6e38ed64bf6a1f010000000000000000830492506040015b6d04ee2d6d415b85acef81000000008310611d67576d04ee2d6d415b85acef8100000000830492506020015b662386f26fc100008310611d8557662386f26fc10000830492506010015b6305f5e1008310611d9d576305f5e100830492506008015b6127108310611db157612710830492506004015b60648310611dc3576064830492506002015b600a83106105b95760010192915050565b6001600160a01b038216611dfe57604051633250574960e11b8152600060048201526024016106be565b6000611e0c83836000611f74565b90506001600160a01b03811615610942576040517f73c6ac6e000000000000000000000000000000000000000000000000000000008152600060048201526024016106be565b6001600160a01b0383163b1561108357604051630a85bd0160e11b81526001600160a01b0384169063150b7a0290611e94908890889087908790600401612d83565b6020604051808303816000875af1925050508015611ecf575060408051601f3d908101601f19168201909252611ecc91810190612cc2565b60015b611f38573d808015611efd576040519150601f19603f3d011682016040523d82523d6000602084013e611f02565b606091505b508051600003611f3057604051633250574960e11b81526001600160a01b03851660048201526024016106be565b805181602001fd5b6001600160e01b03198116630a85bd0160e11b14610e9e57604051633250574960e11b81526001600160a01b03851660048201526024016106be565b6000828152600260205260408120546001600160a01b0390811690831615611fa157611fa181848661206d565b6001600160a01b03811615611fdf57611fbe600085600080611b9c565b6001600160a01b038116600090815260036020526040902080546000190190555b6001600160a01b0385161561200e576001600160a01b0385166000908152600360205260409020805460010190555b60008481526002602052604080822080546001600160a01b0319166001600160a01b0389811691821790925591518793918516917fddf252ad1be2c89b69c2b068fc378daa952ba7f163c4a11628f55a4df523b3ef91a4949350505050565b6120788383836120ea565b610942576001600160a01b0383166120a657604051637e27328960e01b8152600481018290526024016106be565b6040517f177e802f0000000000000000000000000000000000000000000000000000000081526001600160a01b0383166004820152602481018290526044016106be565b60006001600160a01b038316158015906121685750826001600160a01b0316846001600160a01b0316148061214457506001600160a01b0380851660009081526005602090815260408083209387168352929052205460ff165b8061216857506000828152600460205260409020546001600160a01b038481169116145b949350505050565b6001600160e01b03198116811461218657600080fd5b50565b60006020828403121561219b57600080fd5b81356110f881612170565b60005b838110156121c15781810151838201526020016121a9565b50506000910152565b600081518084526121e28160208601602086016121a6565b601f01601f19169290920160200192915050565b6020815260006110f860208301846121ca565b60006020828403121561221b57600080fd5b5035919050565b6001600160a01b038116811461218657600080fd5b60008083601f84011261224957600080fd5b50813567ffffffffffffffff81111561226157600080fd5b6020830191508360208285010111156111c157600080fd5b600080600080600080600060c0888a03121561229457600080fd5b8735965060208801356122a681612222565b95506040880135945060608801356122bd81612222565b93506080880135925060a088013567ffffffffffffffff8111156122e057600080fd5b6122ec8a828b01612237565b989b979a50959850939692959293505050565b6000806040838503121561231257600080fd5b823561231d81612222565b946020939093013593505050565b602080825282518282018190526000918401906040840190835b8181101561236c5783516001600160a01b0316835260209384019390920191600101612345565b509095945050505050565b60008060008060006080868803121561238f57600080fd5b853561239a81612222565b945060208601356123aa81612222565b935060408601359250606086013567ffffffffffffffff8111156123cd57600080fd5b6123d988828901612237565b969995985093965092949392505050565b6000806000806080858703121561240057600080fd5b84359350602085013561241281612222565b9250604085013561242281612222565b9396929550929360600135925050565b60008060006060848603121561244757600080fd5b833561245281612222565b9250602084013561246281612222565b929592945050506040919091013590565b60006020828403121561248557600080fd5b81356110f881612222565b602081528151602082015260006020830151606060408401526124b660808401826121ca565b90506040840151151560608401528091505092915050565b6000602082016020835280845180835260408501915060408160051b86010192506020860160005b828110156125c157603f1987860301845281516001600160a01b03815116865260208101516020870152604081015190506060604087015280516060870152602081015160e0608088015261254f6101408801826121ca565b90506040820151151560a0880152606082015160010b60c08801526080820151605f198883030160e089015261258582826121ca565b91505060a0820151151561010088015260c082015191506125ab61012088018315159052565b95505060209384019391909101906001016124f6565b50929695505050505050565b60008060008060008060a087890312156125e657600080fd5b8635955060208701356125f881612222565b9450604087013561260881612222565b935060608701359250608087013567ffffffffffffffff81111561262b57600080fd5b61263789828a01612237565b979a9699509497509295939492505050565b801515811461218657600080fd5b6000806040838503121561266a57600080fd5b823561267581612222565b9150602083013561268581612649565b809150509250929050565b634e487b7160e01b600052604160045260246000fd5b6040516060810167ffffffffffffffff811182821017156126c9576126c9612690565b60405290565b60405160e0810167ffffffffffffffff811182821017156126c9576126c9612690565b604051601f8201601f1916810167ffffffffffffffff8111828210171561271b5761271b612690565b604052919050565b600067ffffffffffffffff82111561273d5761273d612690565b50601f01601f191660200190565b600061275e61275984612723565b6126f2565b905082815283838301111561277257600080fd5b828260208301376000602084830101529392505050565b600082601f83011261279a57600080fd5b6110f88383356020850161274b565b600080604083850312156127bc57600080fd5b82356127c781612222565b9150602083013567ffffffffffffffff8111156127e357600080fd5b8301606081860312156127f557600080fd5b6127fd6126a6565b81358152602082013567ffffffffffffffff81111561281b57600080fd5b61282787828501612789565b6020830152506040820135915061283d82612649565b81604082015280925050509250929050565b6000806000806080858703121561286557600080fd5b843561287081612222565b9350602085013561288081612222565b925060408501359150606085013567ffffffffffffffff8111156128a357600080fd5b8501601f810187136128b457600080fd5b6128c38782356020840161274b565b91505092959194509250565b600080600080608085870312156128e557600080fd5b84356128f081612222565b935060208501359250604085013561242281612222565b6000806040838503121561291a57600080fd5b823561292581612222565b9150602083013567ffffffffffffffff81111561294157600080fd5b61294d85828601612789565b9150509250929050565b6000806040838503121561296a57600080fd5b823561297581612222565b9150602083013561268581612222565b600181811c9082168061299957607f821691505b6020821081036129b957634e487b7160e01b600052602260045260246000fd5b50919050565b634e487b7160e01b600052601160045260246000fd5b80820281158282048414176105b9576105b96129bf565b818103818111156105b9576105b96129bf565b600060208284031215612a1157600080fd5b81516110f881612222565b634e487b7160e01b600052603260045260246000fd5b600082601f830112612a4357600080fd5b8151612a5161275982612723565b818152846020838601011115612a6657600080fd5b6121688260208301602087016121a6565b8051612a8281612649565b919050565b8051600181900b8114612a8257600080fd5b600060208284031215612aab57600080fd5b815167ffffffffffffffff811115612ac257600080fd5b820160e08185031215612ad457600080fd5b612adc6126cf565b81518152602082015167ffffffffffffffff811115612afa57600080fd5b612b0686828501612a32565b602083015250612b1860408301612a77565b6040820152612b2960608301612a87565b6060820152608082015167ffffffffffffffff811115612b4857600080fd5b612b5486828501612a32565b608083015250612b6660a08301612a77565b60a0820152612b7760c08301612a77565b60c0820152949350505050565b600060ff821660ff8103612b9a57612b9a6129bf565b60010192915050565b601f82111561094257806000526020600020601f840160051c81016020851015612bca5750805b601f840160051c820191505b818110156110835760008155600101612bd6565b815167ffffffffffffffff811115612c0457612c04612690565b612c1881612c128454612985565b84612ba3565b6020601f821160018114612c4c5760008315612c345750848201515b600019600385901b1c1916600184901b178455611083565b600084815260208120601f198516915b82811015612c7c5787850151825560209485019460019092019101612c5c565b5084821015612c9a5786840151600019600387901b60f8161c191681555b50505050600190811b01905550565b600060018201612cbb57612cbb6129bf565b5060010190565b600060208284031215612cd457600080fd5b81516110f881612170565b60008351612cf18184602088016121a6565b835190830190612d058183602088016121a6565b01949350505050565b60008251612d208184602087016121a6565b9190910192915050565b600060208284031215612d3c57600080fd5b5051919050565b808201808211156105b9576105b96129bf565b634e487b7160e01b600052600160045260246000fd5b600081612d7b57612d7b6129bf565b506000190190565b6001600160a01b03851681526001600160a01b0384166020820152826040820152608060608201526000612dba60808301846121ca565b969550505050505056fea26469706673582212208929beefe8f914f2fd1554f40dedf04d21d40adb6876f5f446d04d012d13f64764736f6c634300081c0033",
  "linkReferences": {},
  "deployedLinkReferences": {}
}