{
  "_format": "hh-sol-artifact-1",
  "contractName": "CartillaTK",
  "sourceName": "contracts/CartillaTK.sol",
  "abi": [
    {
      "inputs": [],
      "stateMutability": "nonpayable",
      "type": "constructor"
    },
    {
      "inputs": [
        {
          "internalType": "address",
          "name": "sender",
          "type": "address"
        },
        {
          "internalType": "uint256",
          "name": "tokenId",
          "type": "uint256"
        },
        {
          "internalType": "address",
          "name": "owner",
          "type": "address"
        }
      ],
      "name": "ERC721IncorrectOwner",
      "type": "error"
    },
    {
      "inputs": [
        {
          "internalType": "address",
          "name": "operator",
          "type": "address"
        },
        {
          "internalType": "uint256",
          "name": "tokenId",
          "type": "uint256"
        }
      ],
      "name": "ERC721InsufficientApproval",
      "type": "error"
    },
    {
      "inputs": [
        {
          "internalType": "address",
          "name": "approver",
          "type": "address"
        }
      ],
      "name": "ERC721InvalidApprover",
      "type": "error"
    },
    {
      "inputs": [
        {
          "internalType": "address",
          "name": "operator",
          "type": "address"
        }
      ],
      "name": "ERC721InvalidOperator",
      "type": "error"
    },
    {
      "inputs": [
        {
          "internalType": "address",
          "name": "owner",
          "type": "address"
        }
      ],
      "name": "ERC721InvalidOwner",
      "type": "error"
    },
    {
      "inputs": [
        {
          "internalType": "address",
          "name": "receiver",
          "type": "address"
        }
      ],
      "name": "ERC721InvalidReceiver",
      "type": "error"
    },
    {
      "inputs": [
        {
          "internalType": "address",
          "name": "sender",
          "type": "address"
        }
      ],
      "name": "ERC721InvalidSender",
      "type": "error"
    },
    {
      "inputs": [
        {
          "internalType": "uint256",
          "name": "tokenId",
          "type": "uint256"
        }
      ],
      "name": "ERC721NonexistentToken",
      "type": "error"
    },
    {
      "anonymous": false,
      "inputs": [
        {
          "indexed": true,
          "internalType": "address",
          "name": "owner",
          "type": "address"
        },
        {
          "indexed": true,
          "internalType": "address",
          "name": "approved",
          "type": "address"
        },
        {
          "indexed": true,
          "internalType": "uint256",
          "name": "tokenId",
          "type": "uint256"
        }
      ],
      "name": "Approval",
      "type": "event"
    },
    {
      "anonymous": false,
      "inputs": [
        {
          "indexed": true,
          "internalType": "address",
          "name": "owner",
          "type": "address"
        },
        {
          "indexed": true,
          "internalType": "address",
          "name": "operator",
          "type": "address"
        },
        {
          "indexed": false,
          "internalType": "bool",
          "name": "approved",
          "type": "bool"
        }
      ],
      "name": "ApprovalForAll",
      "type": "event"
    },
    {
      "anonymous": false,
      "inputs": [
        {
          "indexed": true,
          "internalType": "address",
          "name": "_from",
          "type": "address"
        },
        {
          "indexed": true,
          "internalType": "uint256",
          "name": "_tokenId",
          "type": "uint256"
        },
        {
          "indexed": true,
          "internalType": "address",
          "name": "_childContract",
          "type": "address"
        },
        {
          "indexed": false,
          "internalType": "uint256",
          "name": "_childTokenId",
          "type": "uint256"
        }
      ],
      "name": "ReceivedChild",
      "type": "event"
    },
    {
      "anonymous": false,
      "inputs": [
        {
          "indexed": true,
          "internalType": "address",
          "name": "from",
          "type": "address"
        },
        {
          "indexed": true,
          "internalType": "address",
          "name": "to",
          "type": "address"
        },
        {
          "indexed": true,
          "internalType": "uint256",
          "name": "tokenId",
          "type": "uint256"
        }
      ],
      "name": "Transfer",
      "type": "event"
    },
    {
      "anonymous": false,
      "inputs": [
        {
          "indexed": true,
          "internalType": "uint256",
          "name": "tokenId",
          "type": "uint256"
        },
        {
          "indexed": true,
          "internalType": "address",
          "name": "_to",
          "type": "address"
        },
        {
          "indexed": true,
          "internalType": "address",
          "name": "_childContract",
          "type": "address"
        },
        {
          "indexed": false,
          "internalType": "uint256",
          "name": "_childTokenId",
          "type": "uint256"
        }
      ],
      "name": "TransferChild",
      "type": "event"
    },
    {
      "inputs": [],
      "name": "ERC998_MAGIC_VALUE",
      "outputs": [
        {
          "internalType": "bytes32",
          "name": "",
          "type": "bytes32"
        }
      ],
      "stateMutability": "view",
      "type": "function"
    },
    {
      "inputs": [
        {
          "internalType": "address",
          "name": "to",
          "type": "address"
        },
        {
          "internalType": "uint256",
          "name": "tokenId",
          "type": "uint256"
        }
      ],
      "name": "approve",
      "outputs": [],
      "stateMutability": "nonpayable",
      "type": "function"
    },
    {
      "inputs": [
        {
          "internalType": "address",
          "name": "_tokenOwner",
          "type": "address"
        }
      ],
      "name": "balanceOf",
      "outputs": [
        {
          "internalType": "uint256",
          "name": "",
          "type": "uint256"
        }
      ],
      "stateMutability": "view",
      "type": "function"
    },
    {
      "inputs": [
        {
          "internalType": "uint256",
          "name": "tokenId",
          "type": "uint256"
        }
      ],
      "name": "getApproved",
      "outputs": [
        {
          "internalType": "address",
          "name": "",
          "type": "address"
        }
      ],
      "stateMutability": "view",
      "type": "function"
    },
    {
      "inputs": [
        {
          "internalType": "address",
          "name": "_patientAddress",
          "type": "address"
        }
      ],
      "name": "getCartillaPacient",
      "outputs": [
        {
          "components": [
            {
              "internalType": "uint256",
              "name": "idToken",
              "type": "uint256"
            },
            {
              "internalType": "string",
              "name": "hashCip",
              "type": "string"
            },
            {
              "internalType": "bool",
              "name": "permisAdministrar",
              "type": "bool"
            }
          ],
          "internalType": "struct CartillaTK.Cartilla",
          "name": "",
          "type": "tuple"
        }
      ],
      "stateMutability": "view",
      "type": "function"
    },
    {
      "inputs": [
        {
          "internalType": "address",
          "name": "_from",
          "type": "address"
        },
        {
          "internalType": "uint256",
          "name": "_tokenId",
          "type": "uint256"
        },
        {
          "internalType": "address",
          "name": "_childContract",
          "type": "address"
        },
        {
          "internalType": "uint256",
          "name": "_childTokenId",
          "type": "uint256"
        }
      ],
      "name": "getChild",
      "outputs": [],
      "stateMutability": "nonpayable",
      "type": "function"
    },
    {
      "inputs": [
        {
          "internalType": "uint256",
          "name": "_tokenId",
          "type": "uint256"
        }
      ],
      "name": "getChildContracts",
      "outputs": [
        {
          "internalType": "address[]",
          "name": "",
          "type": "address[]"
        }
      ],
      "stateMutability": "view",
      "type": "function"
    },
    {
      "inputs": [
        {
          "internalType": "uint256",
          "name": "_idParentToken",
          "type": "uint256"
        }
      ],
      "name": "getDadesVacunesCartilla",
      "outputs": [
        {
          "components": [
            {
              "internalType": "address",
              "name": "contracteVacuna",
              "type": "address"
            },
            {
              "internalType": "uint256",
              "name": "idVacunaToken",
              "type": "uint256"
            },
            {
              "components": [
                {
                  "internalType": "uint256",
                  "name": "idToken",
                  "type": "uint256"
                },
                {
                  "internalType": "string",
                  "name": "idVacuna",
                  "type": "string"
                },
                {
                  "internalType": "bool",
                  "name": "termolabil",
                  "type": "bool"
                },
                {
                  "internalType": "int16",
                  "name": "tempConservacio",
                  "type": "int16"
                },
                {
                  "internalType": "string",
                  "name": "dataCaducitat",
                  "type": "string"
                },
                {
                  "internalType": "bool",
                  "name": "asignadaLot",
                  "type": "bool"
                },
                {
                  "internalType": "bool",
                  "name": "administrada",
                  "type": "bool"
                }
              ],
              "internalType": "struct VacunaTK.Vacuna",
              "name": "vacuna",
              "type": "tuple"
            }
          ],
          "internalType": "struct CartillaTK.DadesVacunaCartilla[]",
          "name": "",
          "type": "tuple[]"
        }
      ],
      "stateMutability": "view",
      "type": "function"
    },
    {
      "inputs": [],
      "name": "getOwner",
      "outputs": [
        {
          "internalType": "address",
          "name": "",
          "type": "address"
        }
      ],
      "stateMutability": "view",
      "type": "function"
    },
    {
      "inputs": [
        {
          "internalType": "address",
          "name": "_from",
          "type": "address"
        }
      ],
      "name": "getTokenOwnerToTokenCount",
      "outputs": [
        {
          "internalType": "uint256",
          "name": "",
          "type": "uint256"
        }
      ],
      "stateMutability": "view",
      "type": "function"
    },
    {
      "inputs": [
        {
          "internalType": "address",
          "name": "owner",
          "type": "address"
        },
        {
          "internalType": "address",
          "name": "operator",
          "type": "address"
        }
      ],
      "name": "isApprovedForAll",
      "outputs": [
        {
          "internalType": "bool",
          "name": "",
          "type": "bool"
        }
      ],
      "stateMutability": "view",
      "type": "function"
    },
    {
      "inputs": [
        {
          "internalType": "address",
          "name": "to",
          "type": "address"
        },
        {
          "internalType": "string",
          "name": "_hashCip",
          "type": "string"
        }
      ],
      "name": "mint",
      "outputs": [],
      "stateMutability": "nonpayable",
      "type": "function"
    },
    {
      "inputs": [],
      "name": "name",
      "outputs": [
        {
          "internalType": "string",
          "name": "",
          "type": "string"
        }
      ],
      "stateMutability": "view",
      "type": "function"
    },
    {
      "inputs": [
        {
          "internalType": "address",
          "name": "_operator",
          "type": "address"
        },
        {
          "internalType": "address",
          "name": "_from",
          "type": "address"
        },
        {
          "internalType": "uint256",
          "name": "_childTokenId",
          "type": "uint256"
        },
        {
          "internalType": "bytes",
          "name": "_data",
          "type": "bytes"
        }
      ],
      "name": "onERC721Received",
      "outputs": [
        {
          "internalType": "bytes4",
          "name": "",
          "type": "bytes4"
        }
      ],
      "stateMutability": "nonpayable",
      "type": "function"
    },
    {
      "inputs": [
        {
          "internalType": "uint256",
          "name": "tokenId",
          "type": "uint256"
        }
      ],
      "name": "ownerOf",
      "outputs": [
        {
          "internalType": "address",
          "name": "",
          "type": "address"
        }
      ],
      "stateMutability": "view",
      "type": "function"
    },
    {
      "inputs": [
        {
          "internalType": "address",
          "name": "_childContract",
          "type": "address"
        },
        {
          "internalType": "uint256",
          "name": "_childTokenId",
          "type": "uint256"
        }
      ],
      "name": "ownerOfChild",
      "outputs": [
        {
          "internalType": "bytes32",
          "name": "parentTokenOwner",
          "type": "bytes32"
        },
        {
          "internalType": "uint256",
          "name": "parentTokenId",
          "type": "uint256"
        }
      ],
      "stateMutability": "view",
      "type": "function"
    },
    {
      "inputs": [
        {
          "internalType": "uint256",
          "name": "_tokenId",
          "type": "uint256"
        }
      ],
      "name": "rootOwnerOf",
      "outputs": [
        {
          "internalType": "bytes32",
          "name": "rootOwner",
          "type": "bytes32"
        }
      ],
      "stateMutability": "view",
      "type": "function"
    },
    {
      "inputs": [
        {
          "internalType": "address",
          "name": "_childContract",
          "type": "address"
        },
        {
          "internalType": "uint256",
          "name": "_childTokenId",
          "type": "uint256"
        }
      ],
      "name": "rootOwnerOfChild",
      "outputs": [
        {
          "internalType": "bytes32",
          "name": "rootOwner",
          "type": "bytes32"
        }
      ],
      "stateMutability": "view",
      "type": "function"
    },
    {
      "inputs": [
        {
          "internalType": "address",
          "name": "to",
          "type": "address"
        },
        {
          "components": [
            {
              "internalType": "uint256",
              "name": "idToken",
              "type": "uint256"
            },
            {
              "internalType": "string",
              "name": "hashCip",
              "type": "string"
            },
            {
              "internalType": "bool",
              "name": "permisAdministrar",
              "type": "bool"
            }
          ],
          "internalType": "struct CartillaTK.Cartilla",
          "name": "_newCartilla",
          "type": "tuple"
        }
      ],
      "name": "safeMint",
      "outputs": [],
      "stateMutability": "nonpayable",
      "type": "function"
    },
    {
      "inputs": [
        {
          "internalType": "uint256",
          "name": "_fromTokenId",
          "type": "uint256"
        },
        {
          "internalType": "address",
          "name": "_to",
          "type": "address"
        },
        {
          "internalType": "address",
          "name": "_childContract",
          "type": "address"
        },
        {
          "internalType": "uint256",
          "name": "_childTokenId",
          "type": "uint256"
        }
      ],
      "name": "safeTransferChild",
      "outputs": [],
      "stateMutability": "nonpayable",
      "type": "function"
    },
    {
      "inputs": [
        {
          "internalType": "uint256",
          "name": "_fromTokenId",
          "type": "uint256"
        },
        {
          "internalType": "address",
          "name": "_to",
          "type": "address"
        },
        {
          "internalType": "address",
          "name": "_childContract",
          "type": "address"
        },
        {
          "internalType": "uint256",
          "name": "_childTokenId",
          "type": "uint256"
        },
        {
          "internalType": "bytes",
          "name": "_data",
          "type": "bytes"
        }
      ],
      "name": "safeTransferChild",
      "outputs": [],
      "stateMutability": "nonpayable",
      "type": "function"
    },
    {
      "inputs": [
        {
          "internalType": "address",
          "name": "from",
          "type": "address"
        },
        {
          "internalType": "address",
          "name": "to",
          "type": "address"
        },
        {
          "internalType": "uint256",
          "name": "tokenId",
          "type": "uint256"
        }
      ],
      "name": "safeTransferFrom",
      "outputs": [],
      "stateMutability": "nonpayable",
      "type": "function"
    },
    {
      "inputs": [
        {
          "internalType": "address",
          "name": "_from",
          "type": "address"
        },
        {
          "internalType": "address",
          "name": "_to",
          "type": "address"
        },
        {
          "internalType": "uint256",
          "name": "_tokenId",
          "type": "uint256"
        },
        {
          "internalType": "bytes",
          "name": "data",
          "type": "bytes"
        }
      ],
      "name": "safeTransferFrom",
      "outputs": [],
      "stateMutability": "nonpayable",
      "type": "function"
    },
    {
      "inputs": [
        {
          "internalType": "address",
          "name": "operator",
          "type": "address"
        },
        {
          "internalType": "bool",
          "name": "approved",
          "type": "bool"
        }
      ],
      "name": "setApprovalForAll",
      "outputs": [],
      "stateMutability": "nonpayable",
      "type": "function"
    },
    {
      "inputs": [
        {
          "internalType": "address",
          "name": "_patientAddress",
          "type": "address"
        },
        {
          "internalType": "bool",
          "name": "_permis",
          "type": "bool"
        }
      ],
      "name": "setPermisAdministrar",
      "outputs": [],
      "stateMutability": "nonpayable",
      "type": "function"
    },
    {
      "inputs": [
        {
          "internalType": "bytes4",
          "name": "interfaceId",
          "type": "bytes4"
        }
      ],
      "name": "supportsInterface",
      "outputs": [
        {
          "internalType": "bool",
          "name": "",
          "type": "bool"
        }
      ],
      "stateMutability": "view",
      "type": "function"
    },
    {
      "inputs": [],
      "name": "symbol",
      "outputs": [
        {
          "internalType": "string",
          "name": "",
          "type": "string"
        }
      ],
      "stateMutability": "view",
      "type": "function"
    },
    {
      "inputs": [
        {
          "internalType": "uint256",
          "name": "tokenId",
          "type": "uint256"
        }
      ],
      "name": "tokenURI",
      "outputs": [
        {
          "internalType": "string",
          "name": "",
          "type": "string"
        }
      ],
      "stateMutability": "view",
      "type": "function"
    },
    {
      "inputs": [
        {
          "internalType": "uint256",
          "name": "_fromTokenId",
          "type": "uint256"
        },
        {
          "internalType": "address",
          "name": "_to",
          "type": "address"
        },
        {
          "internalType": "address",
          "name": "_childContract",
          "type": "address"
        },
        {
          "internalType": "uint256",
          "name": "_childTokenId",
          "type": "uint256"
        }
      ],
      "name": "transferChild",
      "outputs": [],
      "stateMutability": "nonpayable",
      "type": "function"
    },
    {
      "inputs": [
        {
          "internalType": "uint256",
          "name": "_fromTokenId",
          "type": "uint256"
        },
        {
          "internalType": "address",
          "name": "_toContract",
          "type": "address"
        },
        {
          "internalType": "uint256",
          "name": "_toTokenId",
          "type": "uint256"
        },
        {
          "internalType": "address",
          "name": "_childContract",
          "type": "address"
        },
        {
          "internalType": "uint256",
          "name": "_childTokenId",
          "type": "uint256"
        },
        {
          "internalType": "bytes",
          "name": "_data",
          "type": "bytes"
        }
      ],
      "name": "transferChildToParent",
      "outputs": [],
      "stateMutability": "nonpayable",
      "type": "function"
    },
    {
      "inputs": [
        {
          "internalType": "address",
          "name": "_from",
          "type": "address"
        },
        {
          "internalType": "address",
          "name": "_to",
          "type": "address"
        },
        {
          "internalType": "uint256",
          "name": "_tokenId",
          "type": "uint256"
        }
      ],
      "name": "transferFrom",
      "outputs": [],
      "stateMutability": "nonpayable",
      "type": "function"
    }
  ],
  "bytecode": "0x6080604052600160095534801561001557600080fd5b506040518060400160405280600a81526020016943617274696c6c61544b60b01b81525060405180604001604052806005815260200164435254544b60d81b8152508160009081610066919061011a565b506001610073828261011a565b5050506101d8565b634e487b7160e01b600052604160045260246000fd5b600181811c908216806100a557607f821691505b6020821081036100c557634e487b7160e01b600052602260045260246000fd5b50919050565b601f82111561011557806000526020600020601f840160051c810160208510156100f25750805b601f840160051c820191505b8181101561011257600081556001016100fe565b50505b505050565b81516001600160401b038111156101335761013361007b565b610147816101418454610091565b846100cb565b6020601f82116001811461017b57600083156101635750848201515b600019600385901b1c1916600184901b178455610112565b600084815260208120601f198516915b828110156101ab578785015182556020948501946001909201910161018b565b50848210156101c95786840151600019600387901b60f8161c191681555b50505050600190811b01905550565b612d16806101e76000396000f3fe608060405234801561001057600080fd5b50600436106101e55760003560e01c806370a082311161010f578063b88d4fde116100a2578063d0def52111610071578063d0def52114610475578063e985e9c514610488578063eadb80b8146104c4578063ed81cdda146104ec57600080fd5b8063b88d4fde14610441578063ba6b5f9614610454578063bef44f18146102c6578063c87b56dd1461046257600080fd5b806395d89b41116100de57806395d89b41146103d7578063a22cb465146103df578063ae30229e146103f2578063b614eba21461040557600080fd5b806370a082311461038557806371660bcb14610398578063893d20e8146103b85780638d81f51e146103c957600080fd5b80631d98f3c51161018757806342842e0e1161015657806342842e0e1461032c57806343a61a8e1461033f5780636352211e14610352578063655408731461036557600080fd5b80631d98f3c5146102c657806322ab2e6f146102d457806323b872dd146102f05780632a9894d41461030357600080fd5b806308937f62116101c357806308937f6214610252578063095ea7b31461026757806311bd66611461027a578063150b7a021461029a57600080fd5b806301ffc9a7146101ea57806306fdde0314610212578063081812fc14610227575b600080fd5b6101fd6101f83660046120a5565b6104ff565b60405190151581526020015b60405180910390f35b61021a61059c565b6040516102099190612112565b61023a610235366004612125565b61062e565b6040516001600160a01b039091168152602001610209565b610265610260366004612195565b610657565b005b61026561027536600461221b565b6106a4565b61028d610288366004612125565b6106b3565b6040516102099190612247565b6102ad6102a8366004612293565b61071f565b6040516001600160e01b03199091168152602001610209565b610265610260366004612306565b6102e263cd740db560e01b81565b604051908152602001610209565b6102656102fe36600461234e565b6108d6565b6102e261031136600461238f565b6001600160a01b031660009081526014602052604090205490565b61026561033a36600461234e565b6108e6565b6102e261034d366004612125565b610901565b61023a610360366004612125565b61090e565b61037861037336600461238f565b610919565b60405161020991906123ac565b6102e261039336600461238f565b610a15565b6103ab6103a6366004612125565b610a46565b60405161020991906123ea565b600a546001600160a01b031661023a565b6102656102603660046124e9565b61021a610daa565b6102656103ed366004612573565b610db9565b6102656104003660046126c5565b610dc4565b610265610413366004612573565b6001600160a01b03919091166000908152600660205260409020600201805460ff1916911515919091179055565b61026561044f36600461276b565b610eb2565b6102656102603660046127eb565b61021a610470366004612125565b610f8e565b610265610483366004612823565b611003565b6101fd610496366004612873565b6001600160a01b03918216600090815260056020908152604080832093909416825291909152205460ff1690565b6104d76104d236600461221b565b611046565b60408051928352602083019190915201610209565b6102e26104fa36600461221b565b6110cc565b60006001600160e01b031982167f80ac58cd00000000000000000000000000000000000000000000000000000000148061056257506001600160e01b031982167f5b5e139f00000000000000000000000000000000000000000000000000000000145b8061059657507f01ffc9a7000000000000000000000000000000000000000000000000000000006001600160e01b03198316145b92915050565b6060600080546105ab906128a1565b80601f01602080910402602001604051908101604052809291908181526020018280546105d7906128a1565b80156106245780601f106105f957610100808354040283529160200191610624565b820191906000526020600020905b81548152906001019060200180831161060757829003601f168201915b5050505050905090565b600061063982611232565b506000828152600460205260409020546001600160a01b0316610596565b60405162461bcd60e51b815260206004820152600c60248201527f4e6f207574696c69747a6172000000000000000000000000000000000000000060448201526064015b60405180910390fd5b6106af82823361126b565b5050565b60008181526010602090815260409182902080548351818402810184019094528084526060939283018282801561071357602002820191906000526020600020905b81546001600160a01b031681526001909101906020018083116106f5575b50505050509050919050565b6000816107ba5760405162461bcd60e51b815260206004820152604660248201527f5f64617461206d75737420636f6e7461696e207468652075696e74323536207460448201527f6f6b656e496420746f207472616e7366657220746865206368696c6420746f6b60648201527f656e20746f2e0000000000000000000000000000000000000000000000000000608482015260a40161069b565b60a43560208310156107df576107d18360086128f1565b6107dd90610100612908565b1c5b6107eb86823388611278565b6040517f6352211e000000000000000000000000000000000000000000000000000000008152600481018690526000903390636352211e90602401602060405180830381865afa158015610843573d6000803e3d6000fd5b505050506040513d601f19601f82011682018060405250810190610867919061291b565b6001600160a01b0316036108bd5760405162461bcd60e51b815260206004820152601660248201527f4368696c6420746f6b656e206e6f74206f776e65642e00000000000000000000604482015260640161069b565b50630a85bd0160e11b9695505050505050565b50505050565b6108e183838361159e565b505050565b6108e183838360405180602001604052806000815250610eb2565b60006105966000836110cc565b600061059682611232565b61093f604051806060016040528060008152602001606081526020016000151581525090565b6001600160a01b03821660009081526006602090815260409182902082516060810190935280548352600181018054919284019161097c906128a1565b80601f01602080910402602001604051908101604052809291908181526020018280546109a8906128a1565b80156109f55780601f106109ca576101008083540402835291602001916109f5565b820191906000526020600020905b8154815290600101906020018083116109d857829003601f168201915b50505091835250506002919091015460ff16151560209091015292915050565b60006001600160a01b038216610a2a57600080fd5b506001600160a01b031660009081526014602052604090205490565b60008181526008602052604081205460609190819067ffffffffffffffff811115610a7357610a736125ac565b604051908082528060200260200182016040528015610af857816020015b610ae5604080516060808201835260008083526020808401829052845160e081018652828152908101839052808501829052808301829052608081019290925260a0820181905260c0820152909182015290565b815260200190600190039081610a915790505b5090506000610b06856106b3565b905060005b81518160ff161015610d98576000868152600d6020526040812083518290859060ff8616908110610b3e57610b3e612938565b60200260200101516001600160a01b03166001600160a01b03168152602001908152602001600020805480602002602001604051908101604052809291908181526020018280548015610bb057602002820191906000526020600020905b815481526020019060010190808311610b9c575b5050505050905060005b81518160ff161015610d835760006040518060600160405280868660ff1681518110610be857610be8612938565b60200260200101516001600160a01b03168152602001848460ff1681518110610c1357610c13612938565b60200260200101518152602001868660ff1681518110610c3557610c35612938565b60200260200101516001600160a01b031663d61435db868660ff1681518110610c6057610c60612938565b60200260200101516040518263ffffffff1660e01b8152600401610c8691815260200190565b600060405180830381865afa158015610ca3573d6000803e3d6000fd5b505050506040513d6000823e601f3d908101601f19168201604052610ccb91908101906129b5565b81525090508060000151868860ff1681518110610cea57610cea612938565b6020026020010151600001906001600160a01b031690816001600160a01b0316815250508060200151868860ff1681518110610d2857610d28612938565b602002602001015160200181815250508060400151868860ff1681518110610d5257610d52612938565b6020026020010151604001819052508680610d6c90612aa0565b975050508080610d7b90612aa0565b915050610bba565b50508080610d9090612aa0565b915050610b0b565b5090949350505050565b505050505050565b6060600180546105ab906128a1565b6106af338383611946565b8051600090815260076020908152604090912082518155908201518291906001820190610df19082612b06565b50604091820151600291909101805460ff191691151591909117905581516000908152600c602090815282822080546001600160a01b0319166001600160a01b038716908117909155825260149052908120805491610e4f83612bc5565b90915550506001600160a01b038216600090815260066020908152604090912082518155908201518291906001820190610e899082612b06565b50604091909101516002909101805460ff191691151591909117905580516106af9083906119fe565b610ebd84848461159e565b823b156108d057604051630a85bd0160e11b81523360048201526001600160a01b0385811660248301526044820184905260806064830152600060848301819052919085169063150b7a029060a4016020604051808303816000875af1158015610f2b573d6000803e3d6000fd5b505050506040513d601f19601f82011682018060405250810190610f4f9190612bde565b90506001600160e01b031981167ff0b9e5ba0000000000000000000000000000000000000000000000000000000014610f8757600080fd5b5050505050565b6060610f9982611232565b506000610fb160408051602081019091526000815290565b90506000815111610fd15760405180602001604052806000815250610ffc565b80610fdb84611a18565b604051602001610fec929190612bfb565b6040516020818303038152906040525b9392505050565b6040805160608101825260095481526020810183905260009181019190915261102c8382610dc4565b6009805490600061103c83612bc5565b9190505550505050565b6001600160a01b0382166000908152600f60209081526040808320848452909152812054801515806110a157506000818152600e602090815260408083206001600160a01b0388168452825280832086845290915290205415155b6110aa57600080fd5b6000818152600c60205260409020546001600160a01b031691505b9250929050565b6000806001600160a01b038416156110f1576110e88484611046565b9350905061110b565b506000828152600c60205260409020546001600160a01b03165b306001600160a01b03821603611125576110e88184611046565b60408051306024820152604480820186905282518083039091018152606490910182526020810180517bffffffffffffffffffffffffffffffffffffffffffffffffffffffff166376c0e6ed60e11b179052905160009182916001600160a01b0385169161119291612c2a565b600060405180830381855afa9150503d80600081146111cd576040519150601f19603f3d011682016040523d82523d6000602084013e6111d2565b606091505b509150915080516000146111f757808060200190518101906111f49190612c46565b93505b6001821515148015611213575060e084901c63cd740db560e01b145b1561122057505050610596565b50506001600160a01b03169050610596565b6000818152600260205260408120546001600160a01b03168061059657604051637e27328960e01b81526004810184905260240161069b565b6108e18383836001611ab8565b600660006112858361090e565b6001600160a01b0316815260208101919091526040016000206002015460ff16151560011461131c5760405162461bcd60e51b815260206004820152602660248201527f4e6f207465207065726d69732070657220616363656469722061206c6120636160448201527f7274696c6c610000000000000000000000000000000000000000000000000000606482015260840161069b565b6000838152600c60205260409020546001600160a01b03166113805760405162461bcd60e51b815260206004820152601860248201527f4c612063617274696c6c61206e6f2065786973746569782e0000000000000000604482015260640161069b565b6000838152600e602090815260408083206001600160a01b038616845282528083208484529091529020541561141e5760405162461bcd60e51b815260206004820152602560248201527f46696c6c206a61206578697374656e742070657220656c207061726520696e6460448201527f696361742e000000000000000000000000000000000000000000000000000000606482015260840161069b565b6000838152600d602090815260408083206001600160a01b0386168452909152812054908190036114995760008481526010602081815260408084208054601184528286206001600160a01b038a16808852908552928620819055938352600184018155845292200180546001600160a01b03191690911790555b6000848152600d602090815260408083206001600160a01b03871684528252822080546001818101835591845291909220018390556114d9908290612c5f565b6000858152600e602090815260408083206001600160a01b038816808552908352818420878552835281842094909455928252600f81528282208583528152828220879055868252600890522054611532906001612c5f565b6008600086815260200190815260200160002081905550826001600160a01b031684866001600160a01b03167f0371ddf2288ad1ba92626a7e31c86a9d006e592cfe57d7d946ef08b13457c08b8560405161158f91815260200190565b60405180910390a45050505050565b6001600160a01b0383166115b157600080fd5b6000818152600c60205260409020546001600160a01b038481169116146115d757600080fd5b6001600160a01b0382166115ea57600080fd5b336001600160a01b038416146117ca5760408051306024820152604480820184905282518083039091018152606490910182526020810180517bffffffffffffffffffffffffffffffffffffffffffffffffffffffff166376c0e6ed60e11b179052905160009182916001600160a01b0387169161166791612c2a565b600060405180830381855afa9150503d80600081146116a2576040519150601f19603f3d011682016040523d82523d6000602084013e6116a7565b606091505b50915091506000818060200190518101906116c29190612c46565b9050821515600103611767577f328bf24b0000000000000000000000000000000000000000000000000000000060e082901c016117675760405162461bcd60e51b815260206004820152603460248201527f43617274696c6c6120546f6b656e206973206368696c64206f66206f7468657260448201527f20746f7020646f776e20636f6d706f7361626c65000000000000000000000000606482015260840161069b565b6001600160a01b038616600090815260126020908152604080832033845290915290205460ff16806117bd57506001600160a01b0386811660009081526013602090815260408083208884529091529020541633145b6117c657600080fd5b5050505b6001600160a01b0383811660009081526013602090815260408083208584529091529020541615611851576001600160a01b038316600081815260136020908152604080832085845290915280822080546001600160a01b0319169055518392907f8c5be1e5ebec7d5bd14f71427d1e84f3dd0314c0f7b2291e5b200ac8c7c3b925908390a45b816001600160a01b0316836001600160a01b031614611900576001600160a01b03831660009081526014602052604090205461188f5761188f612c72565b6001600160a01b03831660009081526014602052604081208054916118b383612c88565b90915550506000818152600c6020908152604080832080546001600160a01b0319166001600160a01b0387169081179091558352601490915281208054916118fa83612bc5565b91905055505b80826001600160a01b0316846001600160a01b03167fddf252ad1be2c89b69c2b068fc378daa952ba7f163c4a11628f55a4df523b3ef60405160405180910390a4505050565b6001600160a01b038216611991576040517f5b08ba180000000000000000000000000000000000000000000000000000000081526001600160a01b038316600482015260240161069b565b6001600160a01b03838116600081815260056020908152604080832094871680845294825291829020805460ff191686151590811790915591519182527f17307eab39ab6107e8899845ad3d59bd9653f200f220920489ca2b5937696c31910160405180910390a3505050565b6106af828260405180602001604052806000815250611bf6565b60606000611a2583611c0e565b600101905060008167ffffffffffffffff811115611a4557611a456125ac565b6040519080825280601f01601f191660200182016040528015611a6f576020820181803683370190505b5090508181016020015b600019017f3031323334353637383961626364656600000000000000000000000000000000600a86061a8153600a8504945084611a7957509392505050565b8080611acc57506001600160a01b03821615155b15611bc6576000611adc84611232565b90506001600160a01b03831615801590611b085750826001600160a01b0316816001600160a01b031614155b8015611b3a57506001600160a01b0380821660009081526005602090815260408083209387168352929052205460ff16155b15611b7c576040517fa9fbf51f0000000000000000000000000000000000000000000000000000000081526001600160a01b038416600482015260240161069b565b8115611bc45783856001600160a01b0316826001600160a01b03167f8c5be1e5ebec7d5bd14f71427d1e84f3dd0314c0f7b2291e5b200ac8c7c3b92560405160405180910390a45b505b5050600090815260046020526040902080546001600160a01b0319166001600160a01b0392909216919091179055565b611c008383611cf0565b6108e1336000858585611d6e565b6000807a184f03e93ff9f4daa797ed6e38ed64bf6a1f0100000000000000008310611c57577a184f03e93ff9f4daa797ed6e38ed64bf6a1f010000000000000000830492506040015b6d04ee2d6d415b85acef81000000008310611c83576d04ee2d6d415b85acef8100000000830492506020015b662386f26fc100008310611ca157662386f26fc10000830492506010015b6305f5e1008310611cb9576305f5e100830492506008015b6127108310611ccd57612710830492506004015b60648310611cdf576064830492506002015b600a83106105965760010192915050565b6001600160a01b038216611d1a57604051633250574960e11b81526000600482015260240161069b565b6000611d2883836000611e90565b90506001600160a01b038116156108e1576040517f73c6ac6e0000000000000000000000000000000000000000000000000000000081526000600482015260240161069b565b6001600160a01b0383163b15610f8757604051630a85bd0160e11b81526001600160a01b0384169063150b7a0290611db0908890889087908790600401612c9f565b6020604051808303816000875af1925050508015611deb575060408051601f3d908101601f19168201909252611de891810190612bde565b60015b611e54573d808015611e19576040519150601f19603f3d011682016040523d82523d6000602084013e611e1e565b606091505b508051600003611e4c57604051633250574960e11b81526001600160a01b038516600482015260240161069b565b805181602001fd5b6001600160e01b03198116630a85bd0160e11b14610da257604051633250574960e11b81526001600160a01b038516600482015260240161069b565b6000828152600260205260408120546001600160a01b0390811690831615611ebd57611ebd818486611f89565b6001600160a01b03811615611efb57611eda600085600080611ab8565b6001600160a01b038116600090815260036020526040902080546000190190555b6001600160a01b03851615611f2a576001600160a01b0385166000908152600360205260409020805460010190555b60008481526002602052604080822080546001600160a01b0319166001600160a01b0389811691821790925591518793918516917fddf252ad1be2c89b69c2b068fc378daa952ba7f163c4a11628f55a4df523b3ef91a4949350505050565b611f94838383612006565b6108e1576001600160a01b038316611fc257604051637e27328960e01b81526004810182905260240161069b565b6040517f177e802f0000000000000000000000000000000000000000000000000000000081526001600160a01b03831660048201526024810182905260440161069b565b60006001600160a01b038316158015906120845750826001600160a01b0316846001600160a01b0316148061206057506001600160a01b0380851660009081526005602090815260408083209387168352929052205460ff165b8061208457506000828152600460205260409020546001600160a01b038481169116145b949350505050565b6001600160e01b0319811681146120a257600080fd5b50565b6000602082840312156120b757600080fd5b8135610ffc8161208c565b60005b838110156120dd5781810151838201526020016120c5565b50506000910152565b600081518084526120fe8160208601602086016120c2565b601f01601f19169290920160200192915050565b602081526000610ffc60208301846120e6565b60006020828403121561213757600080fd5b5035919050565b6001600160a01b03811681146120a257600080fd5b60008083601f84011261216557600080fd5b50813567ffffffffffffffff81111561217d57600080fd5b6020830191508360208285010111156110c557600080fd5b600080600080600080600060c0888a0312156121b057600080fd5b8735965060208801356121c28161213e565b95506040880135945060608801356121d98161213e565b93506080880135925060a088013567ffffffffffffffff8111156121fc57600080fd5b6122088a828b01612153565b989b979a50959850939692959293505050565b6000806040838503121561222e57600080fd5b82356122398161213e565b946020939093013593505050565b602080825282518282018190526000918401906040840190835b818110156122885783516001600160a01b0316835260209384019390920191600101612261565b509095945050505050565b6000806000806000608086880312156122ab57600080fd5b85356122b68161213e565b945060208601356122c68161213e565b935060408601359250606086013567ffffffffffffffff8111156122e957600080fd5b6122f588828901612153565b969995985093965092949392505050565b6000806000806080858703121561231c57600080fd5b84359350602085013561232e8161213e565b9250604085013561233e8161213e565b9396929550929360600135925050565b60008060006060848603121561236357600080fd5b833561236e8161213e565b9250602084013561237e8161213e565b929592945050506040919091013590565b6000602082840312156123a157600080fd5b8135610ffc8161213e565b602081528151602082015260006020830151606060408401526123d260808401826120e6565b90506040840151151560608401528091505092915050565b6000602082016020835280845180835260408501915060408160051b86010192506020860160005b828110156124dd57603f1987860301845281516001600160a01b03815116865260208101516020870152604081015190506060604087015280516060870152602081015160e0608088015261246b6101408801826120e6565b90506040820151151560a0880152606082015160010b60c08801526080820151605f198883030160e08901526124a182826120e6565b91505060a0820151151561010088015260c082015191506124c761012088018315159052565b9550506020938401939190910190600101612412565b50929695505050505050565b60008060008060008060a0878903121561250257600080fd5b8635955060208701356125148161213e565b945060408701356125248161213e565b935060608701359250608087013567ffffffffffffffff81111561254757600080fd5b61255389828a01612153565b979a9699509497509295939492505050565b80151581146120a257600080fd5b6000806040838503121561258657600080fd5b82356125918161213e565b915060208301356125a181612565565b809150509250929050565b634e487b7160e01b600052604160045260246000fd5b6040516060810167ffffffffffffffff811182821017156125e5576125e56125ac565b60405290565b60405160e0810167ffffffffffffffff811182821017156125e5576125e56125ac565b604051601f8201601f1916810167ffffffffffffffff81118282101715612637576126376125ac565b604052919050565b600067ffffffffffffffff821115612659576126596125ac565b50601f01601f191660200190565b600061267a6126758461263f565b61260e565b905082815283838301111561268e57600080fd5b828260208301376000602084830101529392505050565b600082601f8301126126b657600080fd5b610ffc83833560208501612667565b600080604083850312156126d857600080fd5b82356126e38161213e565b9150602083013567ffffffffffffffff8111156126ff57600080fd5b83016060818603121561271157600080fd5b6127196125c2565b81358152602082013567ffffffffffffffff81111561273757600080fd5b612743878285016126a5565b6020830152506040820135915061275982612565565b81604082015280925050509250929050565b6000806000806080858703121561278157600080fd5b843561278c8161213e565b9350602085013561279c8161213e565b925060408501359150606085013567ffffffffffffffff8111156127bf57600080fd5b8501601f810187136127d057600080fd5b6127df87823560208401612667565b91505092959194509250565b6000806000806080858703121561280157600080fd5b843561280c8161213e565b935060208501359250604085013561233e8161213e565b6000806040838503121561283657600080fd5b82356128418161213e565b9150602083013567ffffffffffffffff81111561285d57600080fd5b612869858286016126a5565b9150509250929050565b6000806040838503121561288657600080fd5b82356128918161213e565b915060208301356125a18161213e565b600181811c908216806128b557607f821691505b6020821081036128d557634e487b7160e01b600052602260045260246000fd5b50919050565b634e487b7160e01b600052601160045260246000fd5b8082028115828204841417610596576105966128db565b81810381811115610596576105966128db565b60006020828403121561292d57600080fd5b8151610ffc8161213e565b634e487b7160e01b600052603260045260246000fd5b600082601f83011261295f57600080fd5b815161296d6126758261263f565b81815284602083860101111561298257600080fd5b6120848260208301602087016120c2565b805161299e81612565565b919050565b8051600181900b811461299e57600080fd5b6000602082840312156129c757600080fd5b815167ffffffffffffffff8111156129de57600080fd5b820160e081850312156129f057600080fd5b6129f86125eb565b81518152602082015167ffffffffffffffff811115612a1657600080fd5b612a228682850161294e565b602083015250612a3460408301612993565b6040820152612a45606083016129a3565b6060820152608082015167ffffffffffffffff811115612a6457600080fd5b612a708682850161294e565b608083015250612a8260a08301612993565b60a0820152612a9360c08301612993565b60c0820152949350505050565b600060ff821660ff8103612ab657612ab66128db565b60010192915050565b601f8211156108e157806000526020600020601f840160051c81016020851015612ae65750805b601f840160051c820191505b81811015610f875760008155600101612af2565b815167ffffffffffffffff811115612b2057612b206125ac565b612b3481612b2e84546128a1565b84612abf565b6020601f821160018114612b685760008315612b505750848201515b600019600385901b1c1916600184901b178455610f87565b600084815260208120601f198516915b82811015612b985787850151825560209485019460019092019101612b78565b5084821015612bb65786840151600019600387901b60f8161c191681555b50505050600190811b01905550565b600060018201612bd757612bd76128db565b5060010190565b600060208284031215612bf057600080fd5b8151610ffc8161208c565b60008351612c0d8184602088016120c2565b835190830190612c218183602088016120c2565b01949350505050565b60008251612c3c8184602087016120c2565b9190910192915050565b600060208284031215612c5857600080fd5b5051919050565b80820180821115610596576105966128db565b634e487b7160e01b600052600160045260246000fd5b600081612c9757612c976128db565b506000190190565b6001600160a01b03851681526001600160a01b0384166020820152826040820152608060608201526000612cd660808301846120e6565b969550505050505056fea26469706673582212204e1efa4eb2305c068df8e7b27a6f9a79545c1f7bb2deac913db21c0321f6c2a164736f6c634300081c0033",
  "linkReferences": {},
  "deployedLinkReferences": {}
}