{
  "_format": "hh-sol-artifact-1",
  "contractName": "CartillaTK",
  "sourceName": "contracts/CartillaTK.sol",
  "abi": [
    {
      "inputs": [],
      "stateMutability": "nonpayable",
      "type": "constructor"
    },
    {
      "inputs": [
        {
          "internalType": "address",
          "name": "sender",
          "type": "address"
        },
        {
          "internalType": "uint256",
          "name": "tokenId",
          "type": "uint256"
        },
        {
          "internalType": "address",
          "name": "owner",
          "type": "address"
        }
      ],
      "name": "ERC721IncorrectOwner",
      "type": "error"
    },
    {
      "inputs": [
        {
          "internalType": "address",
          "name": "operator",
          "type": "address"
        },
        {
          "internalType": "uint256",
          "name": "tokenId",
          "type": "uint256"
        }
      ],
      "name": "ERC721InsufficientApproval",
      "type": "error"
    },
    {
      "inputs": [
        {
          "internalType": "address",
          "name": "approver",
          "type": "address"
        }
      ],
      "name": "ERC721InvalidApprover",
      "type": "error"
    },
    {
      "inputs": [
        {
          "internalType": "address",
          "name": "operator",
          "type": "address"
        }
      ],
      "name": "ERC721InvalidOperator",
      "type": "error"
    },
    {
      "inputs": [
        {
          "internalType": "address",
          "name": "owner",
          "type": "address"
        }
      ],
      "name": "ERC721InvalidOwner",
      "type": "error"
    },
    {
      "inputs": [
        {
          "internalType": "address",
          "name": "receiver",
          "type": "address"
        }
      ],
      "name": "ERC721InvalidReceiver",
      "type": "error"
    },
    {
      "inputs": [
        {
          "internalType": "address",
          "name": "sender",
          "type": "address"
        }
      ],
      "name": "ERC721InvalidSender",
      "type": "error"
    },
    {
      "inputs": [
        {
          "internalType": "uint256",
          "name": "tokenId",
          "type": "uint256"
        }
      ],
      "name": "ERC721NonexistentToken",
      "type": "error"
    },
    {
      "anonymous": false,
      "inputs": [
        {
          "indexed": true,
          "internalType": "address",
          "name": "owner",
          "type": "address"
        },
        {
          "indexed": true,
          "internalType": "address",
          "name": "approved",
          "type": "address"
        },
        {
          "indexed": true,
          "internalType": "uint256",
          "name": "tokenId",
          "type": "uint256"
        }
      ],
      "name": "Approval",
      "type": "event"
    },
    {
      "anonymous": false,
      "inputs": [
        {
          "indexed": true,
          "internalType": "address",
          "name": "owner",
          "type": "address"
        },
        {
          "indexed": true,
          "internalType": "address",
          "name": "operator",
          "type": "address"
        },
        {
          "indexed": false,
          "internalType": "bool",
          "name": "approved",
          "type": "bool"
        }
      ],
      "name": "ApprovalForAll",
      "type": "event"
    },
    {
      "anonymous": false,
      "inputs": [
        {
          "indexed": true,
          "internalType": "address",
          "name": "_from",
          "type": "address"
        },
        {
          "indexed": true,
          "internalType": "uint256",
          "name": "_tokenId",
          "type": "uint256"
        },
        {
          "indexed": true,
          "internalType": "address",
          "name": "_childContract",
          "type": "address"
        },
        {
          "indexed": false,
          "internalType": "uint256",
          "name": "_childTokenId",
          "type": "uint256"
        }
      ],
      "name": "ReceivedChild",
      "type": "event"
    },
    {
      "anonymous": false,
      "inputs": [
        {
          "indexed": true,
          "internalType": "address",
          "name": "from",
          "type": "address"
        },
        {
          "indexed": true,
          "internalType": "address",
          "name": "to",
          "type": "address"
        },
        {
          "indexed": true,
          "internalType": "uint256",
          "name": "tokenId",
          "type": "uint256"
        }
      ],
      "name": "Transfer",
      "type": "event"
    },
    {
      "anonymous": false,
      "inputs": [
        {
          "indexed": true,
          "internalType": "uint256",
          "name": "tokenId",
          "type": "uint256"
        },
        {
          "indexed": true,
          "internalType": "address",
          "name": "_to",
          "type": "address"
        },
        {
          "indexed": true,
          "internalType": "address",
          "name": "_childContract",
          "type": "address"
        },
        {
          "indexed": false,
          "internalType": "uint256",
          "name": "_childTokenId",
          "type": "uint256"
        }
      ],
      "name": "TransferChild",
      "type": "event"
    },
    {
      "inputs": [],
      "name": "ERC998_MAGIC_VALUE",
      "outputs": [
        {
          "internalType": "bytes32",
          "name": "",
          "type": "bytes32"
        }
      ],
      "stateMutability": "view",
      "type": "function"
    },
    {
      "inputs": [
        {
          "internalType": "address",
          "name": "to",
          "type": "address"
        },
        {
          "internalType": "uint256",
          "name": "tokenId",
          "type": "uint256"
        }
      ],
      "name": "approve",
      "outputs": [],
      "stateMutability": "nonpayable",
      "type": "function"
    },
    {
      "inputs": [
        {
          "internalType": "address",
          "name": "_tokenOwner",
          "type": "address"
        }
      ],
      "name": "balanceOf",
      "outputs": [
        {
          "internalType": "uint256",
          "name": "",
          "type": "uint256"
        }
      ],
      "stateMutability": "view",
      "type": "function"
    },
    {
      "inputs": [
        {
          "internalType": "uint256",
          "name": "tokenId",
          "type": "uint256"
        }
      ],
      "name": "getApproved",
      "outputs": [
        {
          "internalType": "address",
          "name": "",
          "type": "address"
        }
      ],
      "stateMutability": "view",
      "type": "function"
    },
    {
      "inputs": [
        {
          "internalType": "address",
          "name": "_from",
          "type": "address"
        },
        {
          "internalType": "uint256",
          "name": "_tokenId",
          "type": "uint256"
        },
        {
          "internalType": "address",
          "name": "_childContract",
          "type": "address"
        },
        {
          "internalType": "uint256",
          "name": "_childTokenId",
          "type": "uint256"
        }
      ],
      "name": "getChild",
      "outputs": [],
      "stateMutability": "nonpayable",
      "type": "function"
    },
    {
      "inputs": [
        {
          "internalType": "uint256",
          "name": "_tokenId",
          "type": "uint256"
        }
      ],
      "name": "getChildContracts",
      "outputs": [
        {
          "internalType": "address[]",
          "name": "",
          "type": "address[]"
        }
      ],
      "stateMutability": "view",
      "type": "function"
    },
    {
      "inputs": [
        {
          "internalType": "uint256",
          "name": "_idToken",
          "type": "uint256"
        }
      ],
      "name": "getDadesCartilla",
      "outputs": [
        {
          "components": [
            {
              "internalType": "string",
              "name": "hashCip",
              "type": "string"
            },
            {
              "internalType": "bool",
              "name": "permisAdministrar",
              "type": "bool"
            }
          ],
          "internalType": "struct CartillaTK.Cartilla",
          "name": "",
          "type": "tuple"
        }
      ],
      "stateMutability": "view",
      "type": "function"
    },
    {
      "inputs": [
        {
          "internalType": "uint256",
          "name": "_idParentToken",
          "type": "uint256"
        }
      ],
      "name": "getDadesVacunesCartilla",
      "outputs": [
        {
          "components": [
            {
              "internalType": "address",
              "name": "contracteVacuna",
              "type": "address"
            },
            {
              "internalType": "uint256",
              "name": "idVacunaToken",
              "type": "uint256"
            },
            {
              "components": [
                {
                  "internalType": "uint256",
                  "name": "idToken",
                  "type": "uint256"
                },
                {
                  "internalType": "string",
                  "name": "idVacuna",
                  "type": "string"
                },
                {
                  "internalType": "bool",
                  "name": "termolabil",
                  "type": "bool"
                },
                {
                  "internalType": "int16",
                  "name": "tempConservacio",
                  "type": "int16"
                },
                {
                  "internalType": "string",
                  "name": "dataCaducitat",
                  "type": "string"
                },
                {
                  "internalType": "bool",
                  "name": "asignadaLot",
                  "type": "bool"
                },
                {
                  "internalType": "bool",
                  "name": "administrada",
                  "type": "bool"
                }
              ],
              "internalType": "struct VacunaTK.Vacuna",
              "name": "vacuna",
              "type": "tuple"
            }
          ],
          "internalType": "struct CartillaTK.DadesVacunaCartilla[]",
          "name": "",
          "type": "tuple[]"
        }
      ],
      "stateMutability": "view",
      "type": "function"
    },
    {
      "inputs": [],
      "name": "getOwner",
      "outputs": [
        {
          "internalType": "address",
          "name": "",
          "type": "address"
        }
      ],
      "stateMutability": "view",
      "type": "function"
    },
    {
      "inputs": [
        {
          "internalType": "address",
          "name": "_from",
          "type": "address"
        }
      ],
      "name": "getTokenOwnerToTokenCount",
      "outputs": [
        {
          "internalType": "uint256",
          "name": "",
          "type": "uint256"
        }
      ],
      "stateMutability": "view",
      "type": "function"
    },
    {
      "inputs": [
        {
          "internalType": "address",
          "name": "owner",
          "type": "address"
        },
        {
          "internalType": "address",
          "name": "operator",
          "type": "address"
        }
      ],
      "name": "isApprovedForAll",
      "outputs": [
        {
          "internalType": "bool",
          "name": "",
          "type": "bool"
        }
      ],
      "stateMutability": "view",
      "type": "function"
    },
    {
      "inputs": [
        {
          "internalType": "address",
          "name": "to",
          "type": "address"
        },
        {
          "internalType": "string",
          "name": "_hashCip",
          "type": "string"
        }
      ],
      "name": "mint",
      "outputs": [],
      "stateMutability": "nonpayable",
      "type": "function"
    },
    {
      "inputs": [],
      "name": "name",
      "outputs": [
        {
          "internalType": "string",
          "name": "",
          "type": "string"
        }
      ],
      "stateMutability": "view",
      "type": "function"
    },
    {
      "inputs": [
        {
          "internalType": "address",
          "name": "_operator",
          "type": "address"
        },
        {
          "internalType": "address",
          "name": "_from",
          "type": "address"
        },
        {
          "internalType": "uint256",
          "name": "_childTokenId",
          "type": "uint256"
        },
        {
          "internalType": "bytes",
          "name": "_data",
          "type": "bytes"
        }
      ],
      "name": "onERC721Received",
      "outputs": [
        {
          "internalType": "bytes4",
          "name": "",
          "type": "bytes4"
        }
      ],
      "stateMutability": "nonpayable",
      "type": "function"
    },
    {
      "inputs": [
        {
          "internalType": "uint256",
          "name": "tokenId",
          "type": "uint256"
        }
      ],
      "name": "ownerOf",
      "outputs": [
        {
          "internalType": "address",
          "name": "",
          "type": "address"
        }
      ],
      "stateMutability": "view",
      "type": "function"
    },
    {
      "inputs": [
        {
          "internalType": "address",
          "name": "_childContract",
          "type": "address"
        },
        {
          "internalType": "uint256",
          "name": "_childTokenId",
          "type": "uint256"
        }
      ],
      "name": "ownerOfChild",
      "outputs": [
        {
          "internalType": "bytes32",
          "name": "parentTokenOwner",
          "type": "bytes32"
        },
        {
          "internalType": "uint256",
          "name": "parentTokenId",
          "type": "uint256"
        }
      ],
      "stateMutability": "view",
      "type": "function"
    },
    {
      "inputs": [
        {
          "internalType": "uint256",
          "name": "_tokenId",
          "type": "uint256"
        }
      ],
      "name": "rootOwnerOf",
      "outputs": [
        {
          "internalType": "bytes32",
          "name": "rootOwner",
          "type": "bytes32"
        }
      ],
      "stateMutability": "view",
      "type": "function"
    },
    {
      "inputs": [
        {
          "internalType": "address",
          "name": "_childContract",
          "type": "address"
        },
        {
          "internalType": "uint256",
          "name": "_childTokenId",
          "type": "uint256"
        }
      ],
      "name": "rootOwnerOfChild",
      "outputs": [
        {
          "internalType": "bytes32",
          "name": "rootOwner",
          "type": "bytes32"
        }
      ],
      "stateMutability": "view",
      "type": "function"
    },
    {
      "inputs": [
        {
          "internalType": "address",
          "name": "to",
          "type": "address"
        },
        {
          "components": [
            {
              "internalType": "string",
              "name": "hashCip",
              "type": "string"
            },
            {
              "internalType": "bool",
              "name": "permisAdministrar",
              "type": "bool"
            }
          ],
          "internalType": "struct CartillaTK.Cartilla",
          "name": "_newCartilla",
          "type": "tuple"
        }
      ],
      "name": "safeMint",
      "outputs": [],
      "stateMutability": "nonpayable",
      "type": "function"
    },
    {
      "inputs": [
        {
          "internalType": "uint256",
          "name": "_fromTokenId",
          "type": "uint256"
        },
        {
          "internalType": "address",
          "name": "_to",
          "type": "address"
        },
        {
          "internalType": "address",
          "name": "_childContract",
          "type": "address"
        },
        {
          "internalType": "uint256",
          "name": "_childTokenId",
          "type": "uint256"
        }
      ],
      "name": "safeTransferChild",
      "outputs": [],
      "stateMutability": "nonpayable",
      "type": "function"
    },
    {
      "inputs": [
        {
          "internalType": "uint256",
          "name": "_fromTokenId",
          "type": "uint256"
        },
        {
          "internalType": "address",
          "name": "_to",
          "type": "address"
        },
        {
          "internalType": "address",
          "name": "_childContract",
          "type": "address"
        },
        {
          "internalType": "uint256",
          "name": "_childTokenId",
          "type": "uint256"
        },
        {
          "internalType": "bytes",
          "name": "_data",
          "type": "bytes"
        }
      ],
      "name": "safeTransferChild",
      "outputs": [],
      "stateMutability": "nonpayable",
      "type": "function"
    },
    {
      "inputs": [
        {
          "internalType": "address",
          "name": "from",
          "type": "address"
        },
        {
          "internalType": "address",
          "name": "to",
          "type": "address"
        },
        {
          "internalType": "uint256",
          "name": "tokenId",
          "type": "uint256"
        }
      ],
      "name": "safeTransferFrom",
      "outputs": [],
      "stateMutability": "nonpayable",
      "type": "function"
    },
    {
      "inputs": [
        {
          "internalType": "address",
          "name": "_from",
          "type": "address"
        },
        {
          "internalType": "address",
          "name": "_to",
          "type": "address"
        },
        {
          "internalType": "uint256",
          "name": "_tokenId",
          "type": "uint256"
        },
        {
          "internalType": "bytes",
          "name": "data",
          "type": "bytes"
        }
      ],
      "name": "safeTransferFrom",
      "outputs": [],
      "stateMutability": "nonpayable",
      "type": "function"
    },
    {
      "inputs": [
        {
          "internalType": "address",
          "name": "operator",
          "type": "address"
        },
        {
          "internalType": "bool",
          "name": "approved",
          "type": "bool"
        }
      ],
      "name": "setApprovalForAll",
      "outputs": [],
      "stateMutability": "nonpayable",
      "type": "function"
    },
    {
      "inputs": [
        {
          "internalType": "uint256",
          "name": "_tokenId",
          "type": "uint256"
        }
      ],
      "name": "setNoPermisAdministrar",
      "outputs": [],
      "stateMutability": "nonpayable",
      "type": "function"
    },
    {
      "inputs": [
        {
          "internalType": "uint256",
          "name": "_tokenId",
          "type": "uint256"
        }
      ],
      "name": "setPermisAdministrar",
      "outputs": [],
      "stateMutability": "nonpayable",
      "type": "function"
    },
    {
      "inputs": [
        {
          "internalType": "bytes4",
          "name": "interfaceId",
          "type": "bytes4"
        }
      ],
      "name": "supportsInterface",
      "outputs": [
        {
          "internalType": "bool",
          "name": "",
          "type": "bool"
        }
      ],
      "stateMutability": "view",
      "type": "function"
    },
    {
      "inputs": [],
      "name": "symbol",
      "outputs": [
        {
          "internalType": "string",
          "name": "",
          "type": "string"
        }
      ],
      "stateMutability": "view",
      "type": "function"
    },
    {
      "inputs": [
        {
          "internalType": "uint256",
          "name": "tokenId",
          "type": "uint256"
        }
      ],
      "name": "tokenURI",
      "outputs": [
        {
          "internalType": "string",
          "name": "",
          "type": "string"
        }
      ],
      "stateMutability": "view",
      "type": "function"
    },
    {
      "inputs": [
        {
          "internalType": "uint256",
          "name": "_fromTokenId",
          "type": "uint256"
        },
        {
          "internalType": "address",
          "name": "_to",
          "type": "address"
        },
        {
          "internalType": "address",
          "name": "_childContract",
          "type": "address"
        },
        {
          "internalType": "uint256",
          "name": "_childTokenId",
          "type": "uint256"
        }
      ],
      "name": "transferChild",
      "outputs": [],
      "stateMutability": "nonpayable",
      "type": "function"
    },
    {
      "inputs": [
        {
          "internalType": "uint256",
          "name": "_fromTokenId",
          "type": "uint256"
        },
        {
          "internalType": "address",
          "name": "_toContract",
          "type": "address"
        },
        {
          "internalType": "uint256",
          "name": "_toTokenId",
          "type": "uint256"
        },
        {
          "internalType": "address",
          "name": "_childContract",
          "type": "address"
        },
        {
          "internalType": "uint256",
          "name": "_childTokenId",
          "type": "uint256"
        },
        {
          "internalType": "bytes",
          "name": "_data",
          "type": "bytes"
        }
      ],
      "name": "transferChildToParent",
      "outputs": [],
      "stateMutability": "nonpayable",
      "type": "function"
    },
    {
      "inputs": [
        {
          "internalType": "address",
          "name": "_from",
          "type": "address"
        },
        {
          "internalType": "address",
          "name": "_to",
          "type": "address"
        },
        {
          "internalType": "uint256",
          "name": "_tokenId",
          "type": "uint256"
        }
      ],
      "name": "transferFrom",
      "outputs": [],
      "stateMutability": "nonpayable",
      "type": "function"
    }
  ],
  "bytecode": "0x6080604052600060085534801561001557600080fd5b506040518060400160405280600a81526020016943617274696c6c61544b60b01b81525060405180604001604052806005815260200164435254544b60d81b8152508160009081610066919061011a565b506001610073828261011a565b5050506101d8565b634e487b7160e01b600052604160045260246000fd5b600181811c908216806100a557607f821691505b6020821081036100c557634e487b7160e01b600052602260045260246000fd5b50919050565b601f82111561011557806000526020600020601f840160051c810160208510156100f25750805b601f840160051c820191505b8181101561011257600081556001016100fe565b50505b505050565b81516001600160401b038111156101335761013361007b565b610147816101418454610091565b846100cb565b6020601f82116001811461017b57600083156101635750848201515b600019600385901b1c1916600184901b178455610112565b600084815260208120601f198516915b828110156101ab578785015182556020948501946001909201910161018b565b50848210156101c95786840151600019600387901b60f8161c191681555b50505050600190811b01905550565b612cc8806101e76000396000f3fe608060405234801561001057600080fd5b50600436106101f05760003560e01c806370a082311161010f578063b88d4fde116100a2578063d0def52111610071578063d0def5211461046a578063e985e9c51461047d578063eadb80b8146104b9578063ed81cdda146104e157600080fd5b8063b88d4fde14610436578063ba6b5f9614610449578063bef44f18146102d1578063c87b56dd1461045757600080fd5b8063893d20e8116100de578063893d20e8146103fc5780638d81f51e1461040d57806395d89b411461041b578063a22cb4651461042357600080fd5b806370a082311461039657806371660bcb146103a9578063755fadbe146103c9578063859c9394146103e957600080fd5b806320f334671161018757806342842e0e1161015657806342842e0e1461034a57806343a61a8e1461035d578063441e1e7c146103705780636352211e1461038357600080fd5b806320f33467146102df57806322ab2e6f146102f257806323b872dd1461030e5780632a9894d41461032157600080fd5b8063095ea7b3116101c3578063095ea7b31461027257806311bd666114610285578063150b7a02146102a55780631d98f3c5146102d157600080fd5b806301ffc9a7146101f557806306fdde031461021d578063081812fc1461023257806308937f621461025d575b600080fd5b610208610203366004612070565b6104f4565b60405190151581526020015b60405180910390f35b610225610591565b60405161021491906120dd565b6102456102403660046120f0565b610623565b6040516001600160a01b039091168152602001610214565b61027061026b366004612160565b61064c565b005b6102706102803660046121e6565b610699565b6102986102933660046120f0565b6106a8565b6040516102149190612212565b6102b86102b336600461225e565b610714565b6040516001600160e01b03199091168152602001610214565b61027061026b3660046122d1565b6102706102ed3660046120f0565b6108cb565b61030063cd740db560e01b81565b604051908152602001610214565b61027061031c366004612319565b610909565b61030061032f36600461235a565b6001600160a01b031660009081526013602052604090205490565b610270610358366004612319565b610919565b61030061036b3660046120f0565b610934565b61027061037e36600461247b565b610941565b6102456103913660046120f0565b6109ec565b6103006103a436600461235a565b6109f7565b6103bc6103b73660046120f0565b610a28565b6040516102149190612535565b6103dc6103d73660046120f0565b610d84565b6040516102149190612634565b6102706103f73660046120f0565b610e59565b6009546001600160a01b0316610245565b61027061026b366004612668565b610225610ea0565b6102706104313660046126e4565b610eaf565b61027061044436600461271d565b610eba565b61027061026b36600461279d565b6102256104653660046120f0565b610f96565b6102706104783660046127d5565b61100b565b61020861048b366004612825565b6001600160a01b03918216600090815260056020908152604080832093909416825291909152205460ff1690565b6104cc6104c73660046121e6565b611029565b60408051928352602083019190915201610214565b6103006104ef3660046121e6565b6110af565b60006001600160e01b031982167f80ac58cd00000000000000000000000000000000000000000000000000000000148061055757506001600160e01b031982167f5b5e139f00000000000000000000000000000000000000000000000000000000145b8061058b57507f01ffc9a7000000000000000000000000000000000000000000000000000000006001600160e01b03198316145b92915050565b6060600080546105a090612853565b80601f01602080910402602001604051908101604052809291908181526020018280546105cc90612853565b80156106195780601f106105ee57610100808354040283529160200191610619565b820191906000526020600020905b8154815290600101906020018083116105fc57829003601f168201915b5050505050905090565b600061062e82611215565b506000828152600460205260409020546001600160a01b031661058b565b60405162461bcd60e51b815260206004820152600c60248201527f4e6f207574696c69747a6172000000000000000000000000000000000000000060448201526064015b60405180910390fd5b6106a482823361124e565b5050565b6000818152600f602090815260409182902080548351818402810184019094528084526060939283018282801561070857602002820191906000526020600020905b81546001600160a01b031681526001909101906020018083116106ea575b50505050509050919050565b6000816107af5760405162461bcd60e51b815260206004820152604660248201527f5f64617461206d75737420636f6e7461696e207468652075696e74323536207460448201527f6f6b656e496420746f207472616e7366657220746865206368696c6420746f6b60648201527f656e20746f2e0000000000000000000000000000000000000000000000000000608482015260a401610690565b60a43560208310156107d4576107c68360086128a3565b6107d2906101006128ba565b1c5b6107e08682338861125b565b6040517f6352211e000000000000000000000000000000000000000000000000000000008152600481018690526000903390636352211e90602401602060405180830381865afa158015610838573d6000803e3d6000fd5b505050506040513d601f19601f8201168201806040525081019061085c91906128cd565b6001600160a01b0316036108b25760405162461bcd60e51b815260206004820152601660248201527f4368696c6420746f6b656e206e6f74206f776e65642e000000000000000000006044820152606401610690565b50630a85bd0160e11b9695505050505050565b50505050565b600081815260066020526040902060019081015460ff161515146108ee57600080fd5b6000908152600660205260409020600101805460ff19169055565b610914838383611569565b505050565b61091483838360405180602001604052806000815250610eba565b600061058b6000836110af565b6008546000908152600660205260409020815182919081906109639082612931565b50602091820151600191909101805460ff19169115159190911790556008546000908152600b8252604080822080546001600160a01b0319166001600160a01b038716908117909155825260139092529081208054916109c2836129f0565b91905055506109d382600854611911565b600880549060006109e3836129f0565b91905055505050565b600061058b82611215565b60006001600160a01b038216610a0c57600080fd5b506001600160a01b031660009081526013602052604090205490565b60008181526007602052604081205460609190819067ffffffffffffffff811115610a5557610a55612377565b604051908082528060200260200182016040528015610ada57816020015b610ac7604080516060808201835260008083526020808401829052845160e081018652828152908101839052808501829052808301829052608081019290925260a0820181905260c0820152909182015290565b815260200190600190039081610a735790505b5090506000610ae8856106a8565b905060005b81518160ff161015610d7a576000868152600c6020526040812083518290859060ff8616908110610b2057610b20612a09565b60200260200101516001600160a01b03166001600160a01b03168152602001908152602001600020805480602002602001604051908101604052809291908181526020018280548015610b9257602002820191906000526020600020905b815481526020019060010190808311610b7e575b5050505050905060005b81518160ff161015610d655760006040518060600160405280868660ff1681518110610bca57610bca612a09565b60200260200101516001600160a01b03168152602001848460ff1681518110610bf557610bf5612a09565b60200260200101518152602001868660ff1681518110610c1757610c17612a09565b60200260200101516001600160a01b031663d61435db868660ff1681518110610c4257610c42612a09565b60200260200101516040518263ffffffff1660e01b8152600401610c6891815260200190565b600060405180830381865afa158015610c85573d6000803e3d6000fd5b505050506040513d6000823e601f3d908101601f19168201604052610cad9190810190612a86565b81525090508060000151868860ff1681518110610ccc57610ccc612a09565b6020026020010151600001906001600160a01b031690816001600160a01b0316815250508060200151868860ff1681518110610d0a57610d0a612a09565b602002602001015160200181815250508060400151868860ff1681518110610d3457610d34612a09565b6020026020010151604001819052508680610d4e90612b71565b975050508080610d5d90612b71565b915050610b9c565b50508080610d7290612b71565b915050610aed565b5090949350505050565b604080518082019091526060815260006020820152600082815260066020526040908190208151808301909252805482908290610dc090612853565b80601f0160208091040260200160405190810160405280929190818152602001828054610dec90612853565b8015610e395780601f10610e0e57610100808354040283529160200191610e39565b820191906000526020600020905b815481529060010190602001808311610e1c57829003601f168201915b50505091835250506001919091015460ff16151560209091015292915050565b60008181526006602052604090206001015460ff1615610e7857600080fd5b60009081526006602052604090206001908101805460ff19169091179055565b505050505050565b6060600180546105a090612853565b6106a433838361192b565b610ec5848484611569565b823b156108c557604051630a85bd0160e11b81523360048201526001600160a01b0385811660248301526044820184905260806064830152600060848301819052919085169063150b7a029060a4016020604051808303816000875af1158015610f33573d6000803e3d6000fd5b505050506040513d601f19601f82011682018060405250810190610f579190612b90565b90506001600160e01b031981167ff0b9e5ba0000000000000000000000000000000000000000000000000000000014610f8f57600080fd5b5050505050565b6060610fa182611215565b506000610fb960408051602081019091526000815290565b90506000815111610fd95760405180602001604052806000815250611004565b80610fe3846119e3565b604051602001610ff4929190612bad565b6040516020818303038152906040525b9392505050565b60408051808201909152818152600060208201526109148382610941565b6001600160a01b0382166000908152600e602090815260408083208484529091528120548015158061108457506000818152600d602090815260408083206001600160a01b0388168452825280832086845290915290205415155b61108d57600080fd5b6000818152600b60205260409020546001600160a01b031691505b9250929050565b6000806001600160a01b038416156110d4576110cb8484611029565b935090506110ee565b506000828152600b60205260409020546001600160a01b03165b306001600160a01b03821603611108576110cb8184611029565b60408051306024820152604480820186905282518083039091018152606490910182526020810180517bffffffffffffffffffffffffffffffffffffffffffffffffffffffff166376c0e6ed60e11b179052905160009182916001600160a01b0385169161117591612bdc565b600060405180830381855afa9150503d80600081146111b0576040519150601f19603f3d011682016040523d82523d6000602084013e6111b5565b606091505b509150915080516000146111da57808060200190518101906111d79190612bf8565b93505b60018215151480156111f6575060e084901c63cd740db560e01b145b156112035750505061058b565b50506001600160a01b0316905061058b565b6000818152600260205260408120546001600160a01b03168061058b57604051637e27328960e01b815260048101849052602401610690565b6109148383836001611a83565b600083815260066020526040902060019081015460ff161515146112e75760405162461bcd60e51b815260206004820152602660248201527f4e6f207465207065726d69732070657220616363656469722061206c6120636160448201527f7274696c6c6100000000000000000000000000000000000000000000000000006064820152608401610690565b6000838152600b60205260409020546001600160a01b031661134b5760405162461bcd60e51b815260206004820152601860248201527f4c612063617274696c6c61206e6f2065786973746569782e00000000000000006044820152606401610690565b6000838152600d602090815260408083206001600160a01b03861684528252808320848452909152902054156113e95760405162461bcd60e51b815260206004820152602560248201527f46696c6c206a61206578697374656e742070657220656c207061726520696e6460448201527f696361742e0000000000000000000000000000000000000000000000000000006064820152608401610690565b6000838152600c602090815260408083206001600160a01b038616845290915281205490819003611464576000848152600f602081815260408084208054601084528286206001600160a01b038a16808852908552928620819055938352600184018155845292200180546001600160a01b03191690911790555b6000848152600c602090815260408083206001600160a01b03871684528252822080546001818101835591845291909220018390556114a4908290612c11565b6000858152600d602090815260408083206001600160a01b038816808552908352818420878552835281842094909455928252600e815282822085835281528282208790558682526007905220546114fd906001612c11565b6007600086815260200190815260200160002081905550826001600160a01b031684866001600160a01b03167f0371ddf2288ad1ba92626a7e31c86a9d006e592cfe57d7d946ef08b13457c08b8560405161155a91815260200190565b60405180910390a45050505050565b6001600160a01b03831661157c57600080fd5b6000818152600b60205260409020546001600160a01b038481169116146115a257600080fd5b6001600160a01b0382166115b557600080fd5b336001600160a01b038416146117955760408051306024820152604480820184905282518083039091018152606490910182526020810180517bffffffffffffffffffffffffffffffffffffffffffffffffffffffff166376c0e6ed60e11b179052905160009182916001600160a01b0387169161163291612bdc565b600060405180830381855afa9150503d806000811461166d576040519150601f19603f3d011682016040523d82523d6000602084013e611672565b606091505b509150915060008180602001905181019061168d9190612bf8565b9050821515600103611732577f328bf24b0000000000000000000000000000000000000000000000000000000060e082901c016117325760405162461bcd60e51b815260206004820152603460248201527f43617274696c6c6120546f6b656e206973206368696c64206f66206f7468657260448201527f20746f7020646f776e20636f6d706f7361626c650000000000000000000000006064820152608401610690565b6001600160a01b038616600090815260116020908152604080832033845290915290205460ff168061178857506001600160a01b0386811660009081526012602090815260408083208884529091529020541633145b61179157600080fd5b5050505b6001600160a01b038381166000908152601260209081526040808320858452909152902054161561181c576001600160a01b038316600081815260126020908152604080832085845290915280822080546001600160a01b0319169055518392907f8c5be1e5ebec7d5bd14f71427d1e84f3dd0314c0f7b2291e5b200ac8c7c3b925908390a45b816001600160a01b0316836001600160a01b0316146118cb576001600160a01b03831660009081526013602052604090205461185a5761185a612c24565b6001600160a01b038316600090815260136020526040812080549161187e83612c3a565b90915550506000818152600b6020908152604080832080546001600160a01b0319166001600160a01b0387169081179091558352601390915281208054916118c5836129f0565b91905055505b80826001600160a01b0316846001600160a01b03167fddf252ad1be2c89b69c2b068fc378daa952ba7f163c4a11628f55a4df523b3ef60405160405180910390a4505050565b6106a4828260405180602001604052806000815250611bc1565b6001600160a01b038216611976576040517f5b08ba180000000000000000000000000000000000000000000000000000000081526001600160a01b0383166004820152602401610690565b6001600160a01b03838116600081815260056020908152604080832094871680845294825291829020805460ff191686151590811790915591519182527f17307eab39ab6107e8899845ad3d59bd9653f200f220920489ca2b5937696c31910160405180910390a3505050565b606060006119f083611bd9565b600101905060008167ffffffffffffffff811115611a1057611a10612377565b6040519080825280601f01601f191660200182016040528015611a3a576020820181803683370190505b5090508181016020015b600019017f3031323334353637383961626364656600000000000000000000000000000000600a86061a8153600a8504945084611a4457509392505050565b8080611a9757506001600160a01b03821615155b15611b91576000611aa784611215565b90506001600160a01b03831615801590611ad35750826001600160a01b0316816001600160a01b031614155b8015611b0557506001600160a01b0380821660009081526005602090815260408083209387168352929052205460ff16155b15611b47576040517fa9fbf51f0000000000000000000000000000000000000000000000000000000081526001600160a01b0384166004820152602401610690565b8115611b8f5783856001600160a01b0316826001600160a01b03167f8c5be1e5ebec7d5bd14f71427d1e84f3dd0314c0f7b2291e5b200ac8c7c3b92560405160405180910390a45b505b5050600090815260046020526040902080546001600160a01b0319166001600160a01b0392909216919091179055565b611bcb8383611cbb565b610914336000858585611d39565b6000807a184f03e93ff9f4daa797ed6e38ed64bf6a1f0100000000000000008310611c22577a184f03e93ff9f4daa797ed6e38ed64bf6a1f010000000000000000830492506040015b6d04ee2d6d415b85acef81000000008310611c4e576d04ee2d6d415b85acef8100000000830492506020015b662386f26fc100008310611c6c57662386f26fc10000830492506010015b6305f5e1008310611c84576305f5e100830492506008015b6127108310611c9857612710830492506004015b60648310611caa576064830492506002015b600a831061058b5760010192915050565b6001600160a01b038216611ce557604051633250574960e11b815260006004820152602401610690565b6000611cf383836000611e5b565b90506001600160a01b03811615610914576040517f73c6ac6e00000000000000000000000000000000000000000000000000000000815260006004820152602401610690565b6001600160a01b0383163b15610f8f57604051630a85bd0160e11b81526001600160a01b0384169063150b7a0290611d7b908890889087908790600401612c51565b6020604051808303816000875af1925050508015611db6575060408051601f3d908101601f19168201909252611db391810190612b90565b60015b611e1f573d808015611de4576040519150601f19603f3d011682016040523d82523d6000602084013e611de9565b606091505b508051600003611e1757604051633250574960e11b81526001600160a01b0385166004820152602401610690565b805181602001fd5b6001600160e01b03198116630a85bd0160e11b14610e9857604051633250574960e11b81526001600160a01b0385166004820152602401610690565b6000828152600260205260408120546001600160a01b0390811690831615611e8857611e88818486611f54565b6001600160a01b03811615611ec657611ea5600085600080611a83565b6001600160a01b038116600090815260036020526040902080546000190190555b6001600160a01b03851615611ef5576001600160a01b0385166000908152600360205260409020805460010190555b60008481526002602052604080822080546001600160a01b0319166001600160a01b0389811691821790925591518793918516917fddf252ad1be2c89b69c2b068fc378daa952ba7f163c4a11628f55a4df523b3ef91a4949350505050565b611f5f838383611fd1565b610914576001600160a01b038316611f8d57604051637e27328960e01b815260048101829052602401610690565b6040517f177e802f0000000000000000000000000000000000000000000000000000000081526001600160a01b038316600482015260248101829052604401610690565b60006001600160a01b0383161580159061204f5750826001600160a01b0316846001600160a01b0316148061202b57506001600160a01b0380851660009081526005602090815260408083209387168352929052205460ff165b8061204f57506000828152600460205260409020546001600160a01b038481169116145b949350505050565b6001600160e01b03198116811461206d57600080fd5b50565b60006020828403121561208257600080fd5b813561100481612057565b60005b838110156120a8578181015183820152602001612090565b50506000910152565b600081518084526120c981602086016020860161208d565b601f01601f19169290920160200192915050565b60208152600061100460208301846120b1565b60006020828403121561210257600080fd5b5035919050565b6001600160a01b038116811461206d57600080fd5b60008083601f84011261213057600080fd5b50813567ffffffffffffffff81111561214857600080fd5b6020830191508360208285010111156110a857600080fd5b600080600080600080600060c0888a03121561217b57600080fd5b87359650602088013561218d81612109565b95506040880135945060608801356121a481612109565b93506080880135925060a088013567ffffffffffffffff8111156121c757600080fd5b6121d38a828b0161211e565b989b979a50959850939692959293505050565b600080604083850312156121f957600080fd5b823561220481612109565b946020939093013593505050565b602080825282518282018190526000918401906040840190835b818110156122535783516001600160a01b031683526020938401939092019160010161222c565b509095945050505050565b60008060008060006080868803121561227657600080fd5b853561228181612109565b9450602086013561229181612109565b935060408601359250606086013567ffffffffffffffff8111156122b457600080fd5b6122c08882890161211e565b969995985093965092949392505050565b600080600080608085870312156122e757600080fd5b8435935060208501356122f981612109565b9250604085013561230981612109565b9396929550929360600135925050565b60008060006060848603121561232e57600080fd5b833561233981612109565b9250602084013561234981612109565b929592945050506040919091013590565b60006020828403121561236c57600080fd5b813561100481612109565b634e487b7160e01b600052604160045260246000fd5b60405160e0810167ffffffffffffffff811182821017156123b0576123b0612377565b60405290565b604051601f8201601f1916810167ffffffffffffffff811182821017156123df576123df612377565b604052919050565b600067ffffffffffffffff82111561240157612401612377565b50601f01601f191660200190565b600061242261241d846123e7565b6123b6565b905082815283838301111561243657600080fd5b828260208301376000602084830101529392505050565b600082601f83011261245e57600080fd5b6110048383356020850161240f565b801515811461206d57600080fd5b6000806040838503121561248e57600080fd5b823561249981612109565b9150602083013567ffffffffffffffff8111156124b557600080fd5b8301604081860312156124c757600080fd5b6040805190810167ffffffffffffffff811182821017156124ea576124ea612377565b604052813567ffffffffffffffff81111561250457600080fd5b6125108782850161244d565b825250602082013591506125238261246d565b81602082015280925050509250929050565b6000602082016020835280845180835260408501915060408160051b86010192506020860160005b8281101561262857603f1987860301845281516001600160a01b03815116865260208101516020870152604081015190506060604087015280516060870152602081015160e060808801526125b66101408801826120b1565b90506040820151151560a0880152606082015160010b60c08801526080820151605f198883030160e08901526125ec82826120b1565b91505060a0820151151561010088015260c0820151915061261261012088018315159052565b955050602093840193919091019060010161255d565b50929695505050505050565b60208152600082516040602084015261265060608401826120b1565b90506020840151151560408401528091505092915050565b60008060008060008060a0878903121561268157600080fd5b86359550602087013561269381612109565b945060408701356126a381612109565b935060608701359250608087013567ffffffffffffffff8111156126c657600080fd5b6126d289828a0161211e565b979a9699509497509295939492505050565b600080604083850312156126f757600080fd5b823561270281612109565b915060208301356127128161246d565b809150509250929050565b6000806000806080858703121561273357600080fd5b843561273e81612109565b9350602085013561274e81612109565b925060408501359150606085013567ffffffffffffffff81111561277157600080fd5b8501601f8101871361278257600080fd5b6127918782356020840161240f565b91505092959194509250565b600080600080608085870312156127b357600080fd5b84356127be81612109565b935060208501359250604085013561230981612109565b600080604083850312156127e857600080fd5b82356127f381612109565b9150602083013567ffffffffffffffff81111561280f57600080fd5b61281b8582860161244d565b9150509250929050565b6000806040838503121561283857600080fd5b823561284381612109565b9150602083013561271281612109565b600181811c9082168061286757607f821691505b60208210810361288757634e487b7160e01b600052602260045260246000fd5b50919050565b634e487b7160e01b600052601160045260246000fd5b808202811582820484141761058b5761058b61288d565b8181038181111561058b5761058b61288d565b6000602082840312156128df57600080fd5b815161100481612109565b601f82111561091457806000526020600020601f840160051c810160208510156129115750805b601f840160051c820191505b81811015610f8f576000815560010161291d565b815167ffffffffffffffff81111561294b5761294b612377565b61295f816129598454612853565b846128ea565b6020601f821160018114612993576000831561297b5750848201515b600019600385901b1c1916600184901b178455610f8f565b600084815260208120601f198516915b828110156129c357878501518255602094850194600190920191016129a3565b50848210156129e15786840151600019600387901b60f8161c191681555b50505050600190811b01905550565b600060018201612a0257612a0261288d565b5060010190565b634e487b7160e01b600052603260045260246000fd5b600082601f830112612a3057600080fd5b8151612a3e61241d826123e7565b818152846020838601011115612a5357600080fd5b61204f82602083016020870161208d565b8051612a6f8161246d565b919050565b8051600181900b8114612a6f57600080fd5b600060208284031215612a9857600080fd5b815167ffffffffffffffff811115612aaf57600080fd5b820160e08185031215612ac157600080fd5b612ac961238d565b81518152602082015167ffffffffffffffff811115612ae757600080fd5b612af386828501612a1f565b602083015250612b0560408301612a64565b6040820152612b1660608301612a74565b6060820152608082015167ffffffffffffffff811115612b3557600080fd5b612b4186828501612a1f565b608083015250612b5360a08301612a64565b60a0820152612b6460c08301612a64565b60c0820152949350505050565b600060ff821660ff8103612b8757612b8761288d565b60010192915050565b600060208284031215612ba257600080fd5b815161100481612057565b60008351612bbf81846020880161208d565b835190830190612bd381836020880161208d565b01949350505050565b60008251612bee81846020870161208d565b9190910192915050565b600060208284031215612c0a57600080fd5b5051919050565b8082018082111561058b5761058b61288d565b634e487b7160e01b600052600160045260246000fd5b600081612c4957612c4961288d565b506000190190565b6001600160a01b03851681526001600160a01b0384166020820152826040820152608060608201526000612c8860808301846120b1565b969550505050505056fea2646970667358221220654483cd57001b0240155c9195b8b83698d8f6fe35cd108a0e01166a9328a41d64736f6c634300081c0033",
  "linkReferences": {},
  "deployedLinkReferences": {}
}