{
  "_format": "hh-sol-artifact-1",
  "contractName": "LotTK",
  "sourceName": "contracts/LotTK.sol",
  "abi": [
    {
      "inputs": [],
      "stateMutability": "nonpayable",
      "type": "constructor"
    },
    {
      "inputs": [
        {
          "internalType": "address",
          "name": "sender",
          "type": "address"
        },
        {
          "internalType": "uint256",
          "name": "tokenId",
          "type": "uint256"
        },
        {
          "internalType": "address",
          "name": "owner",
          "type": "address"
        }
      ],
      "name": "ERC721IncorrectOwner",
      "type": "error"
    },
    {
      "inputs": [
        {
          "internalType": "address",
          "name": "operator",
          "type": "address"
        },
        {
          "internalType": "uint256",
          "name": "tokenId",
          "type": "uint256"
        }
      ],
      "name": "ERC721InsufficientApproval",
      "type": "error"
    },
    {
      "inputs": [
        {
          "internalType": "address",
          "name": "approver",
          "type": "address"
        }
      ],
      "name": "ERC721InvalidApprover",
      "type": "error"
    },
    {
      "inputs": [
        {
          "internalType": "address",
          "name": "operator",
          "type": "address"
        }
      ],
      "name": "ERC721InvalidOperator",
      "type": "error"
    },
    {
      "inputs": [
        {
          "internalType": "address",
          "name": "owner",
          "type": "address"
        }
      ],
      "name": "ERC721InvalidOwner",
      "type": "error"
    },
    {
      "inputs": [
        {
          "internalType": "address",
          "name": "receiver",
          "type": "address"
        }
      ],
      "name": "ERC721InvalidReceiver",
      "type": "error"
    },
    {
      "inputs": [
        {
          "internalType": "address",
          "name": "sender",
          "type": "address"
        }
      ],
      "name": "ERC721InvalidSender",
      "type": "error"
    },
    {
      "inputs": [
        {
          "internalType": "uint256",
          "name": "tokenId",
          "type": "uint256"
        }
      ],
      "name": "ERC721NonexistentToken",
      "type": "error"
    },
    {
      "anonymous": false,
      "inputs": [
        {
          "indexed": true,
          "internalType": "address",
          "name": "owner",
          "type": "address"
        },
        {
          "indexed": true,
          "internalType": "address",
          "name": "approved",
          "type": "address"
        },
        {
          "indexed": true,
          "internalType": "uint256",
          "name": "tokenId",
          "type": "uint256"
        }
      ],
      "name": "Approval",
      "type": "event"
    },
    {
      "anonymous": false,
      "inputs": [
        {
          "indexed": true,
          "internalType": "address",
          "name": "owner",
          "type": "address"
        },
        {
          "indexed": true,
          "internalType": "address",
          "name": "operator",
          "type": "address"
        },
        {
          "indexed": false,
          "internalType": "bool",
          "name": "approved",
          "type": "bool"
        }
      ],
      "name": "ApprovalForAll",
      "type": "event"
    },
    {
      "anonymous": false,
      "inputs": [
        {
          "indexed": true,
          "internalType": "address",
          "name": "_from",
          "type": "address"
        },
        {
          "indexed": true,
          "internalType": "uint256",
          "name": "_tokenId",
          "type": "uint256"
        },
        {
          "indexed": true,
          "internalType": "address",
          "name": "_childContract",
          "type": "address"
        },
        {
          "indexed": false,
          "internalType": "uint256",
          "name": "_childTokenId",
          "type": "uint256"
        }
      ],
      "name": "ReceivedChild",
      "type": "event"
    },
    {
      "anonymous": false,
      "inputs": [
        {
          "indexed": true,
          "internalType": "address",
          "name": "from",
          "type": "address"
        },
        {
          "indexed": true,
          "internalType": "address",
          "name": "to",
          "type": "address"
        },
        {
          "indexed": true,
          "internalType": "uint256",
          "name": "tokenId",
          "type": "uint256"
        }
      ],
      "name": "Transfer",
      "type": "event"
    },
    {
      "anonymous": false,
      "inputs": [
        {
          "indexed": true,
          "internalType": "uint256",
          "name": "tokenId",
          "type": "uint256"
        },
        {
          "indexed": true,
          "internalType": "address",
          "name": "_to",
          "type": "address"
        },
        {
          "indexed": true,
          "internalType": "address",
          "name": "_childContract",
          "type": "address"
        },
        {
          "indexed": false,
          "internalType": "uint256",
          "name": "_childTokenId",
          "type": "uint256"
        }
      ],
      "name": "TransferChild",
      "type": "event"
    },
    {
      "inputs": [],
      "name": "ERC998_MAGIC_VALUE",
      "outputs": [
        {
          "internalType": "bytes32",
          "name": "",
          "type": "bytes32"
        }
      ],
      "stateMutability": "view",
      "type": "function"
    },
    {
      "inputs": [
        {
          "internalType": "address",
          "name": "to",
          "type": "address"
        },
        {
          "internalType": "uint256",
          "name": "tokenId",
          "type": "uint256"
        }
      ],
      "name": "approve",
      "outputs": [],
      "stateMutability": "nonpayable",
      "type": "function"
    },
    {
      "inputs": [
        {
          "internalType": "address",
          "name": "owner",
          "type": "address"
        }
      ],
      "name": "balanceOf",
      "outputs": [
        {
          "internalType": "uint256",
          "name": "",
          "type": "uint256"
        }
      ],
      "stateMutability": "view",
      "type": "function"
    },
    {
      "inputs": [
        {
          "internalType": "uint256",
          "name": "tokenId",
          "type": "uint256"
        }
      ],
      "name": "getApproved",
      "outputs": [
        {
          "internalType": "address",
          "name": "",
          "type": "address"
        }
      ],
      "stateMutability": "view",
      "type": "function"
    },
    {
      "inputs": [
        {
          "internalType": "address",
          "name": "_from",
          "type": "address"
        },
        {
          "internalType": "uint256",
          "name": "_tokenId",
          "type": "uint256"
        },
        {
          "internalType": "address",
          "name": "_childContract",
          "type": "address"
        },
        {
          "internalType": "uint256",
          "name": "_childTokenId",
          "type": "uint256"
        }
      ],
      "name": "getChild",
      "outputs": [],
      "stateMutability": "nonpayable",
      "type": "function"
    },
    {
      "inputs": [
        {
          "internalType": "uint256",
          "name": "_tokenId",
          "type": "uint256"
        }
      ],
      "name": "getChildContracts",
      "outputs": [
        {
          "internalType": "address[]",
          "name": "",
          "type": "address[]"
        }
      ],
      "stateMutability": "view",
      "type": "function"
    },
    {
      "inputs": [
        {
          "internalType": "uint256",
          "name": "_idToken",
          "type": "uint256"
        }
      ],
      "name": "getDadesLot",
      "outputs": [
        {
          "components": [
            {
              "internalType": "uint256",
              "name": "idToken",
              "type": "uint256"
            },
            {
              "internalType": "string",
              "name": "idLot",
              "type": "string"
            },
            {
              "internalType": "string",
              "name": "fabricant",
              "type": "string"
            },
            {
              "internalType": "string",
              "name": "nomLot",
              "type": "string"
            },
            {
              "internalType": "string",
              "name": "dataFabricacio",
              "type": "string"
            },
            {
              "internalType": "bool",
              "name": "lotTancat",
              "type": "bool"
            }
          ],
          "internalType": "struct LotTK.Lot",
          "name": "",
          "type": "tuple"
        }
      ],
      "stateMutability": "view",
      "type": "function"
    },
    {
      "inputs": [
        {
          "internalType": "uint256",
          "name": "_idParentToken",
          "type": "uint256"
        }
      ],
      "name": "getDadesVacunesLot",
      "outputs": [
        {
          "components": [
            {
              "internalType": "address",
              "name": "contracteVacuna",
              "type": "address"
            },
            {
              "internalType": "uint256",
              "name": "idVacunaToken",
              "type": "uint256"
            },
            {
              "components": [
                {
                  "internalType": "uint256",
                  "name": "idToken",
                  "type": "uint256"
                },
                {
                  "internalType": "string",
                  "name": "idVacuna",
                  "type": "string"
                },
                {
                  "internalType": "bool",
                  "name": "termolabil",
                  "type": "bool"
                },
                {
                  "internalType": "int16",
                  "name": "tempConservacio",
                  "type": "int16"
                },
                {
                  "internalType": "string",
                  "name": "dataCaducitat",
                  "type": "string"
                },
                {
                  "internalType": "bool",
                  "name": "asignadaLot",
                  "type": "bool"
                },
                {
                  "internalType": "bool",
                  "name": "administrada",
                  "type": "bool"
                }
              ],
              "internalType": "struct VacunaTK.Vacuna",
              "name": "vacuna",
              "type": "tuple"
            }
          ],
          "internalType": "struct LotTK.DadesVacunaLot[]",
          "name": "",
          "type": "tuple[]"
        }
      ],
      "stateMutability": "view",
      "type": "function"
    },
    {
      "inputs": [
        {
          "internalType": "address",
          "name": "_creadorLot",
          "type": "address"
        }
      ],
      "name": "getLotsEmpresa",
      "outputs": [
        {
          "components": [
            {
              "internalType": "uint256",
              "name": "idToken",
              "type": "uint256"
            },
            {
              "internalType": "string",
              "name": "idLot",
              "type": "string"
            },
            {
              "internalType": "string",
              "name": "fabricant",
              "type": "string"
            },
            {
              "internalType": "string",
              "name": "nomLot",
              "type": "string"
            },
            {
              "internalType": "string",
              "name": "dataFabricacio",
              "type": "string"
            },
            {
              "internalType": "bool",
              "name": "lotTancat",
              "type": "bool"
            }
          ],
          "internalType": "struct LotTK.Lot[]",
          "name": "",
          "type": "tuple[]"
        }
      ],
      "stateMutability": "view",
      "type": "function"
    },
    {
      "inputs": [],
      "name": "getOwner",
      "outputs": [
        {
          "internalType": "address",
          "name": "",
          "type": "address"
        }
      ],
      "stateMutability": "view",
      "type": "function"
    },
    {
      "inputs": [
        {
          "internalType": "address",
          "name": "owner",
          "type": "address"
        },
        {
          "internalType": "address",
          "name": "operator",
          "type": "address"
        }
      ],
      "name": "isApprovedForAll",
      "outputs": [
        {
          "internalType": "bool",
          "name": "",
          "type": "bool"
        }
      ],
      "stateMutability": "view",
      "type": "function"
    },
    {
      "inputs": [
        {
          "internalType": "address",
          "name": "to",
          "type": "address"
        },
        {
          "internalType": "string",
          "name": "_idLot",
          "type": "string"
        },
        {
          "internalType": "string",
          "name": "_fabricant",
          "type": "string"
        },
        {
          "internalType": "string",
          "name": "_nomLot",
          "type": "string"
        },
        {
          "internalType": "string",
          "name": "_dataFabricacio",
          "type": "string"
        }
      ],
      "name": "mint",
      "outputs": [],
      "stateMutability": "nonpayable",
      "type": "function"
    },
    {
      "inputs": [],
      "name": "name",
      "outputs": [
        {
          "internalType": "string",
          "name": "",
          "type": "string"
        }
      ],
      "stateMutability": "view",
      "type": "function"
    },
    {
      "inputs": [
        {
          "internalType": "address",
          "name": "_operator",
          "type": "address"
        },
        {
          "internalType": "address",
          "name": "_from",
          "type": "address"
        },
        {
          "internalType": "uint256",
          "name": "_childTokenId",
          "type": "uint256"
        },
        {
          "internalType": "bytes",
          "name": "_data",
          "type": "bytes"
        }
      ],
      "name": "onERC721Received",
      "outputs": [
        {
          "internalType": "bytes4",
          "name": "",
          "type": "bytes4"
        }
      ],
      "stateMutability": "nonpayable",
      "type": "function"
    },
    {
      "inputs": [
        {
          "internalType": "uint256",
          "name": "tokenId",
          "type": "uint256"
        }
      ],
      "name": "ownerOf",
      "outputs": [
        {
          "internalType": "address",
          "name": "",
          "type": "address"
        }
      ],
      "stateMutability": "view",
      "type": "function"
    },
    {
      "inputs": [
        {
          "internalType": "address",
          "name": "_childContract",
          "type": "address"
        },
        {
          "internalType": "uint256",
          "name": "_childTokenId",
          "type": "uint256"
        }
      ],
      "name": "ownerOfChild",
      "outputs": [
        {
          "internalType": "bytes32",
          "name": "parentTokenOwner",
          "type": "bytes32"
        },
        {
          "internalType": "uint256",
          "name": "parentTokenId",
          "type": "uint256"
        }
      ],
      "stateMutability": "view",
      "type": "function"
    },
    {
      "inputs": [
        {
          "internalType": "uint256",
          "name": "_tokenId",
          "type": "uint256"
        }
      ],
      "name": "rootOwnerOf",
      "outputs": [
        {
          "internalType": "bytes32",
          "name": "rootOwner",
          "type": "bytes32"
        }
      ],
      "stateMutability": "view",
      "type": "function"
    },
    {
      "inputs": [
        {
          "internalType": "address",
          "name": "_childContract",
          "type": "address"
        },
        {
          "internalType": "uint256",
          "name": "_childTokenId",
          "type": "uint256"
        }
      ],
      "name": "rootOwnerOfChild",
      "outputs": [
        {
          "internalType": "bytes32",
          "name": "rootOwner",
          "type": "bytes32"
        }
      ],
      "stateMutability": "view",
      "type": "function"
    },
    {
      "inputs": [
        {
          "internalType": "address",
          "name": "to",
          "type": "address"
        },
        {
          "components": [
            {
              "internalType": "uint256",
              "name": "idToken",
              "type": "uint256"
            },
            {
              "internalType": "string",
              "name": "idLot",
              "type": "string"
            },
            {
              "internalType": "string",
              "name": "fabricant",
              "type": "string"
            },
            {
              "internalType": "string",
              "name": "nomLot",
              "type": "string"
            },
            {
              "internalType": "string",
              "name": "dataFabricacio",
              "type": "string"
            },
            {
              "internalType": "bool",
              "name": "lotTancat",
              "type": "bool"
            }
          ],
          "internalType": "struct LotTK.Lot",
          "name": "_newLot",
          "type": "tuple"
        }
      ],
      "name": "safeMint",
      "outputs": [],
      "stateMutability": "nonpayable",
      "type": "function"
    },
    {
      "inputs": [
        {
          "internalType": "uint256",
          "name": "_fromTokenId",
          "type": "uint256"
        },
        {
          "internalType": "address",
          "name": "_to",
          "type": "address"
        },
        {
          "internalType": "address",
          "name": "_childContract",
          "type": "address"
        },
        {
          "internalType": "uint256",
          "name": "_childTokenId",
          "type": "uint256"
        }
      ],
      "name": "safeTransferChild",
      "outputs": [],
      "stateMutability": "nonpayable",
      "type": "function"
    },
    {
      "inputs": [
        {
          "internalType": "uint256",
          "name": "_fromTokenId",
          "type": "uint256"
        },
        {
          "internalType": "address",
          "name": "_to",
          "type": "address"
        },
        {
          "internalType": "address",
          "name": "_childContract",
          "type": "address"
        },
        {
          "internalType": "uint256",
          "name": "_childTokenId",
          "type": "uint256"
        },
        {
          "internalType": "bytes",
          "name": "_data",
          "type": "bytes"
        }
      ],
      "name": "safeTransferChild",
      "outputs": [],
      "stateMutability": "nonpayable",
      "type": "function"
    },
    {
      "inputs": [
        {
          "internalType": "address",
          "name": "from",
          "type": "address"
        },
        {
          "internalType": "address",
          "name": "to",
          "type": "address"
        },
        {
          "internalType": "uint256",
          "name": "tokenId",
          "type": "uint256"
        }
      ],
      "name": "safeTransferFrom",
      "outputs": [],
      "stateMutability": "nonpayable",
      "type": "function"
    },
    {
      "inputs": [
        {
          "internalType": "address",
          "name": "_from",
          "type": "address"
        },
        {
          "internalType": "address",
          "name": "_to",
          "type": "address"
        },
        {
          "internalType": "uint256",
          "name": "_tokenId",
          "type": "uint256"
        },
        {
          "internalType": "bytes",
          "name": "_data",
          "type": "bytes"
        }
      ],
      "name": "safeTransferFrom",
      "outputs": [],
      "stateMutability": "nonpayable",
      "type": "function"
    },
    {
      "inputs": [
        {
          "internalType": "address",
          "name": "_operator",
          "type": "address"
        },
        {
          "internalType": "bool",
          "name": "_approved",
          "type": "bool"
        }
      ],
      "name": "setApprovalForAll",
      "outputs": [],
      "stateMutability": "nonpayable",
      "type": "function"
    },
    {
      "inputs": [
        {
          "internalType": "bytes4",
          "name": "interfaceId",
          "type": "bytes4"
        }
      ],
      "name": "supportsInterface",
      "outputs": [
        {
          "internalType": "bool",
          "name": "",
          "type": "bool"
        }
      ],
      "stateMutability": "view",
      "type": "function"
    },
    {
      "inputs": [],
      "name": "symbol",
      "outputs": [
        {
          "internalType": "string",
          "name": "",
          "type": "string"
        }
      ],
      "stateMutability": "view",
      "type": "function"
    },
    {
      "inputs": [
        {
          "internalType": "uint256",
          "name": "tokenId",
          "type": "uint256"
        }
      ],
      "name": "tokenURI",
      "outputs": [
        {
          "internalType": "string",
          "name": "",
          "type": "string"
        }
      ],
      "stateMutability": "view",
      "type": "function"
    },
    {
      "inputs": [
        {
          "internalType": "uint256",
          "name": "_fromTokenId",
          "type": "uint256"
        },
        {
          "internalType": "address",
          "name": "_to",
          "type": "address"
        },
        {
          "internalType": "address",
          "name": "_childContract",
          "type": "address"
        },
        {
          "internalType": "uint256",
          "name": "_childTokenId",
          "type": "uint256"
        }
      ],
      "name": "transferChild",
      "outputs": [],
      "stateMutability": "nonpayable",
      "type": "function"
    },
    {
      "inputs": [
        {
          "internalType": "uint256",
          "name": "_fromTokenId",
          "type": "uint256"
        },
        {
          "internalType": "address",
          "name": "_toContract",
          "type": "address"
        },
        {
          "internalType": "uint256",
          "name": "_toTokenId",
          "type": "uint256"
        },
        {
          "internalType": "address",
          "name": "_childContract",
          "type": "address"
        },
        {
          "internalType": "uint256",
          "name": "_childTokenId",
          "type": "uint256"
        },
        {
          "internalType": "bytes",
          "name": "_data",
          "type": "bytes"
        }
      ],
      "name": "transferChildToParent",
      "outputs": [],
      "stateMutability": "nonpayable",
      "type": "function"
    },
    {
      "inputs": [
        {
          "internalType": "address",
          "name": "_from",
          "type": "address"
        },
        {
          "internalType": "address",
          "name": "_to",
          "type": "address"
        },
        {
          "internalType": "uint256",
          "name": "_tokenId",
          "type": "uint256"
        }
      ],
      "name": "transferFrom",
      "outputs": [],
      "stateMutability": "nonpayable",
      "type": "function"
    }
  ],
  "bytecode": "0x6080604052600060095534801561001557600080fd5b50604051806040016040528060068152602001654c6f7465544b60d01b815250604051806040016040528060038152602001624c544b60e81b81525081600090816100609190610114565b50600161006d8282610114565b5050506101d2565b634e487b7160e01b600052604160045260246000fd5b600181811c9082168061009f57607f821691505b6020821081036100bf57634e487b7160e01b600052602260045260246000fd5b50919050565b601f82111561010f57806000526020600020601f840160051c810160208510156100ec5750805b601f840160051c820191505b8181101561010c57600081556001016100f8565b50505b505050565b81516001600160401b0381111561012d5761012d610075565b6101418161013b845461008b565b846100c5565b6020601f821160018114610175576000831561015d5750848201515b600019600385901b1c1916600184901b17845561010c565b600084815260208120601f198516915b828110156101a55787850151825560209485019460019092019101610185565b50848210156101c35786840151600019600387901b60f8161c191681555b50505050600190811b01905550565b61388f806101e16000396000f3fe608060405234801561001057600080fd5b50600436106101da5760003560e01c806388fcef4011610104578063a40d1b10116100a2578063c87b56dd11610071578063c87b56dd14610425578063e985e9c514610438578063eadb80b814610474578063ed81cdda1461049c57600080fd5b8063a40d1b10146103f1578063b88d4fde14610404578063ba6b5f9614610417578063bef44f18146102b657600080fd5b806395d89b41116100de57806395d89b41146103a357806399a4d8a3146103ab5780639f144ac8146103cb578063a22cb465146103de57600080fd5b806388fcef401461035f578063893d20e81461037f5780638d81f51e1461039057600080fd5b80631d98f3c51161017c57806342842e0e1161014b57806342842e0e1461031357806343a61a8e146103265780636352211e1461033957806370a082311461034c57600080fd5b80631d98f3c5146102b657806322ab2e6f146102c457806323b872dd146102e0578063381e9080146102f357600080fd5b806308937f62116101b857806308937f6214610247578063095ea7b31461025757806311bd66611461026a578063150b7a021461028a57600080fd5b806301ffc9a7146101df57806306fdde0314610207578063081812fc1461021c575b600080fd5b6101f26101ed366004612a08565b6104af565b60405190151581526020015b60405180910390f35b61020f61054c565b6040516101fe9190612a75565b61022f61022a366004612a88565b6105de565b6040516001600160a01b0390911681526020016101fe565b6102556101da366004612af8565b005b610255610265366004612b7e565b610610565b61027d610278366004612a88565b61061f565b6040516101fe9190612baa565b61029d610298366004612bf6565b61068b565b6040516001600160e01b031990911681526020016101fe565b6102556101da366004612c69565b6102d263cd740db560e01b81565b6040519081526020016101fe565b6102556102ee366004612cb1565b6107fb565b610306610301366004612a88565b61080b565b6040516101fe9190612d77565b610255610321366004612cb1565b610acd565b6102d2610334366004612a88565b610ae8565b61022f610347366004612a88565b610af5565b6102d261035a366004612d8a565b610b00565b61037261036d366004612d8a565b610b61565b6040516101fe9190612da7565b600a546001600160a01b031661022f565b61025561039e366004612e0c565b610e3a565b61020f61101e565b6103be6103b9366004612a88565b61102d565b6040516101fe9190612e88565b6102556103d93660046130b2565b611389565b6102556103ec3660046131d7565b611468565b6102556103ff366004613210565b6114e7565b6102556104123660046132e3565b6115de565b6102556101da366004613363565b61020f610433366004612a88565b6116c2565b6101f261044636600461339b565b6001600160a01b03918216600090815260056020908152604080832093909416825291909152205460ff1690565b610487610482366004612b7e565b611737565b604080519283526020830191909152016101fe565b6102d26104aa366004612b7e565b6117bd565b60006001600160e01b031982167f80ac58cd00000000000000000000000000000000000000000000000000000000148061051257506001600160e01b031982167f5b5e139f00000000000000000000000000000000000000000000000000000000145b8061054657507f01ffc9a7000000000000000000000000000000000000000000000000000000006001600160e01b03198316145b92915050565b60606000805461055b906133c9565b80601f0160208091040260200160405190810160405280929190818152602001828054610587906133c9565b80156105d45780601f106105a9576101008083540402835291602001916105d4565b820191906000526020600020905b8154815290600101906020018083116105b757829003601f168201915b5050505050905090565b60006105e982611923565b506000828152600460205260409020546001600160a01b0316610546565b50505050505050565b61061b82823361195c565b5050565b60008181526010602090815260409182902080548351818402810184019094528084526060939283018282801561067f57602002820191906000526020600020905b81546001600160a01b03168152600190910190602001808311610661575b50505050509050919050565b6000816106df5760405162461bcd60e51b815260206004820152600e60248201527f4c6f7420696e636f72726563746500000000000000000000000000000000000060448201526064015b60405180910390fd5b60a4356020831015610704576106f6836008613419565b61070290610100613430565b1c5b61071086823388611969565b6040517f6352211e000000000000000000000000000000000000000000000000000000008152600481018690526000903390636352211e90602401602060405180830381865afa158015610768573d6000803e3d6000fd5b505050506040513d601f19601f8201168201806040525081019061078c9190613443565b6001600160a01b0316036107e25760405162461bcd60e51b815260206004820152601160248201527f566163756e61206e6f207065726d65736100000000000000000000000000000060448201526064016106d6565b50630a85bd0160e11b9695505050505050565b50505050565b610806838383611beb565b505050565b6108466040518060c0016040528060008152602001606081526020016060815260200160608152602001606081526020016000151581525090565b600660008381526020019081526020016000206040518060c00160405290816000820154815260200160018201805461087e906133c9565b80601f01602080910402602001604051908101604052809291908181526020018280546108aa906133c9565b80156108f75780601f106108cc576101008083540402835291602001916108f7565b820191906000526020600020905b8154815290600101906020018083116108da57829003601f168201915b50505050508152602001600282018054610910906133c9565b80601f016020809104026020016040519081016040528092919081815260200182805461093c906133c9565b80156109895780601f1061095e57610100808354040283529160200191610989565b820191906000526020600020905b81548152906001019060200180831161096c57829003601f168201915b505050505081526020016003820180546109a2906133c9565b80601f01602080910402602001604051908101604052809291908181526020018280546109ce906133c9565b8015610a1b5780601f106109f057610100808354040283529160200191610a1b565b820191906000526020600020905b8154815290600101906020018083116109fe57829003601f168201915b50505050508152602001600482018054610a34906133c9565b80601f0160208091040260200160405190810160405280929190818152602001828054610a60906133c9565b8015610aad5780601f10610a8257610100808354040283529160200191610aad565b820191906000526020600020905b815481529060010190602001808311610a9057829003601f168201915b50505091835250506005919091015460ff16151560209091015292915050565b610806838383604051806020016040528060008152506115de565b60006105466000836117bd565b600061054682611923565b60006001600160a01b038216610b45576040517f89c62b64000000000000000000000000000000000000000000000000000000008152600060048201526024016106d6565b506001600160a01b031660009081526003602052604090205490565b6001600160a01b0381166000908152600760209081526040808320805482518185028101850190935280835260609492939192909184015b82821015610e2f57838290600052602060002090600602016040518060c001604052908160008201548152602001600182018054610bd6906133c9565b80601f0160208091040260200160405190810160405280929190818152602001828054610c02906133c9565b8015610c4f5780601f10610c2457610100808354040283529160200191610c4f565b820191906000526020600020905b815481529060010190602001808311610c3257829003601f168201915b50505050508152602001600282018054610c68906133c9565b80601f0160208091040260200160405190810160405280929190818152602001828054610c94906133c9565b8015610ce15780601f10610cb657610100808354040283529160200191610ce1565b820191906000526020600020905b815481529060010190602001808311610cc457829003601f168201915b50505050508152602001600382018054610cfa906133c9565b80601f0160208091040260200160405190810160405280929190818152602001828054610d26906133c9565b8015610d735780601f10610d4857610100808354040283529160200191610d73565b820191906000526020600020905b815481529060010190602001808311610d5657829003601f168201915b50505050508152602001600482018054610d8c906133c9565b80601f0160208091040260200160405190810160405280929190818152602001828054610db8906133c9565b8015610e055780601f10610dda57610100808354040283529160200191610e05565b820191906000526020600020905b815481529060010190602001808311610de857829003601f168201915b50505091835250506005919091015460ff1615156020918201529082526001929092019101610b99565b505050509050919050565b6001600160a01b0384166000908152600f6020908152604080832086845290915290205480151580610e9557506000818152600e602090815260408083206001600160a01b0389168452825280832087845290915290205415155b610e9e57600080fd5b868114610eaa57600080fd5b6001600160a01b038616610ebd57600080fd5b6000610ec882610ae8565b90506001600160a01b038116331480610f0457506001600160a01b038116600090815260126020908152604080832033845290915290205460ff165b80610f3357506001600160a01b0381811660009081526013602090815260408083208684529091529020541633145b610f3c57600080fd5b610f47828787611f93565b6040517fb88d4fde0000000000000000000000000000000000000000000000000000000081526001600160a01b0387169063b88d4fde90610f949030908b908a908a908a90600401613460565b600060405180830381600087803b158015610fae57600080fd5b505af1158015610fc2573d6000803e3d6000fd5b50505050856001600160a01b0316876001600160a01b0316837f0ef52e516fb5aec15a5d3587e5480481b702b26db93c8430eca78b61990fd3f68860405161100c91815260200190565b60405180910390a45050505050505050565b60606001805461055b906133c9565b60008181526008602052604081205460609190819067ffffffffffffffff81111561105a5761105a612f7b565b6040519080825280602002602001820160405280156110df57816020015b6110cc604080516060808201835260008083526020808401829052845160e081018652828152908101839052808501829052808301829052608081019290925260a0820181905260c0820152909182015290565b8152602001906001900390816110785790505b50905060006110ed8561061f565b905060005b81518160ff16101561137f576000868152600d6020526040812083518290859060ff8616908110611125576111256134b6565b60200260200101516001600160a01b03166001600160a01b0316815260200190815260200160002080548060200260200160405190810160405280929190818152602001828054801561119757602002820191906000526020600020905b815481526020019060010190808311611183575b5050505050905060005b81518160ff16101561136a5760006040518060600160405280868660ff16815181106111cf576111cf6134b6565b60200260200101516001600160a01b03168152602001848460ff16815181106111fa576111fa6134b6565b60200260200101518152602001868660ff168151811061121c5761121c6134b6565b60200260200101516001600160a01b031663d61435db868660ff1681518110611247576112476134b6565b60200260200101516040518263ffffffff1660e01b815260040161126d91815260200190565b600060405180830381865afa15801561128a573d6000803e3d6000fd5b505050506040513d6000823e601f3d908101601f191682016040526112b2919081019061352e565b81525090508060000151868860ff16815181106112d1576112d16134b6565b6020026020010151600001906001600160a01b031690816001600160a01b0316815250508060200151868860ff168151811061130f5761130f6134b6565b602002602001015160200181815250508060400151868860ff1681518110611339576113396134b6565b602002602001015160400181905250868061135390613619565b97505050808061136290613619565b9150506111a1565b5050808061137790613619565b9150506110f2565b5090949350505050565b80516000908152600660209081526040909120825181559082015182919060018201906113b6908261367f565b50604082015160028201906113cb908261367f565b50606082015160038201906113e0908261367f565b50608082015160048201906113f5908261367f565b5060a091909101516005909101805460ff191691151591909117905580516000908152600c6020908152604080832080546001600160a01b0319166001600160a01b0387169081179091558352601490915281208054916114558361373e565b919050555061061b828260000151612322565b6001600160a01b03821661147b57600080fd5b3360008181526012602090815260408083206001600160a01b03871680855290835292819020805460ff191686151590811790915590519081529192917f17307eab39ab6107e8899845ad3d59bd9653f200f220920489ca2b5937696c31910160405180910390a35050565b6040805160c081018252600954815260208082018781528284018790526060830186905260808301859052600060a084018190526001600160a01b038a1681526007835293842080546001818101835591865292909420835160069093020191825551919283929082019061155c908261367f565b5060408201516002820190611571908261367f565b5060608201516003820190611586908261367f565b506080820151600482019061159b908261367f565b5060a091909101516005909101805460ff19169115159190911790556115c18682611389565b600980549060006115d18361373e565b9190505550505050505050565b6115e9848484611beb565b823b156107f557604051630a85bd0160e11b81526000906001600160a01b0385169063150b7a0290611625903390899088908890600401613757565b6020604051808303816000875af1158015611644573d6000803e3d6000fd5b505050506040513d601f19601f820116820180604052508101906116689190613798565b90506001600160e01b031981167ff0b9e5ba0000000000000000000000000000000000000000000000000000000014806116b257506001600160e01b03198116630a85bd0160e11b145b6116bb57600080fd5b5050505050565b60606116cd82611923565b5060006116e560408051602081019091526000815290565b905060008151116117055760405180602001604052806000815250611730565b8061170f8461233c565b6040516020016117209291906137b5565b6040516020818303038152906040525b9392505050565b6001600160a01b0382166000908152600f602090815260408083208484529091528120548015158061179257506000818152600e602090815260408083206001600160a01b0388168452825280832086845290915290205415155b61179b57600080fd5b6000818152600c60205260409020546001600160a01b031691505b9250929050565b6000806001600160a01b038416156117e2576117d98484611737565b935090506117fc565b506000828152600c60205260409020546001600160a01b03165b306001600160a01b03821603611816576117d98184611737565b60408051306024820152604480820186905282518083039091018152606490910182526020810180517bffffffffffffffffffffffffffffffffffffffffffffffffffffffff166376c0e6ed60e11b179052905160009182916001600160a01b03851691611883916137e4565b600060405180830381855afa9150503d80600081146118be576040519150601f19603f3d011682016040523d82523d6000602084013e6118c3565b606091505b509150915080516000146118e857808060200190518101906118e59190613800565b93505b6001821515148015611904575060e084901c63cd740db560e01b145b1561191157505050610546565b50506001600160a01b03169050610546565b6000818152600260205260408120546001600160a01b03168061054657604051637e27328960e01b8152600481018490526024016106d6565b61080683838360016123dc565b6000838152600c60205260409020546001600160a01b03166119cd5760405162461bcd60e51b815260206004820152601360248201527f456c204c6f74206e6f2065786973746569782e0000000000000000000000000060448201526064016106d6565b6000838152600e602090815260408083206001600160a01b0386168452825280832084845290915290205415611a6b5760405162461bcd60e51b815260206004820152602560248201527f46696c6c206a61206578697374656e742070657220656c207061726520696e6460448201527f696361742e00000000000000000000000000000000000000000000000000000060648201526084016106d6565b6000838152600d602090815260408083206001600160a01b038616845290915281205490819003611ae65760008481526010602081815260408084208054601184528286206001600160a01b038a16808852908552928620819055938352600184018155845292200180546001600160a01b03191690911790555b6000848152600d602090815260408083206001600160a01b0387168452825282208054600181810183559184529190922001839055611b26908290613819565b6000858152600e602090815260408083206001600160a01b038816808552908352818420878552835281842094909455928252600f81528282208583528152828220879055868252600890522054611b7f906001613819565b6008600086815260200190815260200160002081905550826001600160a01b031684866001600160a01b03167f0371ddf2288ad1ba92626a7e31c86a9d006e592cfe57d7d946ef08b13457c08b85604051611bdc91815260200190565b60405180910390a45050505050565b6001600160a01b038316611bfe57600080fd5b6000818152600c60205260409020546001600160a01b03848116911614611c2457600080fd5b6001600160a01b038216611c3757600080fd5b336001600160a01b03841614611e175760408051306024820152604480820184905282518083039091018152606490910182526020810180517bffffffffffffffffffffffffffffffffffffffffffffffffffffffff166376c0e6ed60e11b179052905160009182916001600160a01b03871691611cb4916137e4565b600060405180830381855afa9150503d8060008114611cef576040519150601f19603f3d011682016040523d82523d6000602084013e611cf4565b606091505b5091509150600081806020019051810190611d0f9190613800565b9050821515600103611db4577f328bf24b0000000000000000000000000000000000000000000000000000000060e082901c01611db45760405162461bcd60e51b815260206004820152602b60248201527f546f6b656e206973206368696c64206f66206f7468657220746f7020646f776e60448201527f20636f6d706f7361626c6500000000000000000000000000000000000000000060648201526084016106d6565b6001600160a01b038616600090815260126020908152604080832033845290915290205460ff1680611e0a57506001600160a01b0386811660009081526013602090815260408083208884529091529020541633145b611e1357600080fd5b5050505b6001600160a01b0383811660009081526013602090815260408083208584529091529020541615611e9e576001600160a01b038316600081815260136020908152604080832085845290915280822080546001600160a01b0319169055518392907f8c5be1e5ebec7d5bd14f71427d1e84f3dd0314c0f7b2291e5b200ac8c7c3b925908390a45b816001600160a01b0316836001600160a01b031614611f4d576001600160a01b038316600090815260146020526040902054611edc57611edc61382c565b6001600160a01b0383166000908152601460205260408120805491611f0083613842565b90915550506000818152600c6020908152604080832080546001600160a01b0319166001600160a01b038716908117909155835260149091528120805491611f478361373e565b91905055505b80826001600160a01b0316846001600160a01b03167fddf252ad1be2c89b69c2b068fc378daa952ba7f163c4a11628f55a4df523b3ef60405160405180910390a4505050565b6000838152600e602090815260408083206001600160a01b038616845282528083208484529091528120549081900361200e5760405162461bcd60e51b815260206004820152601f60248201527f4368696c6420746f6b656e206e6f74206f776e656420627920746f6b656e2e0060448201526064016106d6565b6000848152600d602090815260408083206001600160a01b038716845290915281205461203d90600190613430565b6000868152600d602090815260408083206001600160a01b038916845290915281208054929350909183908110612076576120766134b6565b90600052602060002001549050808403612102576000868152600d602090815260408083206001600160a01b0389168452909152902081906120b9600186613430565b815481106120c9576120c96134b6565b6000918252602080832090910192909255878152600e825260408082206001600160a01b03891683528352808220848352909252208390555b6000868152600d602090815260408083206001600160a01b0389168452909152902054612130600182613430565b600003612167576000878152600d602090815260408083206001600160a01b038a1684529091528120612162916129b8565b6121b0565b6000878152600d602090815260408083206001600160a01b038a1684529091529020612194600183613430565b815481106121a4576121a46134b6565b60009182526020822001555b6000878152600e602090815260408083206001600160a01b038a1680855290835281842089855283528184208490558352600f825280832088845290915281208190558390036106075760008781526010602052604081205461221590600190613430565b6000898152601060205260408120805492935090918390811061223a5761223a6134b6565b6000918252602090912001546001600160a01b039081169150881681146122dd5760008981526011602090815260408083206001600160a01b038c1684528252808320548c8452601090925290912080548391908390811061229e5761229e6134b6565b600091825260208083209190910180546001600160a01b0319166001600160a01b039485161790558c8252601181526040808320938616835292905220555b60008981526010602052604081206122f4916129b8565b505060008781526011602090815260408083206001600160a01b038a16845290915281205550505050505050565b61061b82826040518060200160405280600081525061251a565b6060600061234983612532565b600101905060008167ffffffffffffffff81111561236957612369612f7b565b6040519080825280601f01601f191660200182016040528015612393576020820181803683370190505b5090508181016020015b600019017f3031323334353637383961626364656600000000000000000000000000000000600a86061a8153600a850494508461239d57509392505050565b80806123f057506001600160a01b03821615155b156124ea57600061240084611923565b90506001600160a01b0383161580159061242c5750826001600160a01b0316816001600160a01b031614155b801561245e57506001600160a01b0380821660009081526005602090815260408083209387168352929052205460ff16155b156124a0576040517fa9fbf51f0000000000000000000000000000000000000000000000000000000081526001600160a01b03841660048201526024016106d6565b81156124e85783856001600160a01b0316826001600160a01b03167f8c5be1e5ebec7d5bd14f71427d1e84f3dd0314c0f7b2291e5b200ac8c7c3b92560405160405180910390a45b505b5050600090815260046020526040902080546001600160a01b0319166001600160a01b0392909216919091179055565b6125248383612614565b610806336000858585612692565b6000807a184f03e93ff9f4daa797ed6e38ed64bf6a1f010000000000000000831061257b577a184f03e93ff9f4daa797ed6e38ed64bf6a1f010000000000000000830492506040015b6d04ee2d6d415b85acef810000000083106125a7576d04ee2d6d415b85acef8100000000830492506020015b662386f26fc1000083106125c557662386f26fc10000830492506010015b6305f5e10083106125dd576305f5e100830492506008015b61271083106125f157612710830492506004015b60648310612603576064830492506002015b600a83106105465760010192915050565b6001600160a01b03821661263e57604051633250574960e11b8152600060048201526024016106d6565b600061264c838360006127bc565b90506001600160a01b03811615610806576040517f73c6ac6e000000000000000000000000000000000000000000000000000000008152600060048201526024016106d6565b6001600160a01b0383163b156116bb57604051630a85bd0160e11b81526001600160a01b0384169063150b7a02906126d4908890889087908790600401613757565b6020604051808303816000875af192505050801561270f575060408051601f3d908101601f1916820190925261270c91810190613798565b60015b612778573d80801561273d576040519150601f19603f3d011682016040523d82523d6000602084013e612742565b606091505b50805160000361277057604051633250574960e11b81526001600160a01b03851660048201526024016106d6565b805181602001fd5b6001600160e01b03198116630a85bd0160e11b146127b457604051633250574960e11b81526001600160a01b03851660048201526024016106d6565b505050505050565b6000828152600260205260408120546001600160a01b03908116908316156127e9576127e98184866128b5565b6001600160a01b03811615612827576128066000856000806123dc565b6001600160a01b038116600090815260036020526040902080546000190190555b6001600160a01b03851615612856576001600160a01b0385166000908152600360205260409020805460010190555b60008481526002602052604080822080546001600160a01b0319166001600160a01b0389811691821790925591518793918516917fddf252ad1be2c89b69c2b068fc378daa952ba7f163c4a11628f55a4df523b3ef91a4949350505050565b6128c0838383612932565b610806576001600160a01b0383166128ee57604051637e27328960e01b8152600481018290526024016106d6565b6040517f177e802f0000000000000000000000000000000000000000000000000000000081526001600160a01b0383166004820152602481018290526044016106d6565b60006001600160a01b038316158015906129b05750826001600160a01b0316846001600160a01b0316148061298c57506001600160a01b0380851660009081526005602090815260408083209387168352929052205460ff165b806129b057506000828152600460205260409020546001600160a01b038481169116145b949350505050565b50805460008255906000526020600020908101906129d691906129d9565b50565b5b808211156129ee57600081556001016129da565b5090565b6001600160e01b0319811681146129d657600080fd5b600060208284031215612a1a57600080fd5b8135611730816129f2565b60005b83811015612a40578181015183820152602001612a28565b50506000910152565b60008151808452612a61816020860160208601612a25565b601f01601f19169290920160200192915050565b6020815260006117306020830184612a49565b600060208284031215612a9a57600080fd5b5035919050565b6001600160a01b03811681146129d657600080fd5b60008083601f840112612ac857600080fd5b50813567ffffffffffffffff811115612ae057600080fd5b6020830191508360208285010111156117b657600080fd5b600080600080600080600060c0888a031215612b1357600080fd5b873596506020880135612b2581612aa1565b9550604088013594506060880135612b3c81612aa1565b93506080880135925060a088013567ffffffffffffffff811115612b5f57600080fd5b612b6b8a828b01612ab6565b989b979a50959850939692959293505050565b60008060408385031215612b9157600080fd5b8235612b9c81612aa1565b946020939093013593505050565b602080825282518282018190526000918401906040840190835b81811015612beb5783516001600160a01b0316835260209384019390920191600101612bc4565b509095945050505050565b600080600080600060808688031215612c0e57600080fd5b8535612c1981612aa1565b94506020860135612c2981612aa1565b935060408601359250606086013567ffffffffffffffff811115612c4c57600080fd5b612c5888828901612ab6565b969995985093965092949392505050565b60008060008060808587031215612c7f57600080fd5b843593506020850135612c9181612aa1565b92506040850135612ca181612aa1565b9396929550929360600135925050565b600080600060608486031215612cc657600080fd5b8335612cd181612aa1565b92506020840135612ce181612aa1565b929592945050506040919091013590565b805182526000602082015160c06020850152612d1160c0850182612a49565b905060408301518482036040860152612d2a8282612a49565b91505060608301518482036060860152612d448282612a49565b91505060808301518482036080860152612d5e8282612a49565b91505060a0830151151560a08501528091505092915050565b6020815260006117306020830184612cf2565b600060208284031215612d9c57600080fd5b813561173081612aa1565b6000602082016020835280845180835260408501915060408160051b86010192506020860160005b82811015612e0057603f19878603018452612deb858351612cf2565b94506020938401939190910190600101612dcf565b50929695505050505050565b60008060008060008060a08789031215612e2557600080fd5b863595506020870135612e3781612aa1565b94506040870135612e4781612aa1565b935060608701359250608087013567ffffffffffffffff811115612e6a57600080fd5b612e7689828a01612ab6565b979a9699509497509295939492505050565b6000602082016020835280845180835260408501915060408160051b86010192506020860160005b82811015612e0057603f1987860301845281516001600160a01b03815116865260208101516020870152604081015190506060604087015280516060870152602081015160e06080880152612f09610140880182612a49565b90506040820151151560a0880152606082015160010b60c08801526080820151605f198883030160e0890152612f3f8282612a49565b91505060a0820151151561010088015260c08201519150612f6561012088018315159052565b9550506020938401939190910190600101612eb0565b634e487b7160e01b600052604160045260246000fd5b60405160c0810167ffffffffffffffff81118282101715612fb457612fb4612f7b565b60405290565b60405160e0810167ffffffffffffffff81118282101715612fb457612fb4612f7b565b604051601f8201601f1916810167ffffffffffffffff8111828210171561300657613006612f7b565b604052919050565b600067ffffffffffffffff82111561302857613028612f7b565b50601f01601f191660200190565b60006130496130448461300e565b612fdd565b905082815283838301111561305d57600080fd5b828260208301376000602084830101529392505050565b600082601f83011261308557600080fd5b61173083833560208501613036565b80151581146129d657600080fd5b80356130ad81613094565b919050565b600080604083850312156130c557600080fd5b82356130d081612aa1565b9150602083013567ffffffffffffffff8111156130ec57600080fd5b830160c081860312156130fe57600080fd5b613106612f91565b81358152602082013567ffffffffffffffff81111561312457600080fd5b61313087828501613074565b602083015250604082013567ffffffffffffffff81111561315057600080fd5b61315c87828501613074565b604083015250606082013567ffffffffffffffff81111561317c57600080fd5b61318887828501613074565b606083015250608082013567ffffffffffffffff8111156131a857600080fd5b6131b487828501613074565b6080830152506131c660a083016130a2565b60a082015280925050509250929050565b600080604083850312156131ea57600080fd5b82356131f581612aa1565b9150602083013561320581613094565b809150509250929050565b600080600080600060a0868803121561322857600080fd5b853561323381612aa1565b9450602086013567ffffffffffffffff81111561324f57600080fd5b61325b88828901613074565b945050604086013567ffffffffffffffff81111561327857600080fd5b61328488828901613074565b935050606086013567ffffffffffffffff8111156132a157600080fd5b6132ad88828901613074565b925050608086013567ffffffffffffffff8111156132ca57600080fd5b6132d688828901613074565b9150509295509295909350565b600080600080608085870312156132f957600080fd5b843561330481612aa1565b9350602085013561331481612aa1565b925060408501359150606085013567ffffffffffffffff81111561333757600080fd5b8501601f8101871361334857600080fd5b61335787823560208401613036565b91505092959194509250565b6000806000806080858703121561337957600080fd5b843561338481612aa1565b9350602085013592506040850135612ca181612aa1565b600080604083850312156133ae57600080fd5b82356133b981612aa1565b9150602083013561320581612aa1565b600181811c908216806133dd57607f821691505b6020821081036133fd57634e487b7160e01b600052602260045260246000fd5b50919050565b634e487b7160e01b600052601160045260246000fd5b808202811582820484141761054657610546613403565b8181038181111561054657610546613403565b60006020828403121561345557600080fd5b815161173081612aa1565b6001600160a01b03861681526001600160a01b038516602082015283604082015260806060820152816080820152818360a0830137600081830160a090810191909152601f909201601f19160101949350505050565b634e487b7160e01b600052603260045260246000fd5b600082601f8301126134dd57600080fd5b81516134eb6130448261300e565b81815284602083860101111561350057600080fd5b6129b0826020830160208701612a25565b80516130ad81613094565b8051600181900b81146130ad57600080fd5b60006020828403121561354057600080fd5b815167ffffffffffffffff81111561355757600080fd5b820160e0818503121561356957600080fd5b613571612fba565b81518152602082015167ffffffffffffffff81111561358f57600080fd5b61359b868285016134cc565b6020830152506135ad60408301613511565b60408201526135be6060830161351c565b6060820152608082015167ffffffffffffffff8111156135dd57600080fd5b6135e9868285016134cc565b6080830152506135fb60a08301613511565b60a082015261360c60c08301613511565b60c0820152949350505050565b600060ff821660ff810361362f5761362f613403565b60010192915050565b601f82111561080657806000526020600020601f840160051c8101602085101561365f5750805b601f840160051c820191505b818110156116bb576000815560010161366b565b815167ffffffffffffffff81111561369957613699612f7b565b6136ad816136a784546133c9565b84613638565b6020601f8211600181146136e157600083156136c95750848201515b600019600385901b1c1916600184901b1784556116bb565b600084815260208120601f198516915b8281101561371157878501518255602094850194600190920191016136f1565b508482101561372f5786840151600019600387901b60f8161c191681555b50505050600190811b01905550565b60006001820161375057613750613403565b5060010190565b6001600160a01b03851681526001600160a01b038416602082015282604082015260806060820152600061378e6080830184612a49565b9695505050505050565b6000602082840312156137aa57600080fd5b8151611730816129f2565b600083516137c7818460208801612a25565b8351908301906137db818360208801612a25565b01949350505050565b600082516137f6818460208701612a25565b9190910192915050565b60006020828403121561381257600080fd5b5051919050565b8082018082111561054657610546613403565b634e487b7160e01b600052600160045260246000fd5b60008161385157613851613403565b50600019019056fea2646970667358221220e2b946bc42fc531510b162e052d5da0ee0bcca1b51fa112b95209f864d791abc64736f6c634300081c0033",
  "linkReferences": {},
  "deployedLinkReferences": {}
}