{
  "_format": "hh-sol-artifact-1",
  "contractName": "LotTK",
  "sourceName": "contracts/LotTK.sol",
  "abi": [
    {
      "inputs": [],
      "stateMutability": "nonpayable",
      "type": "constructor"
    },
    {
      "inputs": [
        {
          "internalType": "address",
          "name": "sender",
          "type": "address"
        },
        {
          "internalType": "uint256",
          "name": "tokenId",
          "type": "uint256"
        },
        {
          "internalType": "address",
          "name": "owner",
          "type": "address"
        }
      ],
      "name": "ERC721IncorrectOwner",
      "type": "error"
    },
    {
      "inputs": [
        {
          "internalType": "address",
          "name": "operator",
          "type": "address"
        },
        {
          "internalType": "uint256",
          "name": "tokenId",
          "type": "uint256"
        }
      ],
      "name": "ERC721InsufficientApproval",
      "type": "error"
    },
    {
      "inputs": [
        {
          "internalType": "address",
          "name": "approver",
          "type": "address"
        }
      ],
      "name": "ERC721InvalidApprover",
      "type": "error"
    },
    {
      "inputs": [
        {
          "internalType": "address",
          "name": "operator",
          "type": "address"
        }
      ],
      "name": "ERC721InvalidOperator",
      "type": "error"
    },
    {
      "inputs": [
        {
          "internalType": "address",
          "name": "owner",
          "type": "address"
        }
      ],
      "name": "ERC721InvalidOwner",
      "type": "error"
    },
    {
      "inputs": [
        {
          "internalType": "address",
          "name": "receiver",
          "type": "address"
        }
      ],
      "name": "ERC721InvalidReceiver",
      "type": "error"
    },
    {
      "inputs": [
        {
          "internalType": "address",
          "name": "sender",
          "type": "address"
        }
      ],
      "name": "ERC721InvalidSender",
      "type": "error"
    },
    {
      "inputs": [
        {
          "internalType": "uint256",
          "name": "tokenId",
          "type": "uint256"
        }
      ],
      "name": "ERC721NonexistentToken",
      "type": "error"
    },
    {
      "anonymous": false,
      "inputs": [
        {
          "indexed": true,
          "internalType": "address",
          "name": "owner",
          "type": "address"
        },
        {
          "indexed": true,
          "internalType": "address",
          "name": "approved",
          "type": "address"
        },
        {
          "indexed": true,
          "internalType": "uint256",
          "name": "tokenId",
          "type": "uint256"
        }
      ],
      "name": "Approval",
      "type": "event"
    },
    {
      "anonymous": false,
      "inputs": [
        {
          "indexed": true,
          "internalType": "address",
          "name": "owner",
          "type": "address"
        },
        {
          "indexed": true,
          "internalType": "address",
          "name": "operator",
          "type": "address"
        },
        {
          "indexed": false,
          "internalType": "bool",
          "name": "approved",
          "type": "bool"
        }
      ],
      "name": "ApprovalForAll",
      "type": "event"
    },
    {
      "anonymous": false,
      "inputs": [
        {
          "indexed": true,
          "internalType": "address",
          "name": "_from",
          "type": "address"
        },
        {
          "indexed": true,
          "internalType": "uint256",
          "name": "_tokenId",
          "type": "uint256"
        },
        {
          "indexed": true,
          "internalType": "address",
          "name": "_childContract",
          "type": "address"
        },
        {
          "indexed": false,
          "internalType": "uint256",
          "name": "_childTokenId",
          "type": "uint256"
        }
      ],
      "name": "ReceivedChild",
      "type": "event"
    },
    {
      "anonymous": false,
      "inputs": [
        {
          "indexed": true,
          "internalType": "address",
          "name": "from",
          "type": "address"
        },
        {
          "indexed": true,
          "internalType": "address",
          "name": "to",
          "type": "address"
        },
        {
          "indexed": true,
          "internalType": "uint256",
          "name": "tokenId",
          "type": "uint256"
        }
      ],
      "name": "Transfer",
      "type": "event"
    },
    {
      "anonymous": false,
      "inputs": [
        {
          "indexed": true,
          "internalType": "uint256",
          "name": "tokenId",
          "type": "uint256"
        },
        {
          "indexed": true,
          "internalType": "address",
          "name": "_to",
          "type": "address"
        },
        {
          "indexed": true,
          "internalType": "address",
          "name": "_childContract",
          "type": "address"
        },
        {
          "indexed": false,
          "internalType": "uint256",
          "name": "_childTokenId",
          "type": "uint256"
        }
      ],
      "name": "TransferChild",
      "type": "event"
    },
    {
      "inputs": [],
      "name": "ERC998_MAGIC_VALUE",
      "outputs": [
        {
          "internalType": "bytes32",
          "name": "",
          "type": "bytes32"
        }
      ],
      "stateMutability": "view",
      "type": "function"
    },
    {
      "inputs": [
        {
          "internalType": "address",
          "name": "to",
          "type": "address"
        },
        {
          "internalType": "uint256",
          "name": "tokenId",
          "type": "uint256"
        }
      ],
      "name": "approve",
      "outputs": [],
      "stateMutability": "nonpayable",
      "type": "function"
    },
    {
      "inputs": [
        {
          "internalType": "address",
          "name": "owner",
          "type": "address"
        }
      ],
      "name": "balanceOf",
      "outputs": [
        {
          "internalType": "uint256",
          "name": "",
          "type": "uint256"
        }
      ],
      "stateMutability": "view",
      "type": "function"
    },
    {
      "inputs": [
        {
          "internalType": "uint256",
          "name": "tokenId",
          "type": "uint256"
        }
      ],
      "name": "getApproved",
      "outputs": [
        {
          "internalType": "address",
          "name": "",
          "type": "address"
        }
      ],
      "stateMutability": "view",
      "type": "function"
    },
    {
      "inputs": [
        {
          "internalType": "address",
          "name": "_from",
          "type": "address"
        },
        {
          "internalType": "uint256",
          "name": "_tokenId",
          "type": "uint256"
        },
        {
          "internalType": "address",
          "name": "_childContract",
          "type": "address"
        },
        {
          "internalType": "uint256",
          "name": "_childTokenId",
          "type": "uint256"
        }
      ],
      "name": "getChild",
      "outputs": [],
      "stateMutability": "nonpayable",
      "type": "function"
    },
    {
      "inputs": [
        {
          "internalType": "uint256",
          "name": "_tokenId",
          "type": "uint256"
        }
      ],
      "name": "getChildContracts",
      "outputs": [
        {
          "internalType": "address[]",
          "name": "",
          "type": "address[]"
        }
      ],
      "stateMutability": "view",
      "type": "function"
    },
    {
      "inputs": [
        {
          "internalType": "uint256",
          "name": "_idToken",
          "type": "uint256"
        }
      ],
      "name": "getDadesLot",
      "outputs": [
        {
          "components": [
            {
              "internalType": "uint256",
              "name": "idToken",
              "type": "uint256"
            },
            {
              "internalType": "string",
              "name": "idLot",
              "type": "string"
            },
            {
              "internalType": "string",
              "name": "fabricant",
              "type": "string"
            },
            {
              "internalType": "string",
              "name": "nomLot",
              "type": "string"
            },
            {
              "internalType": "string",
              "name": "dataFabricacio",
              "type": "string"
            },
            {
              "internalType": "bool",
              "name": "lotTancat",
              "type": "bool"
            }
          ],
          "internalType": "struct LotTK.Lot",
          "name": "",
          "type": "tuple"
        }
      ],
      "stateMutability": "view",
      "type": "function"
    },
    {
      "inputs": [
        {
          "internalType": "uint256",
          "name": "_idParentToken",
          "type": "uint256"
        }
      ],
      "name": "getDadesVacunesLot",
      "outputs": [
        {
          "components": [
            {
              "internalType": "address",
              "name": "contracteVacuna",
              "type": "address"
            },
            {
              "internalType": "uint256",
              "name": "idVacunaToken",
              "type": "uint256"
            },
            {
              "components": [
                {
                  "internalType": "uint256",
                  "name": "idToken",
                  "type": "uint256"
                },
                {
                  "internalType": "string",
                  "name": "idVacuna",
                  "type": "string"
                },
                {
                  "internalType": "bool",
                  "name": "termolabil",
                  "type": "bool"
                },
                {
                  "internalType": "int16",
                  "name": "tempConservacio",
                  "type": "int16"
                },
                {
                  "internalType": "string",
                  "name": "dataCaducitat",
                  "type": "string"
                },
                {
                  "internalType": "bool",
                  "name": "asignadaLot",
                  "type": "bool"
                },
                {
                  "internalType": "bool",
                  "name": "administrada",
                  "type": "bool"
                }
              ],
              "internalType": "struct VacunaTK.Vacuna",
              "name": "vacuna",
              "type": "tuple"
            }
          ],
          "internalType": "struct LotTK.DadesVacunaLot[]",
          "name": "",
          "type": "tuple[]"
        }
      ],
      "stateMutability": "view",
      "type": "function"
    },
    {
      "inputs": [
        {
          "internalType": "address",
          "name": "_creadorLot",
          "type": "address"
        }
      ],
      "name": "getLotsEmpresa",
      "outputs": [
        {
          "components": [
            {
              "internalType": "uint256",
              "name": "idToken",
              "type": "uint256"
            },
            {
              "internalType": "string",
              "name": "idLot",
              "type": "string"
            },
            {
              "internalType": "string",
              "name": "fabricant",
              "type": "string"
            },
            {
              "internalType": "string",
              "name": "nomLot",
              "type": "string"
            },
            {
              "internalType": "string",
              "name": "dataFabricacio",
              "type": "string"
            },
            {
              "internalType": "bool",
              "name": "lotTancat",
              "type": "bool"
            }
          ],
          "internalType": "struct LotTK.Lot[]",
          "name": "",
          "type": "tuple[]"
        }
      ],
      "stateMutability": "view",
      "type": "function"
    },
    {
      "inputs": [],
      "name": "getOwner",
      "outputs": [
        {
          "internalType": "address",
          "name": "",
          "type": "address"
        }
      ],
      "stateMutability": "view",
      "type": "function"
    },
    {
      "inputs": [
        {
          "internalType": "address",
          "name": "owner",
          "type": "address"
        },
        {
          "internalType": "address",
          "name": "operator",
          "type": "address"
        }
      ],
      "name": "isApprovedForAll",
      "outputs": [
        {
          "internalType": "bool",
          "name": "",
          "type": "bool"
        }
      ],
      "stateMutability": "view",
      "type": "function"
    },
    {
      "inputs": [
        {
          "internalType": "address",
          "name": "to",
          "type": "address"
        },
        {
          "internalType": "string",
          "name": "_idLot",
          "type": "string"
        },
        {
          "internalType": "string",
          "name": "_fabricant",
          "type": "string"
        },
        {
          "internalType": "string",
          "name": "_nomLot",
          "type": "string"
        },
        {
          "internalType": "string",
          "name": "_dataFabricacio",
          "type": "string"
        }
      ],
      "name": "mint",
      "outputs": [],
      "stateMutability": "nonpayable",
      "type": "function"
    },
    {
      "inputs": [],
      "name": "name",
      "outputs": [
        {
          "internalType": "string",
          "name": "",
          "type": "string"
        }
      ],
      "stateMutability": "view",
      "type": "function"
    },
    {
      "inputs": [
        {
          "internalType": "address",
          "name": "_operator",
          "type": "address"
        },
        {
          "internalType": "address",
          "name": "_from",
          "type": "address"
        },
        {
          "internalType": "uint256",
          "name": "_childTokenId",
          "type": "uint256"
        },
        {
          "internalType": "bytes",
          "name": "_data",
          "type": "bytes"
        }
      ],
      "name": "onERC721Received",
      "outputs": [
        {
          "internalType": "bytes4",
          "name": "",
          "type": "bytes4"
        }
      ],
      "stateMutability": "nonpayable",
      "type": "function"
    },
    {
      "inputs": [
        {
          "internalType": "uint256",
          "name": "_tokenId",
          "type": "uint256"
        }
      ],
      "name": "ownerOf",
      "outputs": [
        {
          "internalType": "address",
          "name": "tokenOwner",
          "type": "address"
        }
      ],
      "stateMutability": "view",
      "type": "function"
    },
    {
      "inputs": [
        {
          "internalType": "address",
          "name": "_childContract",
          "type": "address"
        },
        {
          "internalType": "uint256",
          "name": "_childTokenId",
          "type": "uint256"
        }
      ],
      "name": "ownerOfChild",
      "outputs": [
        {
          "internalType": "bytes32",
          "name": "parentTokenOwner",
          "type": "bytes32"
        },
        {
          "internalType": "uint256",
          "name": "parentTokenId",
          "type": "uint256"
        }
      ],
      "stateMutability": "view",
      "type": "function"
    },
    {
      "inputs": [
        {
          "internalType": "uint256",
          "name": "_tokenId",
          "type": "uint256"
        }
      ],
      "name": "rootOwnerOf",
      "outputs": [
        {
          "internalType": "bytes32",
          "name": "rootOwner",
          "type": "bytes32"
        }
      ],
      "stateMutability": "view",
      "type": "function"
    },
    {
      "inputs": [
        {
          "internalType": "address",
          "name": "_childContract",
          "type": "address"
        },
        {
          "internalType": "uint256",
          "name": "_childTokenId",
          "type": "uint256"
        }
      ],
      "name": "rootOwnerOfChild",
      "outputs": [
        {
          "internalType": "bytes32",
          "name": "rootOwner",
          "type": "bytes32"
        }
      ],
      "stateMutability": "view",
      "type": "function"
    },
    {
      "inputs": [
        {
          "internalType": "address",
          "name": "to",
          "type": "address"
        },
        {
          "components": [
            {
              "internalType": "uint256",
              "name": "idToken",
              "type": "uint256"
            },
            {
              "internalType": "string",
              "name": "idLot",
              "type": "string"
            },
            {
              "internalType": "string",
              "name": "fabricant",
              "type": "string"
            },
            {
              "internalType": "string",
              "name": "nomLot",
              "type": "string"
            },
            {
              "internalType": "string",
              "name": "dataFabricacio",
              "type": "string"
            },
            {
              "internalType": "bool",
              "name": "lotTancat",
              "type": "bool"
            }
          ],
          "internalType": "struct LotTK.Lot",
          "name": "_newLot",
          "type": "tuple"
        }
      ],
      "name": "safeMint",
      "outputs": [],
      "stateMutability": "nonpayable",
      "type": "function"
    },
    {
      "inputs": [
        {
          "internalType": "uint256",
          "name": "_fromTokenId",
          "type": "uint256"
        },
        {
          "internalType": "address",
          "name": "_to",
          "type": "address"
        },
        {
          "internalType": "address",
          "name": "_childContract",
          "type": "address"
        },
        {
          "internalType": "uint256",
          "name": "_childTokenId",
          "type": "uint256"
        }
      ],
      "name": "safeTransferChild",
      "outputs": [],
      "stateMutability": "nonpayable",
      "type": "function"
    },
    {
      "inputs": [
        {
          "internalType": "uint256",
          "name": "_fromTokenId",
          "type": "uint256"
        },
        {
          "internalType": "address",
          "name": "_to",
          "type": "address"
        },
        {
          "internalType": "address",
          "name": "_childContract",
          "type": "address"
        },
        {
          "internalType": "uint256",
          "name": "_childTokenId",
          "type": "uint256"
        },
        {
          "internalType": "bytes",
          "name": "_data",
          "type": "bytes"
        }
      ],
      "name": "safeTransferChild",
      "outputs": [],
      "stateMutability": "nonpayable",
      "type": "function"
    },
    {
      "inputs": [
        {
          "internalType": "address",
          "name": "from",
          "type": "address"
        },
        {
          "internalType": "address",
          "name": "to",
          "type": "address"
        },
        {
          "internalType": "uint256",
          "name": "tokenId",
          "type": "uint256"
        }
      ],
      "name": "safeTransferFrom",
      "outputs": [],
      "stateMutability": "nonpayable",
      "type": "function"
    },
    {
      "inputs": [
        {
          "internalType": "address",
          "name": "_from",
          "type": "address"
        },
        {
          "internalType": "address",
          "name": "_to",
          "type": "address"
        },
        {
          "internalType": "uint256",
          "name": "_tokenId",
          "type": "uint256"
        },
        {
          "internalType": "bytes",
          "name": "_data",
          "type": "bytes"
        }
      ],
      "name": "safeTransferFrom",
      "outputs": [],
      "stateMutability": "nonpayable",
      "type": "function"
    },
    {
      "inputs": [
        {
          "internalType": "address",
          "name": "_operator",
          "type": "address"
        },
        {
          "internalType": "bool",
          "name": "_approved",
          "type": "bool"
        }
      ],
      "name": "setApprovalForAll",
      "outputs": [],
      "stateMutability": "nonpayable",
      "type": "function"
    },
    {
      "inputs": [
        {
          "internalType": "bytes4",
          "name": "interfaceId",
          "type": "bytes4"
        }
      ],
      "name": "supportsInterface",
      "outputs": [
        {
          "internalType": "bool",
          "name": "",
          "type": "bool"
        }
      ],
      "stateMutability": "view",
      "type": "function"
    },
    {
      "inputs": [],
      "name": "symbol",
      "outputs": [
        {
          "internalType": "string",
          "name": "",
          "type": "string"
        }
      ],
      "stateMutability": "view",
      "type": "function"
    },
    {
      "inputs": [
        {
          "internalType": "uint256",
          "name": "tokenId",
          "type": "uint256"
        }
      ],
      "name": "tokenURI",
      "outputs": [
        {
          "internalType": "string",
          "name": "",
          "type": "string"
        }
      ],
      "stateMutability": "view",
      "type": "function"
    },
    {
      "inputs": [
        {
          "internalType": "uint256",
          "name": "_fromTokenId",
          "type": "uint256"
        },
        {
          "internalType": "address",
          "name": "_to",
          "type": "address"
        },
        {
          "internalType": "address",
          "name": "_childContract",
          "type": "address"
        },
        {
          "internalType": "uint256",
          "name": "_childTokenId",
          "type": "uint256"
        }
      ],
      "name": "transferChild",
      "outputs": [],
      "stateMutability": "nonpayable",
      "type": "function"
    },
    {
      "inputs": [
        {
          "internalType": "uint256",
          "name": "_fromTokenId",
          "type": "uint256"
        },
        {
          "internalType": "address",
          "name": "_toContract",
          "type": "address"
        },
        {
          "internalType": "uint256",
          "name": "_toTokenId",
          "type": "uint256"
        },
        {
          "internalType": "address",
          "name": "_childContract",
          "type": "address"
        },
        {
          "internalType": "uint256",
          "name": "_childTokenId",
          "type": "uint256"
        },
        {
          "internalType": "bytes",
          "name": "_data",
          "type": "bytes"
        }
      ],
      "name": "transferChildToParent",
      "outputs": [],
      "stateMutability": "nonpayable",
      "type": "function"
    },
    {
      "inputs": [
        {
          "internalType": "address",
          "name": "_from",
          "type": "address"
        },
        {
          "internalType": "address",
          "name": "_to",
          "type": "address"
        },
        {
          "internalType": "uint256",
          "name": "_tokenId",
          "type": "uint256"
        }
      ],
      "name": "transferFrom",
      "outputs": [],
      "stateMutability": "nonpayable",
      "type": "function"
    }
  ],
  "bytecode": "0x6080604052600160095534801561001557600080fd5b50604051806040016040528060068152602001654c6f7465544b60d01b815250604051806040016040528060038152602001624c544b60e81b81525081600090816100609190610114565b50600161006d8282610114565b5050506101d2565b634e487b7160e01b600052604160045260246000fd5b600181811c9082168061009f57607f821691505b6020821081036100bf57634e487b7160e01b600052602260045260246000fd5b50919050565b601f82111561010f57806000526020600020601f840160051c810160208510156100ec5750805b601f840160051c820191505b8181101561010c57600081556001016100f8565b50505b505050565b81516001600160401b0381111561012d5761012d610075565b6101418161013b845461008b565b846100c5565b6020601f821160018114610175576000831561015d5750848201515b600019600385901b1c1916600184901b17845561010c565b600084815260208120601f198516915b828110156101a55787850151825560209485019460019092019101610185565b50848210156101c35786840151600019600387901b60f8161c191681555b50505050600190811b01905550565b613b3f806101e16000396000f3fe608060405234801561001057600080fd5b50600436106101da5760003560e01c806388fcef4011610104578063a40d1b10116100a2578063c87b56dd11610071578063c87b56dd14610425578063e985e9c514610438578063eadb80b814610474578063ed81cdda1461049c57600080fd5b8063a40d1b10146103f1578063b88d4fde14610404578063ba6b5f9614610417578063bef44f18146102b657600080fd5b806395d89b41116100de57806395d89b41146103a357806399a4d8a3146103ab5780639f144ac8146103cb578063a22cb465146103de57600080fd5b806388fcef401461035f578063893d20e81461037f5780638d81f51e1461039057600080fd5b80631d98f3c51161017c57806342842e0e1161014b57806342842e0e1461031357806343a61a8e146103265780636352211e1461033957806370a082311461034c57600080fd5b80631d98f3c5146102b657806322ab2e6f146102c457806323b872dd146102e0578063381e9080146102f357600080fd5b806308937f62116101b857806308937f6214610247578063095ea7b31461025757806311bd66611461026a578063150b7a021461028a57600080fd5b806301ffc9a7146101df57806306fdde0314610207578063081812fc1461021c575b600080fd5b6101f26101ed366004612bcf565b6104af565b60405190151581526020015b60405180910390f35b61020f61054c565b6040516101fe9190612c3c565b61022f61022a366004612c4f565b6105de565b6040516001600160a01b0390911681526020016101fe565b6102556101da366004612cbf565b005b610255610265366004612d45565b610607565b61027d610278366004612c4f565b610616565b6040516101fe9190612d71565b61029d610298366004612dbd565b610682565b6040516001600160e01b031990911681526020016101fe565b6102556101da366004612e30565b6102d263cd740db560e01b81565b6040519081526020016101fe565b6102556102ee366004612e78565b6107f2565b610306610301366004612c4f565b610802565b6040516101fe9190612f3e565b610255610321366004612e78565b610ac4565b6102d2610334366004612c4f565b610adf565b61022f610347366004612c4f565b610aec565b6102d261035a366004612f51565b610b13565b61037261036d366004612f51565b610b74565b6040516101fe9190612f6e565b600a546001600160a01b031661022f565b61025561039e366004612fd3565b610e4d565b61020f611031565b6103be6103b9366004612c4f565b611040565b6040516101fe919061304f565b6102556103d9366004613274565b61139c565b6102556103ec366004613399565b61147b565b6102556103ff3660046133d2565b6114fa565b6102556104123660046134a5565b6115f1565b6102556101da366004613525565b61020f610433366004612c4f565b6116d5565b6101f261044636600461355d565b6001600160a01b03918216600090815260056020908152604080832093909416825291909152205460ff1690565b610487610482366004612d45565b61174a565b604080519283526020830191909152016101fe565b6102d26104aa366004612d45565b6117d0565b60006001600160e01b031982167f80ac58cd00000000000000000000000000000000000000000000000000000000148061051257506001600160e01b031982167f5b5e139f00000000000000000000000000000000000000000000000000000000145b8061054657507f01ffc9a7000000000000000000000000000000000000000000000000000000006001600160e01b03198316145b92915050565b60606000805461055b9061358b565b80601f01602080910402602001604051908101604052809291908181526020018280546105879061358b565b80156105d45780601f106105a9576101008083540402835291602001916105d4565b820191906000526020600020905b8154815290600101906020018083116105b757829003601f168201915b5050505050905090565b60006105e982611936565b506000828152600460205260409020546001600160a01b0316610546565b61061282823361196f565b5050565b60008181526010602090815260409182902080548351818402810184019094528084526060939283018282801561067657602002820191906000526020600020905b81546001600160a01b03168152600190910190602001808311610658575b50505050509050919050565b6000816106d65760405162461bcd60e51b815260206004820152600e60248201527f4c6f7420696e636f72726563746500000000000000000000000000000000000060448201526064015b60405180910390fd5b60a43560208310156106fb576106ed8360086135db565b6106f9906101006135f2565b1c5b6107078682338861197c565b6040517f6352211e000000000000000000000000000000000000000000000000000000008152600481018690526000903390636352211e90602401602060405180830381865afa15801561075f573d6000803e3d6000fd5b505050506040513d601f19601f820116820180604052508101906107839190613605565b6001600160a01b0316036107d95760405162461bcd60e51b815260206004820152601160248201527f566163756e61206e6f207065726d65736100000000000000000000000000000060448201526064016106cd565b50630a85bd0160e11b9695505050505050565b50505050565b6107fd838383611bfe565b505050565b61083d6040518060c0016040528060008152602001606081526020016060815260200160608152602001606081526020016000151581525090565b600660008381526020019081526020016000206040518060c0016040529081600082015481526020016001820180546108759061358b565b80601f01602080910402602001604051908101604052809291908181526020018280546108a19061358b565b80156108ee5780601f106108c3576101008083540402835291602001916108ee565b820191906000526020600020905b8154815290600101906020018083116108d157829003601f168201915b505050505081526020016002820180546109079061358b565b80601f01602080910402602001604051908101604052809291908181526020018280546109339061358b565b80156109805780601f1061095557610100808354040283529160200191610980565b820191906000526020600020905b81548152906001019060200180831161096357829003601f168201915b505050505081526020016003820180546109999061358b565b80601f01602080910402602001604051908101604052809291908181526020018280546109c59061358b565b8015610a125780601f106109e757610100808354040283529160200191610a12565b820191906000526020600020905b8154815290600101906020018083116109f557829003601f168201915b50505050508152602001600482018054610a2b9061358b565b80601f0160208091040260200160405190810160405280929190818152602001828054610a579061358b565b8015610aa45780601f10610a7957610100808354040283529160200191610aa4565b820191906000526020600020905b815481529060010190602001808311610a8757829003601f168201915b50505091835250506005919091015460ff16151560209091015292915050565b6107fd838383604051806020016040528060008152506115f1565b60006105466000836117d0565b6000818152600c60205260409020546001600160a01b031680610b0e57600080fd5b919050565b60006001600160a01b038216610b58576040517f89c62b64000000000000000000000000000000000000000000000000000000008152600060048201526024016106cd565b506001600160a01b031660009081526003602052604090205490565b6001600160a01b0381166000908152600760209081526040808320805482518185028101850190935280835260609492939192909184015b82821015610e4257838290600052602060002090600602016040518060c001604052908160008201548152602001600182018054610be99061358b565b80601f0160208091040260200160405190810160405280929190818152602001828054610c159061358b565b8015610c625780601f10610c3757610100808354040283529160200191610c62565b820191906000526020600020905b815481529060010190602001808311610c4557829003601f168201915b50505050508152602001600282018054610c7b9061358b565b80601f0160208091040260200160405190810160405280929190818152602001828054610ca79061358b565b8015610cf45780601f10610cc957610100808354040283529160200191610cf4565b820191906000526020600020905b815481529060010190602001808311610cd757829003601f168201915b50505050508152602001600382018054610d0d9061358b565b80601f0160208091040260200160405190810160405280929190818152602001828054610d399061358b565b8015610d865780601f10610d5b57610100808354040283529160200191610d86565b820191906000526020600020905b815481529060010190602001808311610d6957829003601f168201915b50505050508152602001600482018054610d9f9061358b565b80601f0160208091040260200160405190810160405280929190818152602001828054610dcb9061358b565b8015610e185780601f10610ded57610100808354040283529160200191610e18565b820191906000526020600020905b815481529060010190602001808311610dfb57829003601f168201915b50505091835250506005919091015460ff1615156020918201529082526001929092019101610bac565b505050509050919050565b6001600160a01b0384166000908152600f6020908152604080832086845290915290205480151580610ea857506000818152600e602090815260408083206001600160a01b0389168452825280832087845290915290205415155b610eb157600080fd5b868114610ebd57600080fd5b6001600160a01b038616610ed057600080fd5b6000610edb82610adf565b90506001600160a01b038116331480610f1757506001600160a01b038116600090815260126020908152604080832033845290915290205460ff165b80610f4657506001600160a01b0381811660009081526013602090815260408083208684529091529020541633145b610f4f57600080fd5b610f5a828787611ff4565b6040517fb88d4fde0000000000000000000000000000000000000000000000000000000081526001600160a01b0387169063b88d4fde90610fa79030908b908a908a908a90600401613622565b600060405180830381600087803b158015610fc157600080fd5b505af1158015610fd5573d6000803e3d6000fd5b50505050856001600160a01b0316876001600160a01b0316837f0ef52e516fb5aec15a5d3587e5480481b702b26db93c8430eca78b61990fd3f68860405161101f91815260200190565b60405180910390a45050505050505050565b60606001805461055b9061358b565b60008181526008602052604081205460609190819067ffffffffffffffff81111561106d5761106d613142565b6040519080825280602002602001820160405280156110f257816020015b6110df604080516060808201835260008083526020808401829052845160e081018652828152908101839052808501829052808301829052608081019290925260a0820181905260c0820152909182015290565b81526020019060019003908161108b5790505b509050600061110085610616565b905060005b81518160ff161015611392576000868152600d6020526040812083518290859060ff861690811061113857611138613678565b60200260200101516001600160a01b03166001600160a01b031681526020019081526020016000208054806020026020016040519081016040528092919081815260200182805480156111aa57602002820191906000526020600020905b815481526020019060010190808311611196575b5050505050905060005b81518160ff16101561137d5760006040518060600160405280868660ff16815181106111e2576111e2613678565b60200260200101516001600160a01b03168152602001848460ff168151811061120d5761120d613678565b60200260200101518152602001868660ff168151811061122f5761122f613678565b60200260200101516001600160a01b031663d61435db868660ff168151811061125a5761125a613678565b60200260200101516040518263ffffffff1660e01b815260040161128091815260200190565b600060405180830381865afa15801561129d573d6000803e3d6000fd5b505050506040513d6000823e601f3d908101601f191682016040526112c591908101906136f0565b81525090508060000151868860ff16815181106112e4576112e4613678565b6020026020010151600001906001600160a01b031690816001600160a01b0316815250508060200151868860ff168151811061132257611322613678565b602002602001015160200181815250508060400151868860ff168151811061134c5761134c613678565b6020026020010151604001819052508680611366906137db565b975050508080611375906137db565b9150506111b4565b5050808061138a906137db565b915050611105565b5090949350505050565b80516000908152600660209081526040909120825181559082015182919060018201906113c99082613841565b50604082015160028201906113de9082613841565b50606082015160038201906113f39082613841565b50608082015160048201906114089082613841565b5060a091909101516005909101805460ff191691151591909117905580516000908152600c6020908152604080832080546001600160a01b0319166001600160a01b03871690811790915583526014909152812080549161146883613903565b9190505550610612828260000151612381565b6001600160a01b03821661148e57600080fd5b3360008181526012602090815260408083206001600160a01b03871680855290835292819020805460ff191686151590811790915590519081529192917f17307eab39ab6107e8899845ad3d59bd9653f200f220920489ca2b5937696c31910160405180910390a35050565b6040805160c081018252600954815260208082018781528284018790526060830186905260808301859052600060a084018190526001600160a01b038a1681526007835293842080546001818101835591865292909420835160069093020191825551919283929082019061156f9082613841565b50604082015160028201906115849082613841565b50606082015160038201906115999082613841565b50608082015160048201906115ae9082613841565b5060a091909101516005909101805460ff19169115159190911790556115d4868261139c565b600980549060006115e483613903565b9190505550505050505050565b6115fc848484611bfe565b823b156107ec57604051630a85bd0160e11b81526000906001600160a01b0385169063150b7a029061163890339089908890889060040161391c565b6020604051808303816000875af1158015611657573d6000803e3d6000fd5b505050506040513d601f19601f8201168201806040525081019061167b919061395d565b90506001600160e01b031981167ff0b9e5ba0000000000000000000000000000000000000000000000000000000014806116c557506001600160e01b03198116630a85bd0160e11b145b6116ce57600080fd5b5050505050565b60606116e082611936565b5060006116f860408051602081019091526000815290565b905060008151116117185760405180602001604052806000815250611743565b806117228461239b565b60405160200161173392919061397a565b6040516020818303038152906040525b9392505050565b6001600160a01b0382166000908152600f60209081526040808320848452909152812054801515806117a557506000818152600e602090815260408083206001600160a01b0388168452825280832086845290915290205415155b6117ae57600080fd5b6000818152600c60205260409020546001600160a01b031691505b9250929050565b6000806001600160a01b038416156117f5576117ec848461174a565b9350905061180f565b506000828152600c60205260409020546001600160a01b03165b306001600160a01b03821603611829576117ec818461174a565b60408051306024820152604480820186905282518083039091018152606490910182526020810180517bffffffffffffffffffffffffffffffffffffffffffffffffffffffff166376c0e6ed60e11b179052905160009182916001600160a01b03851691611896916139a9565b600060405180830381855afa9150503d80600081146118d1576040519150601f19603f3d011682016040523d82523d6000602084013e6118d6565b606091505b509150915080516000146118fb57808060200190518101906118f891906139c5565b93505b6001821515148015611917575060e084901c63cd740db560e01b145b1561192457505050610546565b50506001600160a01b03169050610546565b6000818152600260205260408120546001600160a01b03168061054657604051637e27328960e01b8152600481018490526024016106cd565b6107fd838383600161243b565b6000838152600c60205260409020546001600160a01b03166119e05760405162461bcd60e51b815260206004820152601360248201527f456c204c6f74206e6f2065786973746569782e0000000000000000000000000060448201526064016106cd565b6000838152600e602090815260408083206001600160a01b0386168452825280832084845290915290205415611a7e5760405162461bcd60e51b815260206004820152602560248201527f46696c6c206a61206578697374656e742070657220656c207061726520696e6460448201527f696361742e00000000000000000000000000000000000000000000000000000060648201526084016106cd565b6000838152600d602090815260408083206001600160a01b038616845290915281205490819003611af95760008481526010602081815260408084208054601184528286206001600160a01b038a16808852908552928620819055938352600184018155845292200180546001600160a01b03191690911790555b6000848152600d602090815260408083206001600160a01b0387168452825282208054600181810183559184529190922001839055611b399082906139de565b6000858152600e602090815260408083206001600160a01b038816808552908352818420878552835281842094909455928252600f81528282208583528152828220879055868252600890522054611b929060016139de565b6008600086815260200190815260200160002081905550826001600160a01b031684866001600160a01b03167f0371ddf2288ad1ba92626a7e31c86a9d006e592cfe57d7d946ef08b13457c08b85604051611bef91815260200190565b60405180910390a45050505050565b6001600160a01b038316611c1157600080fd5b6000818152600c60205260409020546001600160a01b03848116911614611c3757600080fd5b6001600160a01b038216611c4a57600080fd5b336001600160a01b03841614611e2a5760408051306024820152604480820184905282518083039091018152606490910182526020810180517bffffffffffffffffffffffffffffffffffffffffffffffffffffffff166376c0e6ed60e11b179052905160009182916001600160a01b03871691611cc7916139a9565b600060405180830381855afa9150503d8060008114611d02576040519150601f19603f3d011682016040523d82523d6000602084013e611d07565b606091505b5091509150600081806020019051810190611d2291906139c5565b9050821515600103611dc7577f328bf24b0000000000000000000000000000000000000000000000000000000060e082901c01611dc75760405162461bcd60e51b815260206004820152602b60248201527f546f6b656e206973206368696c64206f66206f7468657220746f7020646f776e60448201527f20636f6d706f7361626c6500000000000000000000000000000000000000000060648201526084016106cd565b6001600160a01b038616600090815260126020908152604080832033845290915290205460ff1680611e1d57506001600160a01b0386811660009081526013602090815260408083208884529091529020541633145b611e2657600080fd5b5050505b6001600160a01b0383811660009081526013602090815260408083208584529091529020541615611eb1576001600160a01b038316600081815260136020908152604080832085845290915280822080546001600160a01b0319169055518392907f8c5be1e5ebec7d5bd14f71427d1e84f3dd0314c0f7b2291e5b200ac8c7c3b925908390a45b816001600160a01b0316836001600160a01b031614611fae576001600160a01b038316600090815260146020526040902054611eef57611eef6139f1565b6001600160a01b0383166000908152601460205260408120805491611f1383613a07565b90915550506000818152600c6020908152604080832080546001600160a01b0319166001600160a01b038716908117909155835260149091528120805491611f5a83613903565b90915550506001600160a01b03808416600090815260076020526040808220928516825290208154611f8c9290612a0f565b506001600160a01b0383166000908152600760205260408120611fae91612acf565b80826001600160a01b0316846001600160a01b03167fddf252ad1be2c89b69c2b068fc378daa952ba7f163c4a11628f55a4df523b3ef60405160405180910390a4505050565b6000838152600e602090815260408083206001600160a01b038616845282528083208484529091528120549081900361206f5760405162461bcd60e51b815260206004820152601f60248201527f4368696c6420746f6b656e206e6f74206f776e656420627920746f6b656e2e0060448201526064016106cd565b6000848152600d602090815260408083206001600160a01b038716845290915281205461209e906001906135f2565b6000868152600d602090815260408083206001600160a01b0389168452909152812080549293509091839081106120d7576120d7613678565b90600052602060002001549050808414612163576000868152600d602090815260408083206001600160a01b03891684529091529020819061211a6001866135f2565b8154811061212a5761212a613678565b6000918252602080832090910192909255878152600e825260408082206001600160a01b03891683528352808220848352909252208390555b6000868152600d602090815260408083206001600160a01b0389168452909152902080548061219457612194613a1e565b600082815260208082208301600019908101839055909201909255878252600e815260408083206001600160a01b0389168085529083528184208885528352818420849055808452600f83528184208885528352818420849055898452600d83528184209084529091528120549003612379576000868152600d602090815260408083206001600160a01b0389168452909152812061223291612af3565b60008681526010602052604081205461224d906001906135f2565b6000888152601060205260408120805492935090918390811061227257612272613678565b6000918252602090912001546001600160a01b039081169150871681146123155760008881526011602090815260408083206001600160a01b038b1684528252808320548b845260109092529091208054839190839081106122d6576122d6613678565b600091825260208083209190910180546001600160a01b0319166001600160a01b039485161790558b8252601181526040808320938616835292905220555b600088815260106020526040902080548061233257612332613a1e565b60008281526020808220830160001990810180546001600160a01b03191690559092019092558982526011815260408083206001600160a01b038b16845290915281205550505b505050505050565b610612828260405180602001604052806000815250612579565b606060006123a883612591565b600101905060008167ffffffffffffffff8111156123c8576123c8613142565b6040519080825280601f01601f1916602001820160405280156123f2576020820181803683370190505b5090508181016020015b600019017f3031323334353637383961626364656600000000000000000000000000000000600a86061a8153600a85049450846123fc57509392505050565b808061244f57506001600160a01b03821615155b1561254957600061245f84611936565b90506001600160a01b0383161580159061248b5750826001600160a01b0316816001600160a01b031614155b80156124bd57506001600160a01b0380821660009081526005602090815260408083209387168352929052205460ff16155b156124ff576040517fa9fbf51f0000000000000000000000000000000000000000000000000000000081526001600160a01b03841660048201526024016106cd565b81156125475783856001600160a01b0316826001600160a01b03167f8c5be1e5ebec7d5bd14f71427d1e84f3dd0314c0f7b2291e5b200ac8c7c3b92560405160405180910390a45b505b5050600090815260046020526040902080546001600160a01b0319166001600160a01b0392909216919091179055565b6125838383612673565b6107fd3360008585856126f1565b6000807a184f03e93ff9f4daa797ed6e38ed64bf6a1f01000000000000000083106125da577a184f03e93ff9f4daa797ed6e38ed64bf6a1f010000000000000000830492506040015b6d04ee2d6d415b85acef81000000008310612606576d04ee2d6d415b85acef8100000000830492506020015b662386f26fc10000831061262457662386f26fc10000830492506010015b6305f5e100831061263c576305f5e100830492506008015b612710831061265057612710830492506004015b60648310612662576064830492506002015b600a83106105465760010192915050565b6001600160a01b03821661269d57604051633250574960e11b8152600060048201526024016106cd565b60006126ab83836000612813565b90506001600160a01b038116156107fd576040517f73c6ac6e000000000000000000000000000000000000000000000000000000008152600060048201526024016106cd565b6001600160a01b0383163b156116ce57604051630a85bd0160e11b81526001600160a01b0384169063150b7a029061273390889088908790879060040161391c565b6020604051808303816000875af192505050801561276e575060408051601f3d908101601f1916820190925261276b9181019061395d565b60015b6127d7573d80801561279c576040519150601f19603f3d011682016040523d82523d6000602084013e6127a1565b606091505b5080516000036127cf57604051633250574960e11b81526001600160a01b03851660048201526024016106cd565b805181602001fd5b6001600160e01b03198116630a85bd0160e11b1461237957604051633250574960e11b81526001600160a01b03851660048201526024016106cd565b6000828152600260205260408120546001600160a01b03908116908316156128405761284081848661290c565b6001600160a01b0381161561287e5761285d60008560008061243b565b6001600160a01b038116600090815260036020526040902080546000190190555b6001600160a01b038516156128ad576001600160a01b0385166000908152600360205260409020805460010190555b60008481526002602052604080822080546001600160a01b0319166001600160a01b0389811691821790925591518793918516917fddf252ad1be2c89b69c2b068fc378daa952ba7f163c4a11628f55a4df523b3ef91a4949350505050565b612917838383612989565b6107fd576001600160a01b03831661294557604051637e27328960e01b8152600481018290526024016106cd565b6040517f177e802f0000000000000000000000000000000000000000000000000000000081526001600160a01b0383166004820152602481018290526044016106cd565b60006001600160a01b03831615801590612a075750826001600160a01b0316846001600160a01b031614806129e357506001600160a01b0380851660009081526005602090815260408083209387168352929052205460ff165b80612a0757506000828152600460205260409020546001600160a01b038481169116145b949350505050565b828054828255906000526020600020906006028101928215612abf5760005260206000209160060282015b82811115612abf57825482558282600180820190612a5a90840182613a34565b50600281810190612a6d90840182613a34565b50600381810190612a8090840182613a34565b50600481810190612a9390840182613a34565b506005918201549101805460ff191660ff90921615159190911790556006928301929190910190612a3a565b50612acb929150612b11565b5090565b5080546000825560060290600052602060002090810190612af09190612b11565b50565b5080546000825590600052602060002090810190612af09190612b6a565b80821115612acb576000808255612b2b6001830182612b7f565b612b39600283016000612b7f565b612b47600383016000612b7f565b612b55600483016000612b7f565b5060058101805460ff19169055600601612b11565b5b80821115612acb5760008155600101612b6b565b508054612b8b9061358b565b6000825580601f10612b9b575050565b601f016020900490600052602060002090810190612af09190612b6a565b6001600160e01b031981168114612af057600080fd5b600060208284031215612be157600080fd5b813561174381612bb9565b60005b83811015612c07578181015183820152602001612bef565b50506000910152565b60008151808452612c28816020860160208601612bec565b601f01601f19169290920160200192915050565b6020815260006117436020830184612c10565b600060208284031215612c6157600080fd5b5035919050565b6001600160a01b0381168114612af057600080fd5b60008083601f840112612c8f57600080fd5b50813567ffffffffffffffff811115612ca757600080fd5b6020830191508360208285010111156117c957600080fd5b600080600080600080600060c0888a031215612cda57600080fd5b873596506020880135612cec81612c68565b9550604088013594506060880135612d0381612c68565b93506080880135925060a088013567ffffffffffffffff811115612d2657600080fd5b612d328a828b01612c7d565b989b979a50959850939692959293505050565b60008060408385031215612d5857600080fd5b8235612d6381612c68565b946020939093013593505050565b602080825282518282018190526000918401906040840190835b81811015612db25783516001600160a01b0316835260209384019390920191600101612d8b565b509095945050505050565b600080600080600060808688031215612dd557600080fd5b8535612de081612c68565b94506020860135612df081612c68565b935060408601359250606086013567ffffffffffffffff811115612e1357600080fd5b612e1f88828901612c7d565b969995985093965092949392505050565b60008060008060808587031215612e4657600080fd5b843593506020850135612e5881612c68565b92506040850135612e6881612c68565b9396929550929360600135925050565b600080600060608486031215612e8d57600080fd5b8335612e9881612c68565b92506020840135612ea881612c68565b929592945050506040919091013590565b805182526000602082015160c06020850152612ed860c0850182612c10565b905060408301518482036040860152612ef18282612c10565b91505060608301518482036060860152612f0b8282612c10565b91505060808301518482036080860152612f258282612c10565b91505060a0830151151560a08501528091505092915050565b6020815260006117436020830184612eb9565b600060208284031215612f6357600080fd5b813561174381612c68565b6000602082016020835280845180835260408501915060408160051b86010192506020860160005b82811015612fc757603f19878603018452612fb2858351612eb9565b94506020938401939190910190600101612f96565b50929695505050505050565b60008060008060008060a08789031215612fec57600080fd5b863595506020870135612ffe81612c68565b9450604087013561300e81612c68565b935060608701359250608087013567ffffffffffffffff81111561303157600080fd5b61303d89828a01612c7d565b979a9699509497509295939492505050565b6000602082016020835280845180835260408501915060408160051b86010192506020860160005b82811015612fc757603f1987860301845281516001600160a01b03815116865260208101516020870152604081015190506060604087015280516060870152602081015160e060808801526130d0610140880182612c10565b90506040820151151560a0880152606082015160010b60c08801526080820151605f198883030160e08901526131068282612c10565b91505060a0820151151561010088015260c0820151915061312c61012088018315159052565b9550506020938401939190910190600101613077565b634e487b7160e01b600052604160045260246000fd5b60405160c0810167ffffffffffffffff8111828210171561317b5761317b613142565b60405290565b60405160e0810167ffffffffffffffff8111828210171561317b5761317b613142565b604051601f8201601f1916810167ffffffffffffffff811182821017156131cd576131cd613142565b604052919050565b600067ffffffffffffffff8211156131ef576131ef613142565b50601f01601f191660200190565b600061321061320b846131d5565b6131a4565b905082815283838301111561322457600080fd5b828260208301376000602084830101529392505050565b600082601f83011261324c57600080fd5b611743838335602085016131fd565b8015158114612af057600080fd5b8035610b0e8161325b565b6000806040838503121561328757600080fd5b823561329281612c68565b9150602083013567ffffffffffffffff8111156132ae57600080fd5b830160c081860312156132c057600080fd5b6132c8613158565b81358152602082013567ffffffffffffffff8111156132e657600080fd5b6132f28782850161323b565b602083015250604082013567ffffffffffffffff81111561331257600080fd5b61331e8782850161323b565b604083015250606082013567ffffffffffffffff81111561333e57600080fd5b61334a8782850161323b565b606083015250608082013567ffffffffffffffff81111561336a57600080fd5b6133768782850161323b565b60808301525061338860a08301613269565b60a082015280925050509250929050565b600080604083850312156133ac57600080fd5b82356133b781612c68565b915060208301356133c78161325b565b809150509250929050565b600080600080600060a086880312156133ea57600080fd5b85356133f581612c68565b9450602086013567ffffffffffffffff81111561341157600080fd5b61341d8882890161323b565b945050604086013567ffffffffffffffff81111561343a57600080fd5b6134468882890161323b565b935050606086013567ffffffffffffffff81111561346357600080fd5b61346f8882890161323b565b925050608086013567ffffffffffffffff81111561348c57600080fd5b6134988882890161323b565b9150509295509295909350565b600080600080608085870312156134bb57600080fd5b84356134c681612c68565b935060208501356134d681612c68565b925060408501359150606085013567ffffffffffffffff8111156134f957600080fd5b8501601f8101871361350a57600080fd5b613519878235602084016131fd565b91505092959194509250565b6000806000806080858703121561353b57600080fd5b843561354681612c68565b9350602085013592506040850135612e6881612c68565b6000806040838503121561357057600080fd5b823561357b81612c68565b915060208301356133c781612c68565b600181811c9082168061359f57607f821691505b6020821081036135bf57634e487b7160e01b600052602260045260246000fd5b50919050565b634e487b7160e01b600052601160045260246000fd5b8082028115828204841417610546576105466135c5565b81810381811115610546576105466135c5565b60006020828403121561361757600080fd5b815161174381612c68565b6001600160a01b03861681526001600160a01b038516602082015283604082015260806060820152816080820152818360a0830137600081830160a090810191909152601f909201601f19160101949350505050565b634e487b7160e01b600052603260045260246000fd5b600082601f83011261369f57600080fd5b81516136ad61320b826131d5565b8181528460208386010111156136c257600080fd5b612a07826020830160208701612bec565b8051610b0e8161325b565b8051600181900b8114610b0e57600080fd5b60006020828403121561370257600080fd5b815167ffffffffffffffff81111561371957600080fd5b820160e0818503121561372b57600080fd5b613733613181565b81518152602082015167ffffffffffffffff81111561375157600080fd5b61375d8682850161368e565b60208301525061376f604083016136d3565b6040820152613780606083016136de565b6060820152608082015167ffffffffffffffff81111561379f57600080fd5b6137ab8682850161368e565b6080830152506137bd60a083016136d3565b60a08201526137ce60c083016136d3565b60c0820152949350505050565b600060ff821660ff81036137f1576137f16135c5565b60010192915050565b601f8211156107fd57806000526020600020601f840160051c810160208510156138215750805b601f840160051c820191505b818110156116ce576000815560010161382d565b815167ffffffffffffffff81111561385b5761385b613142565b61386f81613869845461358b565b846137fa565b6020601f8211600181146138a6576000831561388b5750848201515b600184901b600019600386901b1c198216175b8555506116ce565b600084815260208120601f198516915b828110156138d657878501518255602094850194600190920191016138b6565b50848210156138f45786840151600019600387901b60f8161c191681555b50505050600190811b01905550565b600060018201613915576139156135c5565b5060010190565b6001600160a01b03851681526001600160a01b03841660208201528260408201526080606082015260006139536080830184612c10565b9695505050505050565b60006020828403121561396f57600080fd5b815161174381612bb9565b6000835161398c818460208801612bec565b8351908301906139a0818360208801612bec565b01949350505050565b600082516139bb818460208701612bec565b9190910192915050565b6000602082840312156139d757600080fd5b5051919050565b80820180821115610546576105466135c5565b634e487b7160e01b600052600160045260246000fd5b600081613a1657613a166135c5565b506000190190565b634e487b7160e01b600052603160045260246000fd5b818103613a3f575050565b613a49825461358b565b67ffffffffffffffff811115613a6157613a61613142565b613a6f81613869845461358b565b6000601f821160018114613aa1576000831561388b575081850154600184901b600019600386901b1c1982161761389e565b600085815260209020601f19841690600086815260209020845b83811015613adb5782860154825560019586019590910190602001613abb565b5085831015613af95781850154600019600388901b60f8161c191681555b5050505050600190811b0190555056fea26469706673582212200d8df329a124e626aadacedbf00793e2d44904b27d9b826614a1937c0089095364736f6c634300081c0033",
  "linkReferences": {},
  "deployedLinkReferences": {}
}