{
  "_format": "hh-sol-artifact-1",
  "contractName": "VacunaTK",
  "sourceName": "contracts/VacunaTK.sol",
  "abi": [
    {
      "inputs": [],
      "stateMutability": "nonpayable",
      "type": "constructor"
    },
    {
      "inputs": [
        {
          "internalType": "address",
          "name": "sender",
          "type": "address"
        },
        {
          "internalType": "uint256",
          "name": "tokenId",
          "type": "uint256"
        },
        {
          "internalType": "address",
          "name": "owner",
          "type": "address"
        }
      ],
      "name": "ERC721IncorrectOwner",
      "type": "error"
    },
    {
      "inputs": [
        {
          "internalType": "address",
          "name": "operator",
          "type": "address"
        },
        {
          "internalType": "uint256",
          "name": "tokenId",
          "type": "uint256"
        }
      ],
      "name": "ERC721InsufficientApproval",
      "type": "error"
    },
    {
      "inputs": [
        {
          "internalType": "address",
          "name": "approver",
          "type": "address"
        }
      ],
      "name": "ERC721InvalidApprover",
      "type": "error"
    },
    {
      "inputs": [
        {
          "internalType": "address",
          "name": "operator",
          "type": "address"
        }
      ],
      "name": "ERC721InvalidOperator",
      "type": "error"
    },
    {
      "inputs": [
        {
          "internalType": "address",
          "name": "owner",
          "type": "address"
        }
      ],
      "name": "ERC721InvalidOwner",
      "type": "error"
    },
    {
      "inputs": [
        {
          "internalType": "address",
          "name": "receiver",
          "type": "address"
        }
      ],
      "name": "ERC721InvalidReceiver",
      "type": "error"
    },
    {
      "inputs": [
        {
          "internalType": "address",
          "name": "sender",
          "type": "address"
        }
      ],
      "name": "ERC721InvalidSender",
      "type": "error"
    },
    {
      "inputs": [
        {
          "internalType": "uint256",
          "name": "tokenId",
          "type": "uint256"
        }
      ],
      "name": "ERC721NonexistentToken",
      "type": "error"
    },
    {
      "anonymous": false,
      "inputs": [
        {
          "indexed": true,
          "internalType": "address",
          "name": "owner",
          "type": "address"
        },
        {
          "indexed": true,
          "internalType": "address",
          "name": "approved",
          "type": "address"
        },
        {
          "indexed": true,
          "internalType": "uint256",
          "name": "tokenId",
          "type": "uint256"
        }
      ],
      "name": "Approval",
      "type": "event"
    },
    {
      "anonymous": false,
      "inputs": [
        {
          "indexed": true,
          "internalType": "address",
          "name": "owner",
          "type": "address"
        },
        {
          "indexed": true,
          "internalType": "address",
          "name": "operator",
          "type": "address"
        },
        {
          "indexed": false,
          "internalType": "bool",
          "name": "approved",
          "type": "bool"
        }
      ],
      "name": "ApprovalForAll",
      "type": "event"
    },
    {
      "anonymous": false,
      "inputs": [
        {
          "indexed": true,
          "internalType": "address",
          "name": "from",
          "type": "address"
        },
        {
          "indexed": true,
          "internalType": "address",
          "name": "to",
          "type": "address"
        },
        {
          "indexed": true,
          "internalType": "uint256",
          "name": "tokenId",
          "type": "uint256"
        }
      ],
      "name": "Transfer",
      "type": "event"
    },
    {
      "inputs": [
        {
          "internalType": "address",
          "name": "to",
          "type": "address"
        },
        {
          "internalType": "uint256",
          "name": "tokenId",
          "type": "uint256"
        }
      ],
      "name": "approve",
      "outputs": [],
      "stateMutability": "nonpayable",
      "type": "function"
    },
    {
      "inputs": [
        {
          "internalType": "address",
          "name": "owner",
          "type": "address"
        }
      ],
      "name": "balanceOf",
      "outputs": [
        {
          "internalType": "uint256",
          "name": "",
          "type": "uint256"
        }
      ],
      "stateMutability": "view",
      "type": "function"
    },
    {
      "inputs": [
        {
          "internalType": "uint256",
          "name": "tokenId",
          "type": "uint256"
        }
      ],
      "name": "getApproved",
      "outputs": [
        {
          "internalType": "address",
          "name": "",
          "type": "address"
        }
      ],
      "stateMutability": "view",
      "type": "function"
    },
    {
      "inputs": [
        {
          "internalType": "uint256",
          "name": "_idToken",
          "type": "uint256"
        }
      ],
      "name": "getDadesVacuna",
      "outputs": [
        {
          "components": [
            {
              "internalType": "string",
              "name": "idVacuna",
              "type": "string"
            },
            {
              "internalType": "bool",
              "name": "termolabil",
              "type": "bool"
            },
            {
              "internalType": "int16",
              "name": "tempConservacio",
              "type": "int16"
            },
            {
              "internalType": "string",
              "name": "dataCaducitat",
              "type": "string"
            },
            {
              "internalType": "bool",
              "name": "asignadaLot",
              "type": "bool"
            },
            {
              "internalType": "bool",
              "name": "administrada",
              "type": "bool"
            }
          ],
          "internalType": "struct VacunaTK.Vacuna",
          "name": "",
          "type": "tuple"
        }
      ],
      "stateMutability": "view",
      "type": "function"
    },
    {
      "inputs": [],
      "name": "getOwner",
      "outputs": [
        {
          "internalType": "address",
          "name": "",
          "type": "address"
        }
      ],
      "stateMutability": "view",
      "type": "function"
    },
    {
      "inputs": [
        {
          "internalType": "address",
          "name": "_creadorVacuna",
          "type": "address"
        }
      ],
      "name": "getVacunesEmpresa",
      "outputs": [
        {
          "components": [
            {
              "internalType": "string",
              "name": "idVacuna",
              "type": "string"
            },
            {
              "internalType": "bool",
              "name": "termolabil",
              "type": "bool"
            },
            {
              "internalType": "int16",
              "name": "tempConservacio",
              "type": "int16"
            },
            {
              "internalType": "string",
              "name": "dataCaducitat",
              "type": "string"
            },
            {
              "internalType": "bool",
              "name": "asignadaLot",
              "type": "bool"
            },
            {
              "internalType": "bool",
              "name": "administrada",
              "type": "bool"
            }
          ],
          "internalType": "struct VacunaTK.Vacuna[]",
          "name": "",
          "type": "tuple[]"
        }
      ],
      "stateMutability": "view",
      "type": "function"
    },
    {
      "inputs": [
        {
          "internalType": "address",
          "name": "owner",
          "type": "address"
        },
        {
          "internalType": "address",
          "name": "operator",
          "type": "address"
        }
      ],
      "name": "isApprovedForAll",
      "outputs": [
        {
          "internalType": "bool",
          "name": "",
          "type": "bool"
        }
      ],
      "stateMutability": "view",
      "type": "function"
    },
    {
      "inputs": [
        {
          "internalType": "address",
          "name": "to",
          "type": "address"
        },
        {
          "internalType": "string",
          "name": "_idVacuna",
          "type": "string"
        },
        {
          "internalType": "bool",
          "name": "_termolabil",
          "type": "bool"
        },
        {
          "internalType": "int16",
          "name": "_tempConservacio",
          "type": "int16"
        },
        {
          "internalType": "string",
          "name": "_dataCaducitat",
          "type": "string"
        }
      ],
      "name": "mint",
      "outputs": [],
      "stateMutability": "nonpayable",
      "type": "function"
    },
    {
      "inputs": [],
      "name": "name",
      "outputs": [
        {
          "internalType": "string",
          "name": "",
          "type": "string"
        }
      ],
      "stateMutability": "view",
      "type": "function"
    },
    {
      "inputs": [],
      "name": "owner",
      "outputs": [
        {
          "internalType": "address",
          "name": "",
          "type": "address"
        }
      ],
      "stateMutability": "view",
      "type": "function"
    },
    {
      "inputs": [
        {
          "internalType": "uint256",
          "name": "tokenId",
          "type": "uint256"
        }
      ],
      "name": "ownerOf",
      "outputs": [
        {
          "internalType": "address",
          "name": "",
          "type": "address"
        }
      ],
      "stateMutability": "view",
      "type": "function"
    },
    {
      "inputs": [
        {
          "internalType": "address",
          "name": "to",
          "type": "address"
        },
        {
          "components": [
            {
              "internalType": "string",
              "name": "idVacuna",
              "type": "string"
            },
            {
              "internalType": "bool",
              "name": "termolabil",
              "type": "bool"
            },
            {
              "internalType": "int16",
              "name": "tempConservacio",
              "type": "int16"
            },
            {
              "internalType": "string",
              "name": "dataCaducitat",
              "type": "string"
            },
            {
              "internalType": "bool",
              "name": "asignadaLot",
              "type": "bool"
            },
            {
              "internalType": "bool",
              "name": "administrada",
              "type": "bool"
            }
          ],
          "internalType": "struct VacunaTK.Vacuna",
          "name": "_newVacuna",
          "type": "tuple"
        }
      ],
      "name": "safeMint",
      "outputs": [],
      "stateMutability": "nonpayable",
      "type": "function"
    },
    {
      "inputs": [
        {
          "internalType": "address",
          "name": "from",
          "type": "address"
        },
        {
          "internalType": "address",
          "name": "to",
          "type": "address"
        },
        {
          "internalType": "uint256",
          "name": "tokenId",
          "type": "uint256"
        }
      ],
      "name": "safeTransferFrom",
      "outputs": [],
      "stateMutability": "nonpayable",
      "type": "function"
    },
    {
      "inputs": [
        {
          "internalType": "address",
          "name": "_from",
          "type": "address"
        },
        {
          "internalType": "address",
          "name": "_to",
          "type": "address"
        },
        {
          "internalType": "uint256",
          "name": "_tokenId",
          "type": "uint256"
        },
        {
          "internalType": "bytes",
          "name": "_data",
          "type": "bytes"
        }
      ],
      "name": "safeTransferFrom",
      "outputs": [],
      "stateMutability": "nonpayable",
      "type": "function"
    },
    {
      "inputs": [
        {
          "internalType": "address",
          "name": "operator",
          "type": "address"
        },
        {
          "internalType": "bool",
          "name": "approved",
          "type": "bool"
        }
      ],
      "name": "setApprovalForAll",
      "outputs": [],
      "stateMutability": "nonpayable",
      "type": "function"
    },
    {
      "inputs": [
        {
          "internalType": "bytes4",
          "name": "interfaceId",
          "type": "bytes4"
        }
      ],
      "name": "supportsInterface",
      "outputs": [
        {
          "internalType": "bool",
          "name": "",
          "type": "bool"
        }
      ],
      "stateMutability": "view",
      "type": "function"
    },
    {
      "inputs": [],
      "name": "symbol",
      "outputs": [
        {
          "internalType": "string",
          "name": "",
          "type": "string"
        }
      ],
      "stateMutability": "view",
      "type": "function"
    },
    {
      "inputs": [
        {
          "internalType": "uint256",
          "name": "tokenId",
          "type": "uint256"
        }
      ],
      "name": "tokenURI",
      "outputs": [
        {
          "internalType": "string",
          "name": "",
          "type": "string"
        }
      ],
      "stateMutability": "view",
      "type": "function"
    },
    {
      "inputs": [
        {
          "internalType": "address",
          "name": "from",
          "type": "address"
        },
        {
          "internalType": "address",
          "name": "to",
          "type": "address"
        },
        {
          "internalType": "uint256",
          "name": "tokenId",
          "type": "uint256"
        }
      ],
      "name": "transferFrom",
      "outputs": [],
      "stateMutability": "nonpayable",
      "type": "function"
    }
  ],
  "bytecode": "0x6080604052600060085534801561001557600080fd5b5060405180604001604052806008815260200167566163756e61544b60c01b8152506040518060400160405280600381526020016256544b60e81b81525081600090816100629190610116565b50600161006f8282610116565b5050506101d4565b634e487b7160e01b600052604160045260246000fd5b600181811c908216806100a157607f821691505b6020821081036100c157634e487b7160e01b600052602260045260246000fd5b50919050565b601f82111561011157806000526020600020601f840160051c810160208510156100ee5750805b601f840160051c820191505b8181101561010e57600081556001016100fa565b50505b505050565b81516001600160401b0381111561012f5761012f610077565b6101438161013d845461008d565b846100c7565b6020601f821160018114610177576000831561015f5750848201515b600019600385901b1c1916600184901b17845561010e565b600084815260208120601f198516915b828110156101a75787850151825560209485019460019092019101610187565b50848210156101c55786840151600019600387901b60f8161c191681555b50505050600190811b01905550565b611b62806101e36000396000f3fe608060405234801561001057600080fd5b50600436106101515760003560e01c80636352211e116100cd578063a22cb46511610081578063c87b56dd11610066578063c87b56dd146102c5578063d61435db146102d8578063e985e9c5146102f857600080fd5b8063a22cb4651461029f578063b88d4fde146102b257600080fd5b8063893d20e8116100b2578063893d20e8146102735780638da5cb5b1461028457806395d89b411461029757600080fd5b80636352211e1461023f57806370a082311461025257600080fd5b80630fa088a51161012457806342842e0e1161010957806342842e0e146102065780634d723bf0146102195780635d5ae74c1461022c57600080fd5b80630fa088a5146101d357806323b872dd146101f357600080fd5b806301ffc9a71461015657806306fdde031461017e578063081812fc14610193578063095ea7b3146101be575b600080fd5b6101696101643660046113ba565b610334565b60405190151581526020015b60405180910390f35b6101866103d1565b6040516101759190611427565b6101a66101a136600461143a565b610463565b6040516001600160a01b039091168152602001610175565b6101d16101cc36600461146f565b61048c565b005b6101e66101e1366004611499565b61049b565b6040516101759190611520565b6101d1610201366004611585565b61067e565b6101d1610214366004611585565b610727565b6101d16102273660046116bd565b610747565b6101d161023a366004611758565b610845565b6101a661024d36600461143a565b610908565b610265610260366004611499565b610913565b604051908152602001610175565b6009546001600160a01b03166101a6565b6009546101a6906001600160a01b031681565b610186610974565b6101d16102ad36600461184c565b610983565b6101d16102c036600461187f565b61098e565b6101866102d336600461143a565b6109b6565b6102eb6102e636600461143a565b610a2b565b60405161017591906118fb565b61016961030636600461190e565b6001600160a01b03918216600090815260056020908152604080832093909416825291909152205460ff1690565b60006001600160e01b031982167f80ac58cd00000000000000000000000000000000000000000000000000000000148061039757506001600160e01b031982167f5b5e139f00000000000000000000000000000000000000000000000000000000145b806103cb57507f01ffc9a7000000000000000000000000000000000000000000000000000000006001600160e01b03198316145b92915050565b6060600080546103e090611938565b80601f016020809104026020016040519081016040528092919081815260200182805461040c90611938565b80156104595780601f1061042e57610100808354040283529160200191610459565b820191906000526020600020905b81548152906001019060200180831161043c57829003601f168201915b5050505050905090565b600061046e82610be0565b506000828152600460205260409020546001600160a01b03166103cb565b610497828233610c19565b5050565b6001600160a01b0381166000908152600760209081526040808320805482518185028101850190935280835260609492939192909184015b8282101561067357838290600052602060002090600402016040518060c001604052908160008201805461050690611938565b80601f016020809104026020016040519081016040528092919081815260200182805461053290611938565b801561057f5780601f106105545761010080835404028352916020019161057f565b820191906000526020600020905b81548152906001019060200180831161056257829003601f168201915b505050918352505060018281015460ff8116151560208401526101009004900b60408201526002820180546060909201916105b990611938565b80601f01602080910402602001604051908101604052809291908181526020018280546105e590611938565b80156106325780601f1061060757610100808354040283529160200191610632565b820191906000526020600020905b81548152906001019060200180831161061557829003601f168201915b50505091835250506003919091015460ff808216151560208085019190915261010090920416151560409092019190915290825260019290920191016104d3565b505050509050919050565b6001600160a01b0382166106ad57604051633250574960e11b8152600060048201526024015b60405180910390fd5b60006106ba838333610c26565b9050836001600160a01b0316816001600160a01b031614610721576040517f64283d7b0000000000000000000000000000000000000000000000000000000081526001600160a01b03808616600483015260248201849052821660448201526064016106a4565b50505050565b6107428383836040518060200160405280600081525061098e565b505050565b6040805160c081018252858152841515602080830191909152600185810b838501526060830185905260006080840181905260a084018190526001600160a01b038a16815260078352938420805491820181558452922081519192839260049091029091019081906107b990826119b9565b506020820151600182018054604085015161ffff166101000262ffff00199315159390931662ffffff19909116179190911790556060820151600282019061080190826119b9565b5060808201516003909101805460a09093015115156101000261ff00199215159290921661ffff199093169290921717905561083d8682610845565b505050505050565b60085460009081526006602052604090208151829190819061086790826119b9565b506020820151600182018054604085015161ffff166101000262ffff00199315159390931662ffffff1990911617919091179055606082015160028201906108af90826119b9565b5060808201516003909101805460a09093015115156101000261ff00199215159290921661ffff19909316929092171790556008546108ef908390610d2c565b600880549060006108ff83611a78565b91905055505050565b60006103cb82610be0565b60006001600160a01b038216610958576040517f89c62b64000000000000000000000000000000000000000000000000000000008152600060048201526024016106a4565b506001600160a01b031660009081526003602052604090205490565b6060600180546103e090611938565b610497338383610d46565b6000828152600660205260409020600301805460ff1916600117905561072184848484610dfe565b60606109c182610be0565b5060006109d960408051602081019091526000815290565b905060008151116109f95760405180602001604052806000815250610a24565b80610a0384610e16565b604051602001610a14929190611a9f565b6040516020818303038152906040525b9392505050565b6040805160c0810182526060808252600060208301819052928201839052808201526080810182905260a081019190915260008281526006602052604090819020815160c08101909252805482908290610a8490611938565b80601f0160208091040260200160405190810160405280929190818152602001828054610ab090611938565b8015610afd5780601f10610ad257610100808354040283529160200191610afd565b820191906000526020600020905b815481529060010190602001808311610ae057829003601f168201915b505050918352505060018281015460ff8116151560208401526101009004900b6040820152600282018054606090920191610b3790611938565b80601f0160208091040260200160405190810160405280929190818152602001828054610b6390611938565b8015610bb05780601f10610b8557610100808354040283529160200191610bb0565b820191906000526020600020905b815481529060010190602001808311610b9357829003601f168201915b50505091835250506003919091015460ff8082161515602084015261010090910416151560409091015292915050565b6000818152600260205260408120546001600160a01b0316806103cb57604051637e27328960e01b8152600481018490526024016106a4565b6107428383836001610eb6565b6000828152600260205260408120546001600160a01b0390811690831615610c5357610c53818486611001565b6001600160a01b03811615610c9157610c70600085600080610eb6565b6001600160a01b038116600090815260036020526040902080546000190190555b6001600160a01b03851615610cc0576001600160a01b0385166000908152600360205260409020805460010190555b600084815260026020526040808220805473ffffffffffffffffffffffffffffffffffffffff19166001600160a01b0389811691821790925591518793918516917fddf252ad1be2c89b69c2b068fc378daa952ba7f163c4a11628f55a4df523b3ef91a4949350505050565b61049782826040518060200160405280600081525061107e565b6001600160a01b038216610d91576040517f5b08ba180000000000000000000000000000000000000000000000000000000081526001600160a01b03831660048201526024016106a4565b6001600160a01b03838116600081815260056020908152604080832094871680845294825291829020805460ff191686151590811790915591519182527f17307eab39ab6107e8899845ad3d59bd9653f200f220920489ca2b5937696c31910160405180910390a3505050565b610e0984848461067e565b6107213385858585611092565b60606000610e23836111bb565b600101905060008167ffffffffffffffff811115610e4357610e436115c2565b6040519080825280601f01601f191660200182016040528015610e6d576020820181803683370190505b5090508181016020015b600019017f3031323334353637383961626364656600000000000000000000000000000000600a86061a8153600a8504945084610e7757509392505050565b8080610eca57506001600160a01b03821615155b15610fc4576000610eda84610be0565b90506001600160a01b03831615801590610f065750826001600160a01b0316816001600160a01b031614155b8015610f3857506001600160a01b0380821660009081526005602090815260408083209387168352929052205460ff16155b15610f7a576040517fa9fbf51f0000000000000000000000000000000000000000000000000000000081526001600160a01b03841660048201526024016106a4565b8115610fc25783856001600160a01b0316826001600160a01b03167f8c5be1e5ebec7d5bd14f71427d1e84f3dd0314c0f7b2291e5b200ac8c7c3b92560405160405180910390a45b505b50506000908152600460205260409020805473ffffffffffffffffffffffffffffffffffffffff19166001600160a01b0392909216919091179055565b61100c83838361129d565b610742576001600160a01b03831661103a57604051637e27328960e01b8152600481018290526024016106a4565b6040517f177e802f0000000000000000000000000000000000000000000000000000000081526001600160a01b0383166004820152602481018290526044016106a4565b6110888383611323565b6107423360008585855b6001600160a01b0383163b156111b457604051630a85bd0160e11b81526001600160a01b0384169063150b7a02906110d4908890889087908790600401611ace565b6020604051808303816000875af192505050801561110f575060408051601f3d908101601f1916820190925261110c91810190611b0f565b60015b611178573d80801561113d576040519150601f19603f3d011682016040523d82523d6000602084013e611142565b606091505b50805160000361117057604051633250574960e11b81526001600160a01b03851660048201526024016106a4565b805181602001fd5b6001600160e01b03198116630a85bd0160e11b1461083d57604051633250574960e11b81526001600160a01b03851660048201526024016106a4565b5050505050565b6000807a184f03e93ff9f4daa797ed6e38ed64bf6a1f0100000000000000008310611204577a184f03e93ff9f4daa797ed6e38ed64bf6a1f010000000000000000830492506040015b6d04ee2d6d415b85acef81000000008310611230576d04ee2d6d415b85acef8100000000830492506020015b662386f26fc10000831061124e57662386f26fc10000830492506010015b6305f5e1008310611266576305f5e100830492506008015b612710831061127a57612710830492506004015b6064831061128c576064830492506002015b600a83106103cb5760010192915050565b60006001600160a01b0383161580159061131b5750826001600160a01b0316846001600160a01b031614806112f757506001600160a01b0380851660009081526005602090815260408083209387168352929052205460ff165b8061131b57506000828152600460205260409020546001600160a01b038481169116145b949350505050565b6001600160a01b03821661134d57604051633250574960e11b8152600060048201526024016106a4565b600061135b83836000610c26565b90506001600160a01b03811615610742576040517f73c6ac6e000000000000000000000000000000000000000000000000000000008152600060048201526024016106a4565b6001600160e01b0319811681146113b757600080fd5b50565b6000602082840312156113cc57600080fd5b8135610a24816113a1565b60005b838110156113f25781810151838201526020016113da565b50506000910152565b600081518084526114138160208601602086016113d7565b601f01601f19169290920160200192915050565b602081526000610a2460208301846113fb565b60006020828403121561144c57600080fd5b5035919050565b80356001600160a01b038116811461146a57600080fd5b919050565b6000806040838503121561148257600080fd5b61148b83611453565b946020939093013593505050565b6000602082840312156114ab57600080fd5b610a2482611453565b6000815160c084526114c960c08501826113fb565b9050602083015115156020850152604083015160010b6040850152606083015184820360608601526114fb82826113fb565b91505060808301511515608085015260a0830151151560a08501528091505092915050565b6000602082016020835280845180835260408501915060408160051b86010192506020860160005b8281101561157957603f198786030184526115648583516114b4565b94506020938401939190910190600101611548565b50929695505050505050565b60008060006060848603121561159a57600080fd5b6115a384611453565b92506115b160208501611453565b929592945050506040919091013590565b634e487b7160e01b600052604160045260246000fd5b60405160c0810167ffffffffffffffff811182821017156115fb576115fb6115c2565b60405290565b60008067ffffffffffffffff84111561161c5761161c6115c2565b50604051601f19601f85018116603f0116810181811067ffffffffffffffff8211171561164b5761164b6115c2565b60405283815290508082840185101561166357600080fd5b83836020830137600060208583010152509392505050565b600082601f83011261168c57600080fd5b610a2483833560208501611601565b8035801515811461146a57600080fd5b8035600181900b811461146a57600080fd5b600080600080600060a086880312156116d557600080fd5b6116de86611453565b9450602086013567ffffffffffffffff8111156116fa57600080fd5b6117068882890161167b565b9450506117156040870161169b565b9250611723606087016116ab565b9150608086013567ffffffffffffffff81111561173f57600080fd5b61174b8882890161167b565b9150509295509295909350565b6000806040838503121561176b57600080fd5b61177483611453565b9150602083013567ffffffffffffffff81111561179057600080fd5b830160c081860312156117a257600080fd5b6117aa6115d8565b813567ffffffffffffffff8111156117c157600080fd5b6117cd8782850161167b565b8252506117dc6020830161169b565b60208201526117ed604083016116ab565b6040820152606082013567ffffffffffffffff81111561180c57600080fd5b6118188782850161167b565b60608301525061182a6080830161169b565b608082015261183b60a0830161169b565b60a082015280925050509250929050565b6000806040838503121561185f57600080fd5b61186883611453565b91506118766020840161169b565b90509250929050565b6000806000806080858703121561189557600080fd5b61189e85611453565b93506118ac60208601611453565b925060408501359150606085013567ffffffffffffffff8111156118cf57600080fd5b8501601f810187136118e057600080fd5b6118ef87823560208401611601565b91505092959194509250565b602081526000610a2460208301846114b4565b6000806040838503121561192157600080fd5b61192a83611453565b915061187660208401611453565b600181811c9082168061194c57607f821691505b60208210810361196c57634e487b7160e01b600052602260045260246000fd5b50919050565b601f82111561074257806000526020600020601f840160051c810160208510156119995750805b601f840160051c820191505b818110156111b457600081556001016119a5565b815167ffffffffffffffff8111156119d3576119d36115c2565b6119e7816119e18454611938565b84611972565b6020601f821160018114611a1b5760008315611a035750848201515b600019600385901b1c1916600184901b1784556111b4565b600084815260208120601f198516915b82811015611a4b5787850151825560209485019460019092019101611a2b565b5084821015611a695786840151600019600387901b60f8161c191681555b50505050600190811b01905550565b600060018201611a9857634e487b7160e01b600052601160045260246000fd5b5060010190565b60008351611ab18184602088016113d7565b835190830190611ac58183602088016113d7565b01949350505050565b6001600160a01b03851681526001600160a01b0384166020820152826040820152608060608201526000611b0560808301846113fb565b9695505050505050565b600060208284031215611b2157600080fd5b8151610a24816113a156fea26469706673582212202535e7b64ba163e6a97b7798fd1d78d627e2cf9f08f3b539fb17b37fddc5244c64736f6c634300081c0033",
  "linkReferences": {},
  "deployedLinkReferences": {}
}