{
  "_format": "hh-sol-artifact-1",
  "contractName": "VacunaTK",
  "sourceName": "contracts/VacunaTK.sol",
  "abi": [
    {
      "inputs": [],
      "stateMutability": "nonpayable",
      "type": "constructor"
    },
    {
      "inputs": [
        {
          "internalType": "address",
          "name": "sender",
          "type": "address"
        },
        {
          "internalType": "uint256",
          "name": "tokenId",
          "type": "uint256"
        },
        {
          "internalType": "address",
          "name": "owner",
          "type": "address"
        }
      ],
      "name": "ERC721IncorrectOwner",
      "type": "error"
    },
    {
      "inputs": [
        {
          "internalType": "address",
          "name": "operator",
          "type": "address"
        },
        {
          "internalType": "uint256",
          "name": "tokenId",
          "type": "uint256"
        }
      ],
      "name": "ERC721InsufficientApproval",
      "type": "error"
    },
    {
      "inputs": [
        {
          "internalType": "address",
          "name": "approver",
          "type": "address"
        }
      ],
      "name": "ERC721InvalidApprover",
      "type": "error"
    },
    {
      "inputs": [
        {
          "internalType": "address",
          "name": "operator",
          "type": "address"
        }
      ],
      "name": "ERC721InvalidOperator",
      "type": "error"
    },
    {
      "inputs": [
        {
          "internalType": "address",
          "name": "owner",
          "type": "address"
        }
      ],
      "name": "ERC721InvalidOwner",
      "type": "error"
    },
    {
      "inputs": [
        {
          "internalType": "address",
          "name": "receiver",
          "type": "address"
        }
      ],
      "name": "ERC721InvalidReceiver",
      "type": "error"
    },
    {
      "inputs": [
        {
          "internalType": "address",
          "name": "sender",
          "type": "address"
        }
      ],
      "name": "ERC721InvalidSender",
      "type": "error"
    },
    {
      "inputs": [
        {
          "internalType": "uint256",
          "name": "tokenId",
          "type": "uint256"
        }
      ],
      "name": "ERC721NonexistentToken",
      "type": "error"
    },
    {
      "anonymous": false,
      "inputs": [
        {
          "indexed": true,
          "internalType": "address",
          "name": "owner",
          "type": "address"
        },
        {
          "indexed": true,
          "internalType": "address",
          "name": "approved",
          "type": "address"
        },
        {
          "indexed": true,
          "internalType": "uint256",
          "name": "tokenId",
          "type": "uint256"
        }
      ],
      "name": "Approval",
      "type": "event"
    },
    {
      "anonymous": false,
      "inputs": [
        {
          "indexed": true,
          "internalType": "address",
          "name": "owner",
          "type": "address"
        },
        {
          "indexed": true,
          "internalType": "address",
          "name": "operator",
          "type": "address"
        },
        {
          "indexed": false,
          "internalType": "bool",
          "name": "approved",
          "type": "bool"
        }
      ],
      "name": "ApprovalForAll",
      "type": "event"
    },
    {
      "anonymous": false,
      "inputs": [
        {
          "indexed": true,
          "internalType": "address",
          "name": "from",
          "type": "address"
        },
        {
          "indexed": true,
          "internalType": "address",
          "name": "to",
          "type": "address"
        },
        {
          "indexed": true,
          "internalType": "uint256",
          "name": "tokenId",
          "type": "uint256"
        }
      ],
      "name": "Transfer",
      "type": "event"
    },
    {
      "inputs": [
        {
          "internalType": "address",
          "name": "to",
          "type": "address"
        },
        {
          "internalType": "uint256",
          "name": "tokenId",
          "type": "uint256"
        }
      ],
      "name": "approve",
      "outputs": [],
      "stateMutability": "nonpayable",
      "type": "function"
    },
    {
      "inputs": [
        {
          "internalType": "address",
          "name": "owner",
          "type": "address"
        }
      ],
      "name": "balanceOf",
      "outputs": [
        {
          "internalType": "uint256",
          "name": "",
          "type": "uint256"
        }
      ],
      "stateMutability": "view",
      "type": "function"
    },
    {
      "inputs": [
        {
          "internalType": "uint256",
          "name": "tokenId",
          "type": "uint256"
        }
      ],
      "name": "getApproved",
      "outputs": [
        {
          "internalType": "address",
          "name": "",
          "type": "address"
        }
      ],
      "stateMutability": "view",
      "type": "function"
    },
    {
      "inputs": [
        {
          "internalType": "uint256",
          "name": "_idToken",
          "type": "uint256"
        }
      ],
      "name": "getDadesVacuna",
      "outputs": [
        {
          "components": [
            {
              "internalType": "uint256",
              "name": "idToken",
              "type": "uint256"
            },
            {
              "internalType": "string",
              "name": "idVacuna",
              "type": "string"
            },
            {
              "internalType": "bool",
              "name": "termolabil",
              "type": "bool"
            },
            {
              "internalType": "int16",
              "name": "tempConservacio",
              "type": "int16"
            },
            {
              "internalType": "string",
              "name": "dataCaducitat",
              "type": "string"
            },
            {
              "internalType": "bool",
              "name": "asignadaLot",
              "type": "bool"
            },
            {
              "internalType": "bool",
              "name": "administrada",
              "type": "bool"
            }
          ],
          "internalType": "struct VacunaTK.Vacuna",
          "name": "",
          "type": "tuple"
        }
      ],
      "stateMutability": "view",
      "type": "function"
    },
    {
      "inputs": [],
      "name": "getOwner",
      "outputs": [
        {
          "internalType": "address",
          "name": "",
          "type": "address"
        }
      ],
      "stateMutability": "view",
      "type": "function"
    },
    {
      "inputs": [
        {
          "internalType": "address",
          "name": "_creadorVacuna",
          "type": "address"
        }
      ],
      "name": "getVacunesEmpresa",
      "outputs": [
        {
          "components": [
            {
              "internalType": "uint256",
              "name": "idToken",
              "type": "uint256"
            },
            {
              "internalType": "string",
              "name": "idVacuna",
              "type": "string"
            },
            {
              "internalType": "bool",
              "name": "termolabil",
              "type": "bool"
            },
            {
              "internalType": "int16",
              "name": "tempConservacio",
              "type": "int16"
            },
            {
              "internalType": "string",
              "name": "dataCaducitat",
              "type": "string"
            },
            {
              "internalType": "bool",
              "name": "asignadaLot",
              "type": "bool"
            },
            {
              "internalType": "bool",
              "name": "administrada",
              "type": "bool"
            }
          ],
          "internalType": "struct VacunaTK.Vacuna[]",
          "name": "",
          "type": "tuple[]"
        }
      ],
      "stateMutability": "view",
      "type": "function"
    },
    {
      "inputs": [
        {
          "internalType": "address",
          "name": "owner",
          "type": "address"
        },
        {
          "internalType": "address",
          "name": "operator",
          "type": "address"
        }
      ],
      "name": "isApprovedForAll",
      "outputs": [
        {
          "internalType": "bool",
          "name": "",
          "type": "bool"
        }
      ],
      "stateMutability": "view",
      "type": "function"
    },
    {
      "inputs": [
        {
          "internalType": "address",
          "name": "to",
          "type": "address"
        },
        {
          "internalType": "string",
          "name": "_idVacuna",
          "type": "string"
        },
        {
          "internalType": "bool",
          "name": "_termolabil",
          "type": "bool"
        },
        {
          "internalType": "int16",
          "name": "_tempConservacio",
          "type": "int16"
        },
        {
          "internalType": "string",
          "name": "_dataCaducitat",
          "type": "string"
        }
      ],
      "name": "mint",
      "outputs": [],
      "stateMutability": "nonpayable",
      "type": "function"
    },
    {
      "inputs": [],
      "name": "name",
      "outputs": [
        {
          "internalType": "string",
          "name": "",
          "type": "string"
        }
      ],
      "stateMutability": "view",
      "type": "function"
    },
    {
      "inputs": [],
      "name": "owner",
      "outputs": [
        {
          "internalType": "address",
          "name": "",
          "type": "address"
        }
      ],
      "stateMutability": "view",
      "type": "function"
    },
    {
      "inputs": [
        {
          "internalType": "uint256",
          "name": "tokenId",
          "type": "uint256"
        }
      ],
      "name": "ownerOf",
      "outputs": [
        {
          "internalType": "address",
          "name": "",
          "type": "address"
        }
      ],
      "stateMutability": "view",
      "type": "function"
    },
    {
      "inputs": [
        {
          "internalType": "address",
          "name": "to",
          "type": "address"
        },
        {
          "components": [
            {
              "internalType": "uint256",
              "name": "idToken",
              "type": "uint256"
            },
            {
              "internalType": "string",
              "name": "idVacuna",
              "type": "string"
            },
            {
              "internalType": "bool",
              "name": "termolabil",
              "type": "bool"
            },
            {
              "internalType": "int16",
              "name": "tempConservacio",
              "type": "int16"
            },
            {
              "internalType": "string",
              "name": "dataCaducitat",
              "type": "string"
            },
            {
              "internalType": "bool",
              "name": "asignadaLot",
              "type": "bool"
            },
            {
              "internalType": "bool",
              "name": "administrada",
              "type": "bool"
            }
          ],
          "internalType": "struct VacunaTK.Vacuna",
          "name": "_newVacuna",
          "type": "tuple"
        }
      ],
      "name": "safeMint",
      "outputs": [],
      "stateMutability": "nonpayable",
      "type": "function"
    },
    {
      "inputs": [
        {
          "internalType": "address",
          "name": "from",
          "type": "address"
        },
        {
          "internalType": "address",
          "name": "to",
          "type": "address"
        },
        {
          "internalType": "uint256",
          "name": "tokenId",
          "type": "uint256"
        }
      ],
      "name": "safeTransferFrom",
      "outputs": [],
      "stateMutability": "nonpayable",
      "type": "function"
    },
    {
      "inputs": [
        {
          "internalType": "address",
          "name": "_from",
          "type": "address"
        },
        {
          "internalType": "address",
          "name": "_to",
          "type": "address"
        },
        {
          "internalType": "uint256",
          "name": "_tokenId",
          "type": "uint256"
        },
        {
          "internalType": "bytes",
          "name": "_data",
          "type": "bytes"
        }
      ],
      "name": "safeTransferFrom",
      "outputs": [],
      "stateMutability": "nonpayable",
      "type": "function"
    },
    {
      "inputs": [
        {
          "internalType": "address",
          "name": "operator",
          "type": "address"
        },
        {
          "internalType": "bool",
          "name": "approved",
          "type": "bool"
        }
      ],
      "name": "setApprovalForAll",
      "outputs": [],
      "stateMutability": "nonpayable",
      "type": "function"
    },
    {
      "inputs": [
        {
          "internalType": "bytes4",
          "name": "interfaceId",
          "type": "bytes4"
        }
      ],
      "name": "supportsInterface",
      "outputs": [
        {
          "internalType": "bool",
          "name": "",
          "type": "bool"
        }
      ],
      "stateMutability": "view",
      "type": "function"
    },
    {
      "inputs": [],
      "name": "symbol",
      "outputs": [
        {
          "internalType": "string",
          "name": "",
          "type": "string"
        }
      ],
      "stateMutability": "view",
      "type": "function"
    },
    {
      "inputs": [
        {
          "internalType": "uint256",
          "name": "tokenId",
          "type": "uint256"
        }
      ],
      "name": "tokenURI",
      "outputs": [
        {
          "internalType": "string",
          "name": "",
          "type": "string"
        }
      ],
      "stateMutability": "view",
      "type": "function"
    },
    {
      "inputs": [
        {
          "internalType": "address",
          "name": "from",
          "type": "address"
        },
        {
          "internalType": "address",
          "name": "to",
          "type": "address"
        },
        {
          "internalType": "uint256",
          "name": "tokenId",
          "type": "uint256"
        }
      ],
      "name": "transferFrom",
      "outputs": [],
      "stateMutability": "nonpayable",
      "type": "function"
    }
  ],
  "bytecode": "0x6080604052600060085534801561001557600080fd5b5060405180604001604052806008815260200167566163756e61544b60c01b8152506040518060400160405280600381526020016256544b60e81b81525081600090816100629190610116565b50600161006f8282610116565b5050506101d4565b634e487b7160e01b600052604160045260246000fd5b600181811c908216806100a157607f821691505b6020821081036100c157634e487b7160e01b600052602260045260246000fd5b50919050565b601f82111561011157806000526020600020601f840160051c810160208510156100ee5750805b601f840160051c820191505b8181101561010e57600081556001016100fa565b50505b505050565b81516001600160401b0381111561012f5761012f610077565b6101438161013d845461008d565b846100c7565b6020601f821160018114610177576000831561015f5750848201515b600019600385901b1c1916600184901b17845561010e565b600084815260208120601f198516915b828110156101a75787850151825560209485019460019092019101610187565b50848210156101c55786840151600019600387901b60f8161c191681555b50505050600190811b01905550565b611bba806101e36000396000f3fe608060405234801561001057600080fd5b50600436106101515760003560e01c806370a08231116100cd578063a22cb46511610081578063c87b56dd11610066578063c87b56dd146102c5578063d61435db146102d8578063e985e9c5146102f857600080fd5b8063a22cb4651461029f578063b88d4fde146102b257600080fd5b80638da5cb5b116100b25780638da5cb5b1461027157806393920b701461028457806395d89b411461029757600080fd5b806370a082311461023f578063893d20e81461026057600080fd5b80630fa088a51161012457806342842e0e1161010957806342842e0e146102065780634d723bf0146102195780636352211e1461022c57600080fd5b80630fa088a5146101d357806323b872dd146101f357600080fd5b806301ffc9a71461015657806306fdde031461017e578063081812fc14610193578063095ea7b3146101be575b600080fd5b610169610164366004611401565b610334565b60405190151581526020015b60405180910390f35b6101866103d1565b604051610175919061146e565b6101a66101a1366004611481565b610463565b6040516001600160a01b039091168152602001610175565b6101d16101cc3660046114b6565b61048c565b005b6101e66101e13660046114e0565b61049b565b604051610175919061156e565b6101d16102013660046115d3565b610688565b6101d16102143660046115d3565b610731565b6101d161022736600461170b565b610751565b6101a661023a366004611481565b610870565b61025261024d3660046114e0565b61087b565b604051908152602001610175565b6009546001600160a01b03166101a6565b6009546101a6906001600160a01b031681565b6101d16102923660046117a6565b6108dc565b610186610990565b6101d16102ad3660046118a4565b61099f565b6101d16102c03660046118d7565b6109aa565b6101866102d3366004611481565b6109d2565b6102eb6102e6366004611481565b610a47565b6040516101759190611953565b610169610306366004611966565b6001600160a01b03918216600090815260056020908152604080832093909416825291909152205460ff1690565b60006001600160e01b031982167f80ac58cd00000000000000000000000000000000000000000000000000000000148061039757506001600160e01b031982167f5b5e139f00000000000000000000000000000000000000000000000000000000145b806103cb57507f01ffc9a7000000000000000000000000000000000000000000000000000000006001600160e01b03198316145b92915050565b6060600080546103e090611990565b80601f016020809104026020016040519081016040528092919081815260200182805461040c90611990565b80156104595780601f1061042e57610100808354040283529160200191610459565b820191906000526020600020905b81548152906001019060200180831161043c57829003601f168201915b5050505050905090565b600061046e82610c24565b506000828152600460205260409020546001600160a01b03166103cb565b610497828233610c5d565b5050565b6001600160a01b0381166000908152600760209081526040808320805482518185028101850190935280835260609492939192909184015b8282101561067d57838290600052602060002090600502016040518060e00160405290816000820154815260200160018201805461051090611990565b80601f016020809104026020016040519081016040528092919081815260200182805461053c90611990565b80156105895780601f1061055e57610100808354040283529160200191610589565b820191906000526020600020905b81548152906001019060200180831161056c57829003601f168201915b5050509183525050600282015460ff811615156020830152610100900460010b60408201526003820180546060909201916105c390611990565b80601f01602080910402602001604051908101604052809291908181526020018280546105ef90611990565b801561063c5780601f106106115761010080835404028352916020019161063c565b820191906000526020600020905b81548152906001019060200180831161061f57829003601f168201915b50505091835250506004919091015460ff808216151560208085019190915261010090920416151560409092019190915290825260019290920191016104d3565b505050509050919050565b6001600160a01b0382166106b757604051633250574960e11b8152600060048201526024015b60405180910390fd5b60006106c4838333610c6a565b9050836001600160a01b0316816001600160a01b03161461072b576040517f64283d7b0000000000000000000000000000000000000000000000000000000081526001600160a01b03808616600483015260248201849052821660448201526064016106ae565b50505050565b61074c838383604051806020016040528060008152506109aa565b505050565b6040805160e0810182526008548152602080820187815286151583850152600186810b606085015260808401869052600060a0850181905260c085018190526001600160a01b038b16815260078452948520805480830182559086529290942083516005909302019182555191928392908201906107cf9082611a11565b506040820151600282018054606085015161ffff166101000262ffff00199315159390931662ffffff1990911617919091179055608082015160038201906108179082611a11565b5060a08201516004909101805460c09093015115156101000261ff00199215159290921661ffff199093169290921717905561085386826108dc565b6008805490600061086383611ad0565b9190505550505050505050565b60006103cb82610c24565b60006001600160a01b0382166108c0576040517f89c62b64000000000000000000000000000000000000000000000000000000008152600060048201526024016106ae565b506001600160a01b031660009081526003602052604090205490565b80516000908152600660209081526040909120825181559082015182919060018201906109099082611a11565b506040820151600282018054606085015161ffff166101000262ffff00199315159390931662ffffff1990911617919091179055608082015160038201906109519082611a11565b5060a08201516004909101805460c09093015115156101000261ff00199215159290921661ffff19909316929092171790558051610497908390610d70565b6060600180546103e090611990565b610497338383610d8a565b6000828152600660205260409020600401805460ff1916600117905561072b84848484610e42565b60606109dd82610c24565b5060006109f560408051602081019091526000815290565b90506000815111610a155760405180602001604052806000815250610a40565b80610a1f84610e5a565b604051602001610a30929190611af7565b6040516020818303038152906040525b9392505050565b610a906040518060e001604052806000815260200160608152602001600015158152602001600060010b8152602001606081526020016000151581526020016000151581525090565b600660008381526020019081526020016000206040518060e001604052908160008201548152602001600182018054610ac890611990565b80601f0160208091040260200160405190810160405280929190818152602001828054610af490611990565b8015610b415780601f10610b1657610100808354040283529160200191610b41565b820191906000526020600020905b815481529060010190602001808311610b2457829003601f168201915b5050509183525050600282015460ff811615156020830152610100900460010b6040820152600382018054606090920191610b7b90611990565b80601f0160208091040260200160405190810160405280929190818152602001828054610ba790611990565b8015610bf45780601f10610bc957610100808354040283529160200191610bf4565b820191906000526020600020905b815481529060010190602001808311610bd757829003601f168201915b50505091835250506004919091015460ff8082161515602084015261010090910416151560409091015292915050565b6000818152600260205260408120546001600160a01b0316806103cb57604051637e27328960e01b8152600481018490526024016106ae565b61074c8383836001610efb565b6000828152600260205260408120546001600160a01b0390811690831615610c9757610c97818486611046565b6001600160a01b03811615610cd557610cb4600085600080610efb565b6001600160a01b038116600090815260036020526040902080546000190190555b6001600160a01b03851615610d04576001600160a01b0385166000908152600360205260409020805460010190555b600084815260026020526040808220805473ffffffffffffffffffffffffffffffffffffffff19166001600160a01b0389811691821790925591518793918516917fddf252ad1be2c89b69c2b068fc378daa952ba7f163c4a11628f55a4df523b3ef91a4949350505050565b6104978282604051806020016040528060008152506110c3565b6001600160a01b038216610dd5576040517f5b08ba180000000000000000000000000000000000000000000000000000000081526001600160a01b03831660048201526024016106ae565b6001600160a01b03838116600081815260056020908152604080832094871680845294825291829020805460ff191686151590811790915591519182527f17307eab39ab6107e8899845ad3d59bd9653f200f220920489ca2b5937696c31910160405180910390a3505050565b610e4d848484610688565b61072b33858585856110d7565b60606000610e6783611202565b600101905060008167ffffffffffffffff811115610e8757610e87611610565b6040519080825280601f01601f191660200182016040528015610eb1576020820181803683370190505b5090508181016020015b600019017f3031323334353637383961626364656600000000000000000000000000000000600a86061a8153600a8504945084610ebb575b509392505050565b8080610f0f57506001600160a01b03821615155b15611009576000610f1f84610c24565b90506001600160a01b03831615801590610f4b5750826001600160a01b0316816001600160a01b031614155b8015610f7d57506001600160a01b0380821660009081526005602090815260408083209387168352929052205460ff16155b15610fbf576040517fa9fbf51f0000000000000000000000000000000000000000000000000000000081526001600160a01b03841660048201526024016106ae565b81156110075783856001600160a01b0316826001600160a01b03167f8c5be1e5ebec7d5bd14f71427d1e84f3dd0314c0f7b2291e5b200ac8c7c3b92560405160405180910390a45b505b50506000908152600460205260409020805473ffffffffffffffffffffffffffffffffffffffff19166001600160a01b0392909216919091179055565b6110518383836112e4565b61074c576001600160a01b03831661107f57604051637e27328960e01b8152600481018290526024016106ae565b6040517f177e802f0000000000000000000000000000000000000000000000000000000081526001600160a01b0383166004820152602481018290526044016106ae565b6110cd838361136a565b61074c3360008585855b6001600160a01b0383163b156111fb57604051630a85bd0160e11b81526001600160a01b0384169063150b7a0290611119908890889087908790600401611b26565b6020604051808303816000875af1925050508015611154575060408051601f3d908101601f1916820190925261115191810190611b67565b60015b6111bd573d808015611182576040519150601f19603f3d011682016040523d82523d6000602084013e611187565b606091505b5080516000036111b557604051633250574960e11b81526001600160a01b03851660048201526024016106ae565b805181602001fd5b6001600160e01b03198116630a85bd0160e11b146111f957604051633250574960e11b81526001600160a01b03851660048201526024016106ae565b505b5050505050565b6000807a184f03e93ff9f4daa797ed6e38ed64bf6a1f010000000000000000831061124b577a184f03e93ff9f4daa797ed6e38ed64bf6a1f010000000000000000830492506040015b6d04ee2d6d415b85acef81000000008310611277576d04ee2d6d415b85acef8100000000830492506020015b662386f26fc10000831061129557662386f26fc10000830492506010015b6305f5e10083106112ad576305f5e100830492506008015b61271083106112c157612710830492506004015b606483106112d3576064830492506002015b600a83106103cb5760010192915050565b60006001600160a01b038316158015906113625750826001600160a01b0316846001600160a01b0316148061133e57506001600160a01b0380851660009081526005602090815260408083209387168352929052205460ff165b8061136257506000828152600460205260409020546001600160a01b038481169116145b949350505050565b6001600160a01b03821661139457604051633250574960e11b8152600060048201526024016106ae565b60006113a283836000610c6a565b90506001600160a01b0381161561074c576040517f73c6ac6e000000000000000000000000000000000000000000000000000000008152600060048201526024016106ae565b6001600160e01b0319811681146113fe57600080fd5b50565b60006020828403121561141357600080fd5b8135610a40816113e8565b60005b83811015611439578181015183820152602001611421565b50506000910152565b6000815180845261145a81602086016020860161141e565b601f01601f19169290920160200192915050565b602081526000610a406020830184611442565b60006020828403121561149357600080fd5b5035919050565b80356001600160a01b03811681146114b157600080fd5b919050565b600080604083850312156114c957600080fd5b6114d28361149a565b946020939093013593505050565b6000602082840312156114f257600080fd5b610a408261149a565b805182526000602082015160e0602085015261151a60e0850182611442565b9050604083015115156040850152606083015160010b60608501526080830151848203608086015261154c8282611442565b91505060a0830151151560a085015260c0830151610ef360c086018215159052565b6000602082016020835280845180835260408501915060408160051b86010192506020860160005b828110156115c757603f198786030184526115b28583516114fb565b94506020938401939190910190600101611596565b50929695505050505050565b6000806000606084860312156115e857600080fd5b6115f18461149a565b92506115ff6020850161149a565b929592945050506040919091013590565b634e487b7160e01b600052604160045260246000fd5b60405160e0810167ffffffffffffffff8111828210171561164957611649611610565b60405290565b60008067ffffffffffffffff84111561166a5761166a611610565b50604051601f19601f85018116603f0116810181811067ffffffffffffffff8211171561169957611699611610565b6040528381529050808284018510156116b157600080fd5b83836020830137600060208583010152509392505050565b600082601f8301126116da57600080fd5b610a408383356020850161164f565b803580151581146114b157600080fd5b8035600181900b81146114b157600080fd5b600080600080600060a0868803121561172357600080fd5b61172c8661149a565b9450602086013567ffffffffffffffff81111561174857600080fd5b611754888289016116c9565b945050611763604087016116e9565b9250611771606087016116f9565b9150608086013567ffffffffffffffff81111561178d57600080fd5b611799888289016116c9565b9150509295509295909350565b600080604083850312156117b957600080fd5b6117c28361149a565b9150602083013567ffffffffffffffff8111156117de57600080fd5b830160e081860312156117f057600080fd5b6117f8611626565b81358152602082013567ffffffffffffffff81111561181657600080fd5b611822878285016116c9565b602083015250611834604083016116e9565b6040820152611845606083016116f9565b6060820152608082013567ffffffffffffffff81111561186457600080fd5b611870878285016116c9565b60808301525061188260a083016116e9565b60a082015261189360c083016116e9565b60c082015280925050509250929050565b600080604083850312156118b757600080fd5b6118c08361149a565b91506118ce602084016116e9565b90509250929050565b600080600080608085870312156118ed57600080fd5b6118f68561149a565b93506119046020860161149a565b925060408501359150606085013567ffffffffffffffff81111561192757600080fd5b8501601f8101871361193857600080fd5b6119478782356020840161164f565b91505092959194509250565b602081526000610a4060208301846114fb565b6000806040838503121561197957600080fd5b6119828361149a565b91506118ce6020840161149a565b600181811c908216806119a457607f821691505b6020821081036119c457634e487b7160e01b600052602260045260246000fd5b50919050565b601f82111561074c57806000526020600020601f840160051c810160208510156119f15750805b601f840160051c820191505b818110156111fb57600081556001016119fd565b815167ffffffffffffffff811115611a2b57611a2b611610565b611a3f81611a398454611990565b846119ca565b6020601f821160018114611a735760008315611a5b5750848201515b600019600385901b1c1916600184901b1784556111fb565b600084815260208120601f198516915b82811015611aa35787850151825560209485019460019092019101611a83565b5084821015611ac15786840151600019600387901b60f8161c191681555b50505050600190811b01905550565b600060018201611af057634e487b7160e01b600052601160045260246000fd5b5060010190565b60008351611b0981846020880161141e565b835190830190611b1d81836020880161141e565b01949350505050565b6001600160a01b03851681526001600160a01b0384166020820152826040820152608060608201526000611b5d6080830184611442565b9695505050505050565b600060208284031215611b7957600080fd5b8151610a40816113e856fea2646970667358221220f5d49e499360663054759477d49cbd8df31a462ea02da34e4fad9bc92322407d64736f6c634300081c0033",
  "linkReferences": {},
  "deployedLinkReferences": {}
}